:100000000C9441050C945E050C945E050C94BD3077
:100010000C945E050C945E050C945E050C945E05D4
:100020000C945E050C945E050C9453210C940820EE
:100030000C9402230C945E050C945E050C945E05F2
:100040000C945E050C945E050C945E050C945E05A4
:100050000C945E050C9499220C945E050C945E053C
:100060000C945E050C945E050C945E050C945E0584
:100070000C945E050C945E050C945E050C945E0574
:100080000C945E050C945E050C945E050C945E0564
:100090000C945E050C945E050C945E050C945E0554
:1000A0000C945E050C945E050C945E054C0A4C0A9B
:1000B0007E0A7E0AED0AA20CA20CA20C0B0BE90B25
:1000C000FC0BFC0B212C482CE02D482CE02D902C17
:1000D000B32CE02DA22DB52D00DA0281FFD9F1DB82
:1000E00020A4A62EAF00A0C000A1C800AED580A855
:1000F0001FD300408D142000636F726E65008081F5
:10010000828384A0A1A2A3A4C0C1C2C3C4002094BE
:1001100095962020B4B5B62020D4D5D620002097BF
:1001200098992020B7B8B92020D7D8D92000209A94
:100130009B9C2020BABBBC2020DADBDC2000209D69
:100140009E9F2020BDBEBF2020DDDEDF20002020BE
:1001500020202000A7A800AFB000C600CA00C80039
:10016000A5A600ADAE008788008F9000C500C9002D
:10017000C700CB008586008D8E00ABAC00CFD000D1
:10018000C600CA00C800A9AA00B1B2008B8C00CD7D
:10019000CE00C500C900C700CB00898A009192003B
:1001A000290014001A000800150017002B00040095
:1001B0001600070009000A0003571D001B00060077
:1001C00019000500000000000000E000A85D2C0000
:1001D0002A00130012000C0018001C0001570057E1
:1001E0000F000E000D000B0028720257370036007A
:1001F000100011000000000000000457A95D2C0051
:1002000029001E001F00200021002200A500000080
:1002100000000000A9000A04A60000000000AC00D5
:10022000AA00AB00000000000000E20101002C0069
:100230002A00270026002500240023004C0052003D
:10024000000000004614AC5D4F005100500000005B
:10025000B300AB5D000000000000E600A95D2C00CB
:1002600029001E021F022002210222023A003B0046
:100270003C003D003E003F00400041004200430082
:1002800044004500000000000000E300A85D2C00D1
:100290002A00270226022502240223024C003102F2
:1002A00030002F002E002D002800310030022F02D8
:1002B0002E022D02000000000000E60001002C00CC
:1002C00000000000000000000000C35C0000C65CED
:1002D000C85CCA5CCC5CC45C0000C75CC95CCB5C1D
:1002E000CD5C0000000000000000E00001002C00D8
:1002F000000000000000000000000000005C0000A2
:1003000000000000000000000000000000000000ED
:1003100000000000000000000000E60001002C00CA
:1003200000AF00AE05010980A101850319012AB7BC
:1003300000150126B700950175108100C0050C0954
:1003400001A101850419012AA002150126A0029528
:100350000175108100C005010906A1018506050788
:1003600019E029E7150025019508750181020507A7
:10037000190029EF1500250195F075018102050886
:1003800019012905950575019102950175039101E2
:10039000C005010906A101050719E029E715002597
:1003A00001950875018102950175088101050719FC
:1003B0000029FF150026FF00950675088100050835
:1003C00019012905950575019102950175039101A2
:1003D000C009023B00020100A0FA09040000010369
:1003E00001010009211101000122400007058103DC
:1003F00008000109040100010300000009211101A6
:100400000001226D00070582032000011201000295
:1004100000000008534601000100010200010C0326
:1004200043006F0072006E0065000000100366005C
:100430006F006F007300740061006E000000040321
:1004400009040000000000003E5B4F5B3E003E6B75
:100450004F6B3E001C3E7C3E1C00183C7E3C18004E
:100460001C577D571C001C5E7F5E1C0000183C184A
:100470000000FFE7C3E7FF00001824180000FFE7B3
:10048000DBE7FF0030483A060E00262979292600CE
:10049000407F05050700407F05253F005A3CE73CAB
:1004A0005A007F3E1C1C0800081C1C3E7F001422C2
:1004B0007F2214005F5F005F5F0006097F017F00FD
:1004C000006689956A0060606060600094A2FFA287
:1004D000940008047E04080010207E201000080804
:1004E0002A1C0800081C2A0808001E101010100002
:1004F0000C1E0C1E0C0030383E383000060E3E0E2E
:10050000060000000000000000005F00000000077F
:1005100000070000147F147F1400242A7F2A120091
:100520002313086462003649562050000008070370
:100530000000001C224100000041221C00002A1C77
:100540007F1C2A0008083E08080000807030000068
:100550000808080808000000606000002010080477
:1005600002003E5149453E0000427F400000724972
:10057000494946002141494D33001814127F1000AB
:100580002745454539003C4A494931004121110977
:100590000700364949493600464949291E000000EE
:1005A0001400000000403400000000081422410044
:1005B00014141414140000412214080002015909F3
:1005C00006003E415D594E007C1211127C007F49AD
:1005D000494936003E41414122007F4141413E00B0
:1005E0007F49494941007F09090901003E414151C4
:1005F00073007F0808087F0000417F410000204011
:10060000413F01007F08142241007F4040404000EC
:100610007F021C027F007F0408107F003E414141A1
:100620003E007F09090906003E4151215E007F0915
:100630001929460026494949320003017F01030078
:100640003F4040403F001F2040201F003F403840B7
:100650003F00631408146300030478040300615925
:10066000494D4300007F4141410002040810200031
:10067000004141417F00040201020400404040402B
:1006800040000003070800002054547840007F28F1
:1006900044443800384444442800384444287F0007
:1006A00038545454180000087E0902001824241CF1
:1006B00078007F080404780000447D40000020405A
:1006C000403D00007F102844000000417F400000B2
:1006D0007C04780478007C0804047800384444449E
:1006E00038007C1824241800182424187C007C0866
:1006F0000404080048545454240004043F442400D3
:100700003C4040207C001C2040201C003C403040ED
:100710003C004428102844004C9090907C00446495
:10072000544C4400000836410000000077000000EF
:100730000041360800000201020402003C26232684
:100740003C000000000000000000C0E0F0F8F818D5
:1007500000C0F0FCFEFFFFFFFFFFFFFF7E00000078
:1007600000F8042252E2424242E252222222428213
:10077000020222220204F80000F80402028242224D
:100780004282020202824222122242820204F800C3
:1007900000F8FCDEAE1EBEBEBE1EAEDEDEDEBE7EDF
:1007A000FEFEDEDEFEFCF80000F8FCFEFE7EBEDE95
:1007B000BE7EFEFE00000000000080804040202041
:1007C0001010080810102020404080808080C0C099
:1007D000E0E0F0F0F8F8F0F0E0E0C0C08080808069
:1007E0004040202010100808101020204040808039
:1007F000808040C060A050B058A850B060A040C0F9
:10080000808000F8FCFEFFE000FFFFFFFFFFFF809D
:10081000FFFFFFFFFFFFFFFFFF1F070100000000BA
:10082000001F20444A47424242474A444040404019
:100830004142444440201F00001F204041404040AE
:100840004040414041414F4848484F4141201F00EE
:10085000001F3F7B75787D7D7D78757B7F7F7F7FF7
:100860007E7D7B7B7F3F1F00001F3F7F7E7F7F7FE2
:100870007F7F7E7F00000000000088885D5D3E3E37
:100880007C7CF8F87C7C3E3E5D5D88888888555588
:10089000232347478F8F47472323555588888888C8
:1008A000D5D5E2E2C4C48888C4C4E2E2D5D588883C
:1008B00088885DD56BB66DD6ADDA6DD66BB65DD575
:1008C000888800030F1F3F3F3F3F1F1F3F3F7F7F31
:1008D0007F3F3F1F3F7F7F7F7F7C7878381C0F00F2
:1008E00004F80000F804201F00001F20FCF800009E
:1008F000F8043F1F00001F2004F80000F8FC201F30
:1009000000001F3FFCF80000F8FC3F1F00001F3FE5
:10091000FE7EBEDEEEDEBE7EFEFCF8007E7E7077E2
:100920007777707E7E3F1F0000000000000000000F
:1009300000000000000000000000000001010202B1
:10094000040408080404020201010000000001017F
:10095000020204040808040402020101000000006D
:100960000101030307070F0F07070303010100003D
:1009700000000101030205060D0A0506030201013C
:100980000000000101010101010101010202020256
:100990000202020202030303030303030304040429
:1009A00004040404050505050506060606060707F2
:1009B00007070708080808090909090A0A0A0B0BAA
:1009C0000B0C0C0C0D0D0D0E0E0E0F0F0F10101149
:1009D00011111212131314141515161617171818CF
:1009E00019191A1A1B1B1C1D1D1E1E1F2020212237
:1009F00022232424252626272829292A2B2C2D2D7D
:100A00002E2F30313232333435363738393A3B3C99
:100A10003D3E3F404142434445464748494A4C4D8C
:100A20004E4F50515354555658595A5B5D5E5F6155
:100A30006264656668696B6C6D6F707273757778E8
:100A40007A7B7D7E8082838587888A8C8E8F919346
:100A50009596989A9C9EA0A2A3A5A7A9ABADAFB16D
:100A6000B3B5B7BABCBEC0C2C4C6C9CBCDCFD1D452
:100A7000D6D8DBDDDFE2E4E7E9EBEEF0F3F5F8FAF8
:100A8000FDFF11241FBECFEFDAE0DEBFCDBF13E0C4
:100A9000A0E0B1E0E6E1F5E602C005900D92AA30D3
:100AA000B107D9F727E0AAE0B3E001C01D92A43A4C
:100AB000B207E1F70E949B0D0C9489320C94000060
:100AC0009C013A9521153F4130F5BC0166277270B3
:100AD000AC01442754709C012227387094FF0FC04A
:100AE00090FF02C080E101C080E0672B09F08062C6
:100AF000452B09F08064232B79F080680895892FB5
:100B00008170672B09F08260452B09F08460232BEC
:100B100019F08860089580E008951F93CF93DF93C4
:100B2000CDB7DEB767970FB6F894DEBF0FBECDBF67
:100B30004B8B5C8B6D8B7E8B8F8B2E893F89211528
:100B4000310531F05F3F31F481E04F3F19F403C0CC
:100B500081E001C080E080FD09C080910D0390918B
:100B60000E03019690930E0380930D036111109272
:100B70004F0486E0FE013D96DF01982F1D929A9565
:100B8000E9F74D875E876F87398B288BDE011796D3
:100B900001900D928A95E1F7CE0107960E94E91C1B
:100BA00081113EC086E0FE013796DE01119601906C
:100BB0000D928A95E1F7FF81E8856A857B8561154D
:100BC000710531F0EF3F31F481E0FF3F19F403C0CC
:100BD00081E001C080E080FD23C02091F10330E07E
:100BE000C9010196877099274091220450E084172B
:100BF000950779F1F983EA837D836C8396E0929F70
:100C0000D001939FB00D1124AE50BC4FFE01319620
:100C100001900D929A95E1F78093F1030E94D21A08
:100C200016E0809122049091F1038917F9F0189F42
:100C3000C00111248E509C4F0E94E91C8823B1F002
:100C40008091220490E00196877099278093220476
:100C5000E8CF0E948A1E1092F10310922204EBEE5C
:100C6000F3E086E0DF011D928A95E9F767960FB6FB
:100C7000F894DEBF0FBECDBFDF91CF911F910895D5
:100C8000CF93DF93EC010E94C11ECE01805E9109DB
:100C9000089710F0209739F4CE010E946005DF918B
:100CA000CF910C94B01ECE010E946005DF91CF91D0
:100CB0000C949F1ECF93DF93EC01805E91090897FF
:100CC00010F0209731F4CE010E9460050E94B71EFB
:100CD00005C0CE010E9460050E94A61E8C2FDF91E8
:100CE000CF910C94EB1E2F923F924F925F926F9296
:100CF0007F929F92AF92BF92CF92DF92EF92FF923C
:100D00000F931F93CF93DF93CDB7DEB72A970FB61C
:100D1000F894DEBF0FBECDBFFC010081D18083817E
:100D20009481892B41F022242A94D21006C091E0AC
:100D30000F3F19F403C091E001C090E090FDE3C6BD
:100D40007F0185E0DE01169601900D928A95E1F70C
:100D5000D70112962C918E819F81222349F00E9407
:100D6000481B182F682F8E819F810E94EA1B03C0A9
:100D70000E94BD1B182FB0E31B9FF001112426E039
:100D8000D29EE00DF11D1124E00FF11DEE0FFF1FAB
:100D9000E056FE4F05911491D70112968C9188234D
:100DA00009F455C080910D0190910E01019609F44E
:100DB00060C09AE7C92E91E0D92EA12CB12C9924BC
:100DC000939480910D0190910E018A159B0564F119
:100DD000F6018681882309F1818592858017910724
:100DE00039F480914D0490914E0480179107A9F039
:100DF000D6011F969C921F971C961C930E931B97CF
:100E000051968C91811103C0C6010E94C723C6016F
:100E100006960E94E82310924F04BFEFAB1ABB0A5C
:100E2000E6E1CE0ED11CCDCF093AFDE51F0729F131
:100E30000A3A2DE5120779F1083A8DE51807E1F530
:100E4000D70112968C91882371F081E01BC0093A7A
:100E50002DE5120791F00A3A8DE51807E1F0083AFE
:100E60009DE5190749F581E00E943C1C0E94852AF6
:100E70007FC2093ABDE51B0751F4F701828188233F
:100E800021F082E00E949B1CF1CF82E0EDCF0A3A74
:100E9000EDE51E0769F4D70112968C91882321F0A5
:100EA00083E00E949B1C64C283E00E943C1C60C2E1
:100EB000083AFDE51F0749F2C80197558F3F910594
:100EC00011F008F054C020910D0130910E01281747
:100ED000390724F490930E0180930D01F7012281CC
:100EE00036E1389F5001399FB00C1124C501865856
:100EF0009E4F6C01DC0150962C9350979281169670
:100F00008C911697992341F11A961C930E93199779
:100F10008F5F16968C930E94F622F601968785873E
:100F200080912E03878390914F0480915004892BE8
:100F300080870190F081E02DC50180589E4F309749
:100F400031F0D60154966D917C9155970995109387
:100F50004E0400934D040BC0882349F0F6018189AB
:100F6000882329F0C50180589E4F0E94E823043F42
:100F7000FCE51F0759F190F4093D8CE51807E9F0ED
:100F80000A3D9CE51907A1F1083DACE51A07B1F54A
:100F900006E221EE41EE68ED7CE514C0063FBCE5BB
:100FA0001B0701F1C8F0073FFCE51F0739F507E211
:100FB00025EE46EE67EF7CE505C007E225EE45EE3F
:100FC00069ED7CE5C7010E942F24D2C106E221EE23
:100FD00040EE64EF7CE5F6CF07E225EE44EE65EFE8
:100FE0007CE5F0CF06E221EE42EE66EF7CE5EACF4B
:100FF00008E221E045EE6AED7CE5E4CFD7011296E8
:101000008C91882309F45BC110924C040430BDE537
:101010001B0758F40B3FECE51E0780F4C801825013
:101020009C45449708F035C109C00236FDE51F070D
:1010300029F0063A2DE5120709F02BC10E94AA17E4
:1010400090935E0480935D0401318CE5180709F4E8
:10105000C6C008F042C00930ACE51A0709F49BC0CD
:1010600000F50530ECE51E0709F485C078F403307F
:101070002CE5120709F478C008F07AC002301C454C
:1010800009F0F7C080915D048160F1C00730ACE5E4
:101090001A0709F478C008F07AC080915D04806175
:1010A000E6C00D30ECE51E0709F487C058F40B309C
:1010B0002CE5120709F479C008F07BC080915D042B
:1010C00088606FC00F309CE5190709F480C008F0F4
:1010D00082C080915D04877FCAC00E3FBCE51B07BC
:1010E00009F471C000F50531FCE51F0709F485C05E
:1010F00068F403318CE5180709F475C008F095C051
:101100000E948A1E80915D048F77B1C00C3FACE5D0
:101110001A07A9F108F054C00B3F1C4509F0A9C0FB
:1011200080915E0440C00230FDE51F0709F489C0CC
:1011300058F401158DE5180709F45AC008F069C084
:1011400080915E0482602FC00236ADE51A0709F473
:101150007EC0063ABDE51B0709F483C003301D4578
:1011600009F087C060E06EC080915D0482607FC03E
:1011700080915D0416C080915D04886078C0809184
:101180005E0482604FC080915D04806270C0809177
:101190005D0480646CC00E948A1E80915D0480683A
:1011A00066C0846064C081603DC080915D048E7FB4
:1011B0005EC080915D048D7F5AC080915D0416C031
:1011C00080915E0418C080915E048D7F2BC0809159
:1011D0005D048F7E4CC080915D048F7D48C08091FE
:1011E0005D048F7B44C080915D04877F8B7F3FC00F
:1011F00080915E048D7F8E7F15C080915D0482FB9F
:10120000222720F991E0922790FB82F990FB83F945
:101210002EC080915E04982F909591708E7F892BBF
:1012200090FB81F980935E0424C00E948A1E809105
:101230005D0487FB222720F991E0922790FB87F934
:1012400016C061E08EE090E00E94293212C08091C9
:101250005D0484FB222720F991E0922790FB84F91A
:1012600006C080915D04982F909590FB80F9809343
:101270005D0460915D0410915E0484E090E00E9442
:101280002932612F82E290E00E9429320E948A1E58
:101290006FC006318CE5180721F5809150048A7AD9
:1012A00091E009F490E090930C03882311F065E33A
:1012B00001C069E28DEA93E00E9453230FC006311A
:1012C000ACE51A0709F041C080910C03882309F4AA
:1012D000ABC365E38DEA93E00E942B230E94711A51
:1012E00047C00B35FDE51F0751F158F401158CE59A
:1012F0001807B9F00F3D1C4509F06BC00E94E819B2
:1013000037C00C35ADE51A07E1F00D351D4509F084
:1013100060C080915E0482FB882780F991E0892774
:1013200011C00E948A1EEFEFF4E32CE0E150F04080
:101330002040E1F700C000000E94882219C081E02F
:1013400001C080E00E947E1C44C0809150048272E3
:101350000B3CFCE51F0709F4C6C308F467C3013D55
:10136000ECE51E0770F50F3CFCE51F0708F48DC384
:1013700080912304877009F4C6C3D70112968C911B
:10138000882309F4C0C380915E0482FDBCC382E05F
:101390002A960FB6F894DEBF0FBECDBFDF91CF9176
:1013A0001F910F91FF90EF90DF90CF90BF90AF9083
:1013B0009F907F906F905F904F903F902F900C94F4
:1013C000611C073DACE51A0708F469C30E351D45DD
:1013D00079F2D70112968C9112970C911196DC90AC
:1013E000882359F0802F9D2D0E94481B182F682FAD
:1013F000802F9D2D0E94EA1B05C0802F9D2D0E94ED
:10140000BD1B182FB0E31B9FF001112426E0D29ED4
:10141000E00DF11D1124E00FF11DEE0FFF1FE0564E
:10142000FE4F859194910E942116182F092F982E16
:10143000D7011296DC9012971596BC90B2948FE06B
:10144000B822809123048770B9F0DD20A9F0892F9C
:10145000807F803421F080E2810F883068F08091B5
:101460005E0482FD09C082E00E94611C8091230419
:101470008770AA24A3948111A12C702E7294BFE0CE
:101480007B22872D90E08C30910508F05BC2FC0137
:10149000EA5AFF4F0C946D32902F9F70802F807FFF
:1014A000C92E19F0C294A0EFCA22DD20B9F0CC20D9
:1014B00009F435C280E2810F883010F0911006C027
:1014C00080915004C82AC092500405C080914F04F6
:1014D000C82AC0924F040E94711A21C2812F0E9413
:1014E000C11ECC2009F42EC280E2810F883078F131
:1014F000992069F18C2D0E94631A2CC0902F9F7047
:10150000802F807FC92E803219F0C294F0EFCF2255
:10151000992021F0B1E09B16C1F148C080915E0492
:1015200082FF1BC0DD2069F0CC2039F0809150048F
:10153000C82AC09250040E94711A80E00E94EB1EDB
:1015400001C280E00E94C11ECC2009F4FBC18C2D99
:101550000E946A1A0E94711AF5C1DD2069F080911B
:101560002E03B11002C08C2918C0E1E08C29BE12F4
:1015700014C00E94591AE6C1BB2021F0F1E0BF1649
:1015800009F4E0C10E94531A24C0DD2049F0E5E0CF
:101590002E2E2B1408F4D6C18C2D0E94B71ED2C15A
:1015A00074E0372E3B1408F4CDC113C0DD2019F0D0
:1015B000BB2091F3B4C1BB2061F069E3462E9410C7
:1015C000BEC12FEF87EE93E0215080409040E1F7BD
:1015D000B4C18C2D0E94B01EB5C1802F8695869512
:1015E000837019F0813061F0ADC1DD2021F0812FD1
:1015F000902F937002C080E090E00E949E23A8C1CB
:10160000DD2021F0812F902F937002C080E090E0C8
:101610000E9488239DC1802F837009F069C0D1107A
:1016200095C1912F929596959770990F990F812F4B
:101630008F70482E512C612C712C092E04C0440C43
:10164000551C661C771C0A94D2F714FF12C04FE099
:1016500050E060E070E004C0440F551F661F771F24
:101660009A95D2F7DB01CA0180959095A095B09527
:1016700003C080E090E0DC01602F669566956370A2
:10168000623019F1C8F42091940330919503409190
:10169000960350919703613059F084299529A62922
:1016A000B729BC01CD0162237323842395230AC08B
:1016B000422A532A642A752ABC01CD01642975295E
:1016C000862997290E94BC1C41C184299529A629F5
:1016D000B7294090940350909503609096037090C2
:1016E0009703BC01CD016425752586259725EACF92
:1016F000DD2019F0802F817001C08695882309F4C0
:1017000025C1912F929596959770990F990F812FDA
:101710008F70482E512C612C712C092E04C0440C62
:10172000551C661C771C0A94D2F714FF12C04FE0B8
:1017300050E060E070E004C0440F551F661F771F43
:101740009A95D2F7DB01CA0180959095A095B09546
:1017500003C080E090E0DC01602F669566956370C1
:101760006230D9F068F52091B9043091BA04409103
:10177000BB045091BC04613059F084299529A629F5
:10178000B729BC01CD0162237323842395231EC096
:10179000422A532A642A752A13C084299529A62926
:1017A000B7294090B9045090BA046090BB0470907F
:1017B000BC04BC01CD01642575258625972506C08E
:1017C000BC01CD0164297529862997290E94321C04
:1017D000BDC0A02FAF70CA2EDD2039F08A2F0E9425
:1017E0009B1C812F0E94B71EB1C0812F0E94B01E8A
:1017F0008C2D0E943C1CAAC0812FB2EF9B1609F4CD
:1018000049C0B91538F0E0EF9E1671F0F1EF9F1660
:10181000E1F180C053EF252E921409F442C044EF49
:10182000342E931471F176C0DD2029F134E0432E7B
:101830004B1408F487C0202F2F7181E090E0A0E0C6
:10184000B0E0AC01BD0104C0440F551F661F771FF7
:101850002A95D2F78091B9049091BA04A091BB0463
:10186000B091BC041A012B01282639264A265B2692
:10187000C201B1012BC025E0322E3B1408F462C036
:10188000DACF80915E0482FF24C0DD2029F0802F12
:101890008F7133C0DD20D9F3802F8F710E943C1CE3
:1018A00051C0DD2081F0202F2F7181E090E0A0E079
:1018B000B0E0BC01CD0104C0660F771F881F991FDF
:1018C0002A95D2F703C060E070E0CB010E94321C81
:1018D00039C0DD20A9F0202F2F71C22E822F0E9447
:1018E0009B1C80915E0482FD07C0A8E0CA9EC001D7
:1018F00011248360809323048C2D0E949B1C22C0A2
:1019000081E00E94611CB1E0BB15E0F482E00E941E
:10191000611C18C0DD2029F0BB2009F4B8CF812F4D
:101920000DCEBB2009F4B8CF893349F4EFEFF7EEC1
:1019300023E0E150F0402040E1F700C00000812F9B
:101940000E94C11E88EF870D843010F40E94B423DA
:10195000812F902F0E94C61C811105C010920E038A
:1019600010920D0329C0DD2019F0B110F7CF24C06B
:10197000B110F4CF80910D0390910E03029771F78F
:10198000193321F490E5C92ED12C02C0C12CD12CE1
:10199000812F0E94EB1EC114D10451F08FE99FE00A
:1019A0000197F1F700C0000091E0C91AD108F3CF08
:1019B000812F0E94C11ED2CFAA20B1F080912304B2
:1019C00080FD12C0D70112961C928595859585954C
:1019D0000E949B1CC7010E94730680912304859579
:1019E000859585950E943C1C85E0F701DE011196E6
:1019F00001900D928A95E1F789819A810E94BD1B21
:101A00009A81B0E38B9FF001112426E0929FE00DB4
:101A1000F11D11248981E80FF11DEE0FFF1FE05623
:101A2000FE4F859194916FC069E254CC063C9CE5D1
:101A3000190709F444C0B8F4043CBCE51B07A9F13C
:101A4000C8F5033C1C4509F0C4CC90919E0781E089
:101A5000892780939E071092EB0180918E0581600B
:101A600080938E0585CC083C2CE5120791F160F13E
:101A7000093CACE51A0791F10A3C1C4509F0A9CCD8
:101A800047E655E263E775E237C00D3C2CE51207E7
:101A900079F1A8F540E055E26EE075E22DC0023D17
:101AA0001C4508F065CC83E02BC049EA55E262EBA7
:101AB00075E222C042EB55E269EA75E21DC047E9D2
:101AC00055E260EA75E218C040EA55E267E975E25E
:101AD00013C04FE755E26BE875E20EC04BE855E2E4
:101AE0006FE775E209C043E755E267E675E204C0B7
:101AF0004EE055E260E075E20E94FA2439CC81E0C4
:101B00000E94A32A35CC2A960FB6F894DEBF0FBEEA
:101B1000CDBFDF91CF911F910F91FF90EF90DF909C
:101B2000CF90BF90AF909F907F906F905F904F90BD
:101B30003F902F900895CF93DF93CDB7DEB72C97CA
:101B40000FB6F894DEBF0FBECDBF84B7877F84BFCA
:101B50000FB6F894A895809160008861809360002A
:101B6000109260000FBE90E080E80FB6F89480936A
:101B70006100909361000FBE85B7806885BF85B70F
:101B8000806885BF8DEA92E190930B0380930A03EE
:101B90000E944C200E94F2208091E2008460809399
:101BA000E2007894809184058823A1F01091E900E7
:101BB0001F709091EC00892F817090FD80E8182BA8
:101BC0001092E9008091E80083FD0E943B2B1F707A
:101BD0001093E90082E084BD93E095BD9AEF97BD34
:101BE00080936E0010920F03109210031092110355
:101BF000109212030E948515809300010E948515A2
:101C000081110E9477308091000180910001811143
:101C100002C094E001C090E090931C0384E0891B13
:101C200080931B0302EF11E066EFE62E61E0F62ED3
:101C3000D8018D918D018F3F11F00E94A815E016FB
:101C4000F106B1F706EF11E05CEFE52E51E0F52E5D
:101C5000F80181918F018F3F11F00E94A815E016C5
:101C6000F106B1F788E0EDE1F3E0DF01282F1D92E6
:101C70002A95E9F7E3E1F3E0DF011D928A95E9F7A0
:101C800080E090E00E941332893E9E4F11F00E9446
:101C9000E81982E090E00E940B32809325030E94B5
:101CA000AA1790935E0480935D040E94BB17EFE334
:101CB000FCE93197F1F700C000000E94BB170E94B9
:101CC0008515811102C0E4E001C0E0E0F0E0E35ED0
:101CD000FC4F808181FF08C06FEF7FEF80E090E0D4
:101CE0000E9447320E94882283E090E00E940B32DB
:101CF000682F70E080E090E00E94BC1C10928C0481
:101D0000E5EAF4E085EB94E02FEF3FEF2193319388
:101D10008E179F07D9F710926304ECE7F4E08CE884
:101D200094E02FEF3FEF219331938E179F07D9F760
:101D300080E090E00E941332893E9E4F21F00E9485
:101D4000E8190E944A2E46E050E06CE170E08EE90E
:101D500097E00E94FB3110928E0580919E078C7F48
:101D600011F40E944A2E83E080934F0380E2809317
:101D70008F050E940B2F6DE070E08BEE90E00E94CB
:101D8000BC2A892B09F043C080914F0363E070E0C7
:101D900081FD3AC088EE90E00E94BC2A892BB9F5FB
:101DA0006DE070E088ED90E00E94BC2A892B79F507
:101DB0000E94EA22DC01CB0188539045AF4FBF4F10
:101DC0008093440490934504A0934604B093470441
:101DD000E2E9F5E080E092E0DF019C011D922150F4
:101DE0003040E1F7F0939907E09398078FEF9FEF6A
:101DF000909391058093900581E0809349048093AE
:101E000048041092500303C085EE90E0C5CF0E94B5
:101E10008515811102C00E947A3081E091E0909393
:101E200055048093540422242394312C80918405FA
:101E3000853009F056C030E4F32E00E112E18091C4
:101E40008405853009F043C080918405843069F1B0
:101E500081E00E94F0270E940A2881E00E94F0277A
:101E60000E94BA241092580488E190E00FB6F894CA
:101E7000A895809360000FBEF092600083B7817FC9
:101E8000846083BF83B7816083BF7894889583B76C
:101E90008E7F83BF0FB6F894A8958091600088610B
:101EA00080936000109260000FBE809183058823AC
:101EB00009F4C5CF0E94BB17EDE1F3E081918111D8
:101EC00004C3A5E2B3E0AE17BF07C1F7B8CF0E94C5
:101ED0008A1E0E94B42380E00E94F02780E00E94C6
:101EE000F0270E94BB17C82E81110E94EA22ADE1A3
:101EF000B3E0E6E2F3E000E010E0A02EBD908191B7
:101F00008B2509F4A7C0F12CEE24E3949E2D982391
:101F100009F49BC00E948515BE20882399F0F982A0
:101F2000AA8281E0B11001C080E08B830E94F6227A
:101F30008160782F9D838C8349815A816B818D814B
:101F40000E948D05F801EA5DFC4F8081E826E08261
:101F5000BB2069F086E0809FF001819FF00D112485
:101F6000E95CFD4FEF0DF11D80818F3F11F4B12C25
:101F700003C0D82EBB24B3940B2D10E080916304D2
:101F8000F801E80FF11D3997ACF188E0E82EF12C4B
:101F9000E01AF10AB8016F5F7F4F6D597B4FA701BF
:101FA00084E694E00E948032B801675F7F4F6D59EC
:101FB0007B4FA7018CE694E00E948032A701440F7A
:101FC000551FB801660F771F675E7F4F6D597B4FB6
:101FD0008CE794E00E948032B8016F5E7F4F6D59AC
:101FE0007B4FA70184E794E00E94803288E08B1940
:101FF000809363048091630490E0AD2DB0E09D0177
:10200000220F331F29593D4FAA0FBB1FBD0168592D
:102010007D4F41E0480F9B15A8F490E0FC01ED597D
:10202000FB4FD9015C915183DB015C915187D18ACF
:10203000880F991FFC01ED59FB4F128E118E91E014
:10204000842FE7CF809363041BC0F394EE0C26E04B
:10205000F2125CCF0F5F1F4F0830110509F04DCF12
:102060008FEF8E838F8318860E94F6228160782FEF
:102070009A8789874E815F8168858A850E948D0550
:102080000E948515811108C00E940A288091490488
:10209000882309F40DC249C080910D0190910E0171
:1020A000019691F3912CF6E18F2EE92CF12C809181
:1020B0000D0190910E018E159F0534F38E9CF00159
:1020C0008F9CF00D1124E658FE4FA288B388A1140E
:1020D000B10419F4EAEFAE2EB12C8E9C80018F9CD6
:1020E000100D112406581E4FD80116968C91169784
:1020F0008823C9F01D968D919C911E970E94DB222A
:10210000A816B90680F4F8018189811103C0C801BD
:102110000E94C7238E9CC0018F9C900D1124805873
:102120009E4F0E94E8239394C0CF809151039091D9
:1021300052030E94DB22C29708F4BAC00E94F62222
:10214000909352038093510382E995E0909399070D
:10215000809398078EEF90E00E94952A88EF90E098
:102160000E94952A8EE491E00E94952A83E00E94C5
:10217000161C882319F08EE391E012C081E00E94C2
:10218000161C882319F08EE291E00AC082E00E94BA
:10219000161C882319F08EE191E002C08EE091E0D8
:1021A0000E94952A8EE491E00E94952A10912E03B8
:1021B00080915004182B012F08781474002349F0E3
:1021C00087E791E00E94952A112361F082E791E070
:1021D0000CC084E791E00E94952A112359F08EE605
:1021E00091E003C080E791E007C00E94952A112387
:1021F000A9F005C08CE691E00E94952A0FC089E6FF
:1022000091E00E94952A011119C080E691E00E9498
:10221000952A112381F08CE591E016C086E691E0C5
:102220000E94952A002389F383E691E00E94952A73
:102230008EE591E081C18AE591E07EC183E691E07F
:102240000E94952A8EE591E00E94952A87E591E00B
:102250000E94952A10912E0380915004182B012F73
:1022600001711272002309F446C18DE991E00E94C8
:10227000952A112309F448C188E991E00E94952A22
:10228000112309F448C18FE891E00E94952A0111B9
:1022900058C186E891E00E94952A112309F449C1AA
:1022A00082E891E00E94952A8DE791E00E94952AAC
:1022B00080914904882309F4E0C020919005309171
:1022C00091052115310509F4D8C080915003811181
:1022D000D4C0482E512C7101082E02C0EE0CFF1CF8
:1022E0000A94E2F7A9014E215F21452B11F48F5F7B
:1022F000F0CF90914F03920175E0220F331F7A9532
:10230000E1F790FD12C08295880F807680931101CD
:10231000220F232F221F330B319520931401815E4E
:10232000809312011092150112C055E03695279541
:102330005A95E1F7220F220F220F209311011092DC
:102340001401295F2093120183E08093150124E694
:1023500030E047E050E06FE071E088E70E94C22F74
:10236000892B09F08AC080914F0380FD23C0C201F0
:1023700045E0880F991F4A95E1F7AC014E565A4F38
:1023800004E610E020E230E060E488E70E94E92FF4
:10239000892B09F072C00E94D424E094F0948091BB
:1023A000900590919105E822F922F0929105E09232
:1023B000900563C080E2EFE2F3E0DF011D928A95B1
:1023C000E9F735E0440C551C3A95E1F7E0E0F2E01E
:1023D000FC87EB876CEF71E0AB85BC858D91BC878A
:1023E000AB87FB019191BF01A201490F511D4E56D0
:1023F0005A4F90E0815D9C4FFC0127E0A22E9F0187
:10240000281B390B822C01C0880C2A95EAF78A0117
:10241000912CD801BD908D01B8202A2D2919277043
:10242000722E022E000C330BBB2D01C0BB0F7A9411
:10243000EAF77B2E3195219531092770332701C0AA
:10244000B6942A95EAF77B28B0807B287082939413
:1024500028E09212DECFAA9431963FEFA312CFCF9D
:102460008B859C858450924009F0B6CF04E610E03D
:1024700020E230E04FE253E087CF80914804882388
:10248000B9F00E94EA220091440410914504209181
:10249000460430914704DC01CB01801B910BA20B59
:1024A000B30B8F3F9F4FAF4FBF4710F40E94BA242A
:1024B000C1100E94D4240E94B42390915303891721
:1024C00009F4B4CC80935303B1CC09BD19BD09B450
:1024D00000FEFDCF8091D8008F7D8093D800809141
:1024E000E00082608093E0008091E00081FDFCCFFD
:1024F0000E948A1EA4CC8AE991E00E94952A1123A9
:1025000031F084E991E0BACE86E991E002C082E937
:1025100091E00E94952A8CE891E00E94952A002380
:1025200009F4B7CE89E891E00E94952A84E891E009
:102530000FC080E891E00CC00E94952A84E591E0EC
:1025400087CE89E891E00E94952A84E891E0AACE9E
:102550000E94952A8AE791E0A9CE80E008959091A3
:102560005D0492FF0DC0282F2871283019F4877F51
:10257000846006C0282F2471243011F48B7F88607A
:1025800093FF0DC0282F2871283119F4877E8461AC
:1025900006C0282F2471243111F48B7E886120918C
:1025A0005E0420FF0DC0382F3871383019F4877F52
:1025B000816006C0382F3171313011F48E7F886010
:1025C00021FF0DC0282F2871283119F4877E8161E1
:1025D00006C0282F2171213111F48E7E886194FD6F
:1025E000877E0895AF92BF92CF92DF92EF92FF92D3
:1025F0000F931F93CF93DF937C015B016A0180915E
:10260000AC038A3018F001E010E002C00AE010E0EC
:10261000C1E0D0E0F894B501C701F60109957894BE
:10262000811115C021960C171D0794F0CC9F9001C5
:10263000CD9F300D300D112480E090E045E34A95A8
:10264000F1F70000019682179307C1F7E3CF81E00D
:10265000DF91CF911F910F91FF90EF90DF90CF907E
:10266000BF90AF900895DF92EF92FF920F931F9368
:10267000CF93DF937901C82F880FDD0B41155105EA
:10268000A9F0FE0193E0EE0FFF1F9A95E1F7EA5ED5
:10269000FE4F81819281815A9C4F208130E0421708
:1026A000530708F49A01A9010E948032CE010E94CA
:1026B0006331D82E8823D1F001151105B9F083E0DC
:1026C000CC0FDD1F8A95E1F7FE01EA5EFE4F4381E4
:1026D00050E00417150708F4A801CA5EDE4F6C81AC
:1026E0007D81615A7C4FC7010E9480328D2DDF9120
:1026F000CF911F910F91FF90EF90DF9008950F936E
:102700001F93CF93DF9300D01F92CDB7DEB76091B8
:10271000A0037091A1038091A2039091A3030E9452
:10272000BF2241E0643671058105910508F440E05F
:10273000309150043983643671058105910520F488
:1027400020917503231341E090914F049A83411126
:1027500006C041E020917603291301C040E090912A
:102760002E039B83411106C080917703891302C019
:1027700011E019C000E010E020E030E043E050E05C
:10278000BE016F5F7F4F87E00E943313182F8823AD
:1027900051F00E94EA226093A0037093A1038093FA
:1027A000A2039093A303812F0F900F900F90DF91BE
:1027B000CF911F910F910895EF92FF920F931F9366
:1027C000CF93DF9300D000D01F92CDB7DEB77B014F
:1027D00001E010E09E012B5F3F4F40E050E060E0E1
:1027E00070E080E00E943313182F8823C1F16091BC
:1027F00084037091850380918603909187030E94E2
:10280000BF22643671058105910538F480E693E0B6
:102810000E94E52A9D81891711F104E010E09E01D4
:102820002F5F3F4F40E050E060E070E081E00E94A9
:102830003313182F80E693E00E94E52A91E02D8162
:10284000281390E0192329F10E94EA22609384035F
:102850007093850380938603909387030CC08091C7
:10286000600390916103A0916203B0916303898337
:102870009A83AB83BC83112361F089819A81AB81F8
:10288000BC818093800390938103A0938203B093D3
:1028900083038091800390918103A0918203B09182
:1028A0008303F70180839183A283B383812F0F90E9
:1028B0000F900F900F900F90DF91CF911F910F917C
:1028C000FF90EF900895AF92BF92CF92DF92EF9278
:1028D000FF920F931F93CF93DF93C82F7B01D42FC9
:1028E00069015801FB0160817181828193810E949D
:1028F000BF22643671058105910510F4DD23A1F036
:1029000000E010E020E030E0A501B6018C2F0E942D
:102910003313C82F882349F00E94EA22F70160830D
:1029200071838283938301C0C1E08C2FDF91CF91AB
:102930001F910F91FF90EF90DF90CF90BF90AF90DD
:1029400008950F931F93CF93DF931F92CDB7DEB7F8
:1029500080914804898320917F0330E090E041E03A
:102960002817390709F440E001E010E09E012F5FCD
:102970003F4F68EA73E089E00E9463140F90DF9193
:10298000CF911F910F9108950F931F9341E00091F4
:102990006C0310916D0320916E0330916F03809151
:1029A000B9049091BA04A091BB04B091BC0408177B
:1029B00019072A073B0709F440E004E010E029EB7F
:1029C00034E068E973E084E00E946314882301F135
:1029D00041E00091700310917103209172033091D6
:1029E00073038091940390919503A0919603B09105
:1029F0009703081719072A073B0709F440E004E08A
:102A000010E024E933E060E973E085E00E9463149C
:102A10001F910F910895CF92DF92FF920F931F9312
:102A2000CF93DF93F82E6B01EA01A801B901CE0123
:102A30000E94733241E0892B09F440E09E01B60107
:102A40008F2D0E946314DF91CF911F910F91FF9002
:102A5000DF90CF9008950F931F93CF93DF93CDB75F
:102A6000DEB727970FB6F894DEBF0FBECDBF86E066
:102A7000EEE9F7E0DE01119601900D928A95E1F7FB
:102A80008091BD048F8307E010E028E733E0AE01BA
:102A90004F5F5F4F64EA73E088E00E940B15279652
:102AA0000FB6F894DEBF0FBECDBFDF91CF911F915F
:102AB0000F9108950F931F93CF93DF931F92CDB77C
:102AC000DEB70E94B423898301E010E024E733E0FD
:102AD000AE014F5F5F4F6CE973E086E00E940B151B
:102AE0000F90DF91CF911F910F9108950F931F9336
:102AF00004E010E024E633E0AC0168E873E082E033
:102B00000E940B151F910F91089580915E03811112
:102B100018C08091D80080618093D8008AE18A959E
:102B2000F1F700C08091D90080FD02C082E001C0B1
:102B300081E080935E03823021F40E944C20109249
:102B4000840581E090915E03913009F080E0089562
:102B5000F894E82FE295EF70F0E031A1282F2F7064
:102B600081E090E001C0880F2A95EAF7982F9095B0
:102B7000932391A392A1892B82A3789408950F9314
:102B80001F930E948515882321F01F910F910C94AB
:102B9000EA220E94EA2200910F0310911003209173
:102BA000110330911203600F711F821F931F1F9139
:102BB0000F9108950F931F93CF93DF9300D000D010
:102BC000CDB7DEB760918C0370918D0380918E0339
:102BD00090918F030E94BF22643671058105910593
:102BE00028F10E94BF15DC01CB010296A11DB11D89
:102BF00089839A83AB83BC8300E010E020E030E05F
:102C000044E050E0BE016F5F7F4F83E00E943313CA
:102C1000182F882361F00E94EA2260938C0370933E
:102C20008D0380938E0390938F0301C011E0812F59
:102C30000F900F900F900F90DF91CF911F910F91F8
:102C40000895CF93DF938238910569F1B0F4813311
:102C5000910509F46FC048F48932910509F465C003
:102C60008A32910509F46BC08AC08533910509F455
:102C700057C089339105B9F082C0833E910571F147
:102C800038F4803E9105B1F0823E910511F177C094
:102C9000863E9105B9F1873E9105C9F1843E9105C3
:102CA00009F06DC024C020915D0420FD53C021FDBA
:102CB00051C065C080915D0480FD46C080915E0476
:102CC00080FF48C080915D0484FD3FC183EE90E0A9
:102CD0003EC180915D0482FF3AC0F4CF80915D04D3
:102CE00082FD35C080915E0480FD34C0EBCF8091C1
:102CF0005E0481FF35C080915D0484FD26C187EEAE
:102D000090E025C180915D0483FF27C0F4CF8091BE
:102D10005D0483FD22C080915E0481FD21C0EBCF64
:102D200080915D0485FD1FC021C080915D0485FDFB
:102D30001DC019C080915D0486FD1BC01DC080911F
:102D40005D0486FD19C015C089E390E000C182EEE4
:102D500090E0FDC080EE90E0FAC086EE90E0F7C013
:102D600084EE90E0F4C089E290E0F1C085E390E069
:102D7000EEC08AE290E0EBC081E390E0E8C081150C
:102D800032E5930708F069C0811541E5940728F002
:102D9000982F8827816F906ADAC0883E910568F580
:102DA000803E910508F0D3C0883A9105B8F4853A81
:102DB000910548F0855AE82FF0E0EC5FFD4F8081E7
:102DC00090E09064C4C08130910509F4BBC008F460
:102DD000BCC08430910508F4B8C0B9C08F3B9105E0
:102DE00008F0B3C0885AE82FF0E0EE0FFF1FE95F4C
:102DF000FD4F808191819464AAC0811520E59207DE
:102E0000F0F09C0174E0369527957A95E1F7922FC2
:102E10009370482F437021E030E002C0220F331F2F
:102E20004A95E2F73C68392B8F70982F96959695C6
:102E300040E2949FC0011124822B932B88C08115FE
:102E400030E4930718F09F70906A81C09C013A9516
:102E500021153F4108F47BC078C0EC01C11586E51F
:102E6000D807E8F5C11525E5D20748F08C2F0E9458
:102E7000AF128F7190E0982F8827906268C0C115BB
:102E800034E5D30728F09C2F8827846F906A5FC0B1
:102E9000AE01437055272C2F26952695C115D34595
:102EA00078F481E090E002C0880F991F4A95E2F71C
:102EB00040E2249F90011124822B932B9C6847C0F1
:102EC00081E090E002C0880F991F4A95E2F740E246
:102ED000249F90011124822B932B9A6838C0C1152E
:102EE0002AE5D207F8F4C11539E5D30790F08C2F05
:102EF0008F700E94AF1294E0D695C7959A95E1F72E
:102F0000CF70D0E0DC2FCC27D0699E01282BC901DF
:102F10001EC0C11548E5D407C0F09C2F8827806FDC
:102F2000906A15C0CE0190568115904270F48D2F95
:102F30008F710E94AF12282F2F71CE0199279062B6
:102F4000922B05C081E090E002C080E090E0DF912C
:102F5000CF910895CF9384E090E00E940B32C82F68
:102F600082E290E00E940B322C2F30E0A901582B16
:102F7000CA01CF9108955F926F927F928F929F9234
:102F8000AF92BF92CF92DF92EF92FF920F931F9377
:102F9000CF93DF93CDB7DEB72C970FB6F894DEBF93
:102FA0000FBECDBF9E012F5F3F4F790188E0D90151
:102FB0001D928A95E9F702EF11E0690186EF682E0C
:102FC00081E0782EAA24A394B12C2CEF822E21E04C
:102FD000922EF80180818F3F09F440C0F894E82FC9
:102FE000E295EF70F0E021A18F70A50102C0440FBF
:102FF000551F8A95E2F7CA01922F982B91A392A1AF
:103000008095892382A3789400C0E6EFF1E0512CEB
:1030100031E021912F3F89F0A22FA295AF70B0E04F
:1030200090968C9190E02F7002C0959587952A9587
:10303000E2F780FD02C0832F01C080E0582A330FE1
:103040008E169F0631F7D8018C918F3F11F00E94A8
:10305000A815B0EABA95F1F7F60150820F5F1F4F3D
:10306000FFEFCF1ADF0A6016710609F0B2CF48E011
:1030700050E0B70183E193E00E9473328C01892B09
:1030800041F088E0F701A3E1B3E001900D928A9549
:10309000E1F7F0901C030115110549F081E08093E0
:1030A00056030E94F6229093550380935403809117
:1030B00056038823B9F080915403909155030E94E0
:1030C000DB22059778F0A3E1B3E0EF2DF0E0E35EBB
:1030D000FC4F87E193E02D9121938A179B07D9F745
:1030E000109256030115110509F059C10E9485156A
:1030F000E0911C03882309F4ACC019861A861B864C
:103100001C860E2F10E0035E1C4F8091AC038A30AA
:1031100060F44CED53E1BE01675F7F4FC8010E9430
:10312000F212882309F468C00AC080915703909175
:1031300058030E94DB22843F914058F76EC046E757
:1031400055E1BE01675F7F4FC8010E94F2128823DC
:1031500009F452C04AED55E1BE01675F7F4FC801D7
:103160000E94F212882309F447C044EC54E1BE01E6
:10317000675F7F4FC8010E94F2128823E9F14AE598
:1031800055E1BE01675F7F4FC8010E94F21288239C
:1031900099F14FE753E1BE01675F7F4FC8010E947D
:1031A000F212882349F14BE255E1BE01675F7F4F80
:1031B000C8010E94F2128823F9F041EA54E1BE01ED
:1031C000675F7F4FC8010E94F2128823A9F0109216
:1031D000AC0380911B0390E044E050E0BE01675FC8
:1031E0007F4F835E9C4F0E94733221E020935D03EA
:1031F000892B01F500E0D5C08091AC038F3F19F019
:103200008F5F8093AC038091AC038A3010F30E94EF
:10321000F622909358038093570380915D0388238F
:1032200049F3FE01399684E0DF011D928A95E9F7A2
:1032300010925D03E0911B03F0E0E35EFC4F898593
:103240009A85AB85BC8580839183A283B38301E09B
:10325000A8C0F0E0E35EFC4FE0901B038E2D90E0F1
:103260009C01235E3C4F7901F89484E0A0E6B3E032
:1032700001900D928A95E1F780E693E00E94E52A9D
:1032800080935F037894F89484E0E4E6F3E0D70158
:1032900001900D928A95E1F77894F894C0906803B4
:1032A000D0906903E0906A03F0906B03809159031A
:1032B00090915A03A0915B03B0915C03C816D906A4
:1032C000EA06FB06D1F0C0925903D0925A03E0926D
:1032D0005B03F0925C030E94851581110EC00E9471
:1032E000EA22C61AD70AE80AF90AC0920F03D09256
:1032F0001003E0921103F09212037894F8948091F5
:103300006C0390916D03A0916E03B0916F03809355
:10331000B9049093BA04A093BB04B093BC04809109
:10332000700390917103A0917203B0917303809325
:10333000940390939503A0939603B0939703789486
:10334000F89480917403809351047894F894809158
:103350007503809350048091760380934F0480918D
:1033600077030E94591A7894F89486E0E8E7F3E02E
:10337000AEE9B7E001900D928A95E1F780917E0366
:103380000E94F0277894F89480917F03882319F0A5
:103390000E94D42402C00E94BA24789402C001E0A2
:1033A00010E0802F2C960FB6F894DEBF0FBECDBF75
:1033B000DF91CF911F910F91FF90EF90DF90CF9011
:1033C000BF90AF909F908F907F906F905F90089587
:1033D00069EE7EEF80E090E00E94473260E082E09C
:1033E00090E00E94293260E083E090E00E94293260
:1033F00010929403109295031092960310929703E3
:1034000060E084E090E00E94293260E082E290E097
:103410000E94293260E085E090E00E94293260E05D
:1034200086E090E00E9429326FEF87E090E00E94F2
:10343000293240E050E0BA0188E090E00E943B323F
:1034400060E08DE090E00E94293240E050E0BA0157
:1034500088E190E00E943B3260E087E190E00E94CA
:10346000293240E050E0BA018CE190E00E943B320A
:1034700060E070E080E290E00E94473240E050E07F
:10348000BA0188E190E00E943B3240E050E0BA018E
:103490008FE090E00E943B3240E050E0BA0183E1CF
:1034A00090E00C943B3280912E03811110922E03F8
:1034B000089590915E0492FD05C090912E0398139B
:1034C00080932E030895809590914F0489238093D3
:1034D0004F0408958095909150048923809350045F
:1034E00008959091500480914F04982B9093AD03D0
:1034F00080912E038823D9F0892B8093AD0380918E
:10350000EA01882331F080915D0487FF02C08EE1DB
:1035100001C086E0EFEAF3E090E0815028F02191CD
:103520002223D9F39F5FF9CF91110E94531A40E2F1
:1035300050E064E274E08DEA93E00E947332892BDC
:1035400021F180E2EDEAF3E0A4E2B4E001900D9213
:103550008A95E1F7E0915404F09155043097A9F071
:103560008091EA01882359F080915D0487FF07C0AC
:103570008091AD038093AE0386E08093AD0302801B
:10358000F381E02D8DEA93E00994089580E090E0C6
:103590000E949E2380E090E00E94882310924F04B6
:1035A0000C94711A809122049091F103891719F0FB
:1035B0008F5F8770FBCF08950F931F93CF93DF9397
:1035C0008091F00382958F7009F05DC08091ED03CA
:1035D000882309F458C0809122041091F10360916E
:1035E000EB037091EC03C091EE03D091EF0391E0F7
:1035F0006F3F09F090E0292F06E0811709F443C0DE
:10360000209721F07F3F21F030E003C031E001C07E
:10361000322F90E030FD34C0089FF001099FF00D7B
:103620001124DF01AE50BC4F11963C911197371316
:1036300027C03C91361324C012963C911297311149
:103640001FC013964D915C9114974C1B5D0B4A3F24
:103650005105B0F48091F0038F7080618093F00386
:10366000E950FC4F80818F70806180838BEE93E006
:103670000E947306DF91CF911F910F910C94D21A83
:1036800001968770BACFDF91CF911F910F91089566
:103690008F929F92AF92BF92DF92EF92FF920F9321
:1036A0001F93CF93DF938090B9049090BA04A090B9
:1036B000BB04B090BC044091940350919503609179
:1036C000960370919703842A952AA62AB72ACFE1F8
:1036D000D0E026E0929F7001112490E3D92E082FAC
:1036E00010E0D501C4010C2E04C0B695A79597959E
:1036F00087950A94D2F780FD04C0219790F780E067
:1037000014C0DC9EF001DD9EF00D1124EE0DFF1DB6
:10371000E00FF11FEE0FFF1FE056FE4F85919491D1
:103720000E942116019749F38C2FDF91CF911F91B1
:103730000F91FF90EF90DF90BF90AF909F908F9090
:103740000895CF93DF93EC010E94481B20E3829FF2
:10375000C0011124FC0126E0D29FE00DF11D1124CF
:10376000EC0FF11DEE0FFF1FE056FE4F8591949177
:103770000E942116DF91CF910895292F220F920FD9
:10378000990F890F682F669566956695982F9770A3
:1037900085E0689FB001112440E050E080E0FB012B
:1037A000E40FF51FE353FC4F208130E0092E02C0E7
:1037B000369527950A94E2F721703327042E01C02D
:1037C000220F0A94EAF7822B4F5F5F4F4530510575
:1037D00031F70895292F220F920F990F890FE82FA3
:1037E000E695E695E695877051E001C0550F8A95FC
:1037F000EAF785E0E89FF0011124E353FC4F20E055
:1038000030E070E04081CB01022E02C09695879592
:103810000A94E2F781708195842785238427819318
:103820002F5F3F4F2530310569F708954091B90466
:103830005091BA046091BB047091BC0441155105CC
:103840006105710529F441E0882351F040E008C08A
:1038500004C076956795579547958A95D2F741703C
:10386000842F08956093B9047093BA048093BB04C5
:103870009093BC040C94C61A0F931F9341E050E040
:1038800060E070E004C0440F551F661F771F8A95E3
:10389000D2F740955095609570958091B9049091BC
:1038A000BA04A091BB04B091BC048A019B01082317
:1038B00019232A233B23C901B8011F910F910C94AE
:1038C000321C209123048095822380932304982F17
:1038D000977099F430E0482F082E000C550B2417F0
:1038E000350759F090915E0492FD07C08595859546
:1038F00085950E943C1C109223040895CF93C0919B
:103900005E04C2FB992790F9981799F080FBC2F9E1
:10391000C0935E0460915D0484E090E00E942932CF
:103920006C2F82E290E00E94293282E0CF910C94C9
:10393000611CCF9108950F931F9341E050E060E028
:1039400070E004C0440F551F661F771F8A95D2F799
:103950008091B9049091BA04A091BB04B091BC04C9
:103960008A019B01082B192B2A2B3B2BC901B8017B
:103970001F910F910C94321C6093940370939503E4
:1039800080939603909397030C94C61A92959F7018
:10399000963079F010F4925001C09A50923068F449
:1039A000803F69F018F4883E40F409C0843F29F450
:1039B00006C0883E20F0813F11F080E0089581E04C
:1039C0000895FC01808191810E94A11B0E94C61C68
:1039D00008959F92AF92BF92CF92DF92EF92FF92A3
:1039E0000F931F93CF93DF93CDB7DEB761970FB6D9
:1039F000F894DEBF0FBECDBF8C0185E0F801DE017B
:103A00001D9601900D928A95E1F7F801E280909160
:103A1000EB036091EC034091EE035091EF034115ED
:103A2000510531F06F3F31F481E09F3F19F403C03D
:103A300081E001C080E0F82FF1709F2E80FD1AC157
:103A4000F80130812181C380D4808BEEA82E83E0E1
:103A5000B82EF090ED03F601E41BF50BFF2009F4FE
:103A6000C6C08091F003EA3FF10508F091C0482FED
:103A7000407F09F050C0621311C093130FC0FE2C99
:103A8000E1100CC08F7080618093F003C5010E942B
:103A900073068091F003F801858329C1CD2831F0A8
:103AA0002F3F31F481E03F3F19F403C081E001C0B2
:103AB00080E080FD03C081E08E2502C080E090E0C0
:103AC000F82FF170FF2E80FF1CC0809122044091DE
:103AD000F10356E0841709F4E8C090E0589FF00124
:103AE000599FF00D1124EE50FC4F6181261306C042
:103AF0006081631303C06281E61203C00196877080
:103B0000E9CFFE2CEE2009F4F2C08091F003816031
:103B10008093F00349C0621306C0931304C0E11000
:103B200002C0F80186C0C8010E94E11C882351F13F
:103B3000EE2041F12091F003822F82958F7090E06A
:103B4000029774F08091EB039091EC0398878F8338
:103B50001986DB86CA862C87CE0107960E947306DB
:103B600086E0F801ABEEB3E001900D928A95E1F7A3
:103B70000E94DC1A0AC06217C9F0C8010E94E11C49
:103B800081111EC0C8010E947306FF24F394AFC0C8
:103B9000482F407F81F78BEE93E00E94730686E00A
:103BA000F50111928A95E9F7F12CA1C09313E5CFA5
:103BB000E110E3CFF8018583C8010E94730654C069
:103BC000EE2001F32091F003822F82958F7090E018
:103BD000029734F28091EB039091EC039A838983EE
:103BE0001B82DD82CC822E83CE010196B7CFEA3FC5
:103BF000F105D0F5FE2CEE2029F2621327C09313B5
:103C000025C02091F00320FD18C0822F82958F706F
:103C1000482F50E04115510581F0F80125834F30C0
:103C2000510541F08F5F982F9295907F822F8F7072
:103C3000892B8583C8010E94730686E0F801ABEEEC
:103C4000B3E001900D928A95E1F751C0C8010E943E
:103C5000E11C811185CF8091F00381608093F00396
:103C6000C8010E94730643C086E0F50111928A954F
:103C7000E9F73DC0EE2009F485CFC8010E94E11CA0
:103C8000F82E882309F47ECF86E0F801ABEEB3E08E
:103C900001900D928A95E1F78091EB039091EC03EE
:103CA0000E94A11B0E94DC1A22C03D872E878D85B1
:103CB0009E850E94A11B292F22952F70223028F467
:103CC0009F7039F0811105C00BC0243028F49F701B
:103CD00049F4805E883020F0C8010E9473069F2C52
:103CE000F92C05C0F8019581907F99F7F9CF8F2DB8
:103CF00061960FB6F894DEBF0FBECDBFDF91CF91B6
:103D00001F910F91FF90EF90DF90CF90BF90AF90F9
:103D10009F900895109250048091EA01882331F019
:103D200080915D0487FF02C08EE101C086E0EFEA6A
:103D3000F3E0DF011D928A95E9F70C94C61A8823F7
:103D400021F00E94631A0C94711A0895882339F0A7
:103D500090914F04892B80934F040C94711A08950D
:103D6000882321F00E946A1A0C94711A08958823FE
:103D700039F090915004892B809350040C94711A5F
:103D80000895882339F1682F8CEF860F813A28F443
:103D90008DEA93E00E942B230CC080E2860F8830CE
:103DA00050F4677081E001C0880F6A95EAF70E94BD
:103DB0006A1A0C94711A8BE5860F833020F480E028
:103DC00090E00C949E23685A673120F480E090E0E4
:103DD0000C9488230895CF93882309F46DC09CEF39
:103DE000980F913AC8F5C82F8091EA018823E1F035
:103DF00080915D0487FF18C0EC2FE695E695E69567
:103E0000F0E0E355FC4F8281282F30E04C2F4770C3
:103E100081E090E002C0880F991F4A95E2F7822363
:103E20009323892B61F412C0EFEAF3E085EB93E072
:103E30002191C21721F08E179F07D1F707C06C2F71
:103E40008DEA93E00E942B230E94711A6C2F8DEA59
:103E500093E00E94532313C090E2980F983090F49F
:103E6000877021E030E0A90102C0440F551F8A95F8
:103E7000E2F7CA0190915004892B80935004CF91AE
:103E80000C94711AEBE5E80FE33040F4F0E0EC5FDE
:103E9000FD4F808190E0CF910C949E23885A87310A
:103EA00058F4E82FF0E0EE0FFF1FE95FFD4F80812F
:103EB0009181CF910C948823CF910895089508950E
:103EC00080916105089580935F047093610460930D
:103ED000600480918405843001F582E08093E900DC
:103EE0008FEF9091E800815095FD06C095ED9A9571
:103EF000F1F700008111F5CF8091E80085FF0DC03A
:103F000040E050E063E070E08FE594E00E940F2B0A
:103F10008091E8008E778093E8000895BC0184E0EA
:103F20000C94631FBC0183E00C94631FCF93DF9359
:103F30002091EA01222339F020915D0427FF03C07C
:103F400060E222E002C068E021E02093E9002FEF68
:103F50003091E800215035FD06C035ED3A95F1F776
:103F600000002111F5CF2091E80025FF1DC0EC01D4
:103F70008091EA01811105C040E050E068E070E006
:103F800003C070E040E050E0CE010E940F2B809112
:103F9000E8008E778093E80080E2FE01A2E6B5E0BB
:103FA00001900D928A95E1F7DF91CF910895FC0180
:103FB0008081813021F4FB018081918105C08230B4
:103FC00029F4FB01828193810C9440060895FC0141
:103FD0008081813021F4FB018081918105C0823094
:103FE00029F4FB01828193810C945A060895CF93A2
:103FF000DF93FC012081223041F4FB01EC0182813E
:1040000093810E945A0681E08B87DF91CF910895BA
:104010001F920F920FB60F9211242F933F934F933D
:104020005F936F937F938F939F93AF93BF93CF9340
:10403000DF93EF93FF93C091E900CF708091EC0084
:10404000D82FD17080FDD0E81092E9008091F00067
:10405000877F8093F00078940E943B2B1092E900B8
:104060008091F00088608093F000CD2BCF70C093DA
:10407000E900FF91EF91DF91CF91BF91AF919F91B7
:104080008F917F916F915F914F913F912F910F9001
:104090000FBE0F901F901895E8EDF0E080818E7FA5
:1040A00080831092E2001092DA001092E100A0EEFC
:1040B000B0E08C9181608C9380818F77808319BC74
:1040C000A7EDB0E08C918E7F8C9380818F7E808372
:1040D0001092620408952091E4003091E50095E685
:1040E0004091EC00842F817040FF23C08091E80054
:1040F00080FD1DC080918405882399F0853099F05A
:104100008091EB0085FD11C04091E4005091E500E5
:104110002417350729F3915011F09A01E1CF84E07B
:10412000089582E0089583E0089581E0089580E095
:1041300008954091E80042FFDDCF08958091860503
:1041400087FF11C08091E80082FD05C08091840541
:104150008111F8CF11C08091E8008B770BC080915E
:104160008405882349F08091E80080FFF8CF809192
:10417000E8008E778093E8000895982F973068F5CF
:104180009093E900981739F07091EC002091ED00C0
:104190005091F00003C0242F762F50E021FD02C083
:1041A0009F5FECCF3091EB003E7F3093EB0030917E
:1041B000ED003D7F3093ED003091EB0031603093A6
:1041C000EB007093EC002093ED005093F0002091F1
:1041D000EE0027FDE5CF80E008958F708093E90021
:1041E00081E00895CF92DF92EF92FF920F931F9399
:1041F000CF93DF93C8EDD0E088818F7E8883E7ED91
:10420000F0E080818160808384E082BF81E08093E0
:10421000620488818E7F888302EE10E0F8011082AC
:104220001092DA0081EEC82ED12CF601108288811E
:104230008F77888388818068888388818F7D888351
:1042400019BC109284051092850510928305109276
:10425000820590EEE92EF12CF70180818B7F80831F
:1042600088818160888342E060E080E00E94BD2018
:10427000F60180818E7F8083F80180818160808358
:10428000808188608083F70180818E7F8083888130
:1042900080618883DF91CF911F910F91FF90EF9004
:1042A000DF90CF9008951F920F920FB60F921124B6
:1042B0002F933F934F935F936F937F938F939F932E
:1042C000AF93BF93EF93FF938091E10082FF09C00A
:1042D0008091E20082FF05C08091E1008B7F809396
:1042E000E1008091DA0080FF2AC08091D80080FF31
:1042F00026C08091DA008E7F8093DA008091D90009
:1043000080FF18C080E189BD82E189BD09B400FE4B
:10431000FDCF81E0809384058091620481110FC0FC
:104320000E944C200E94F2208091E20084608093E1
:10433000E20005C019BC10928405109262048091BD
:10434000E10080FF17C08091E20080FF13C08091E0
:10435000E2008E7F8093E2008091E2008061809392
:10436000E2008091D80080628093D80019BC85E07B
:10437000809384058091E10084FF30C08091E20049
:1043800084FF2CC080E189BD82E189BD09B400FEB3
:10439000FDCF8091D8008F7D8093D8008091E1007F
:1043A0008F7E8093E1008091E2008F7E8093E20017
:1043B0008091E20081608093E200809185058823EE
:1043C00011F084E007C08091E30087FD02C081E026
:1043D00001C083E080938405809184058091E10091
:1043E00083FF27C08091E20083FF23C08091E1001A
:1043F000877F8093E10082E0809384051092850599
:104400008091E1008E7F8093E1008091E2008E7FB9
:104410008093E2008091E20080618093E20042E0BC
:1044200060E080E00E94BD208091F0008860809371
:10443000F000FF91EF91BF91AF919F918F917F918C
:104440006F915F914F913F912F910F900FBE0F9001
:104450001F90189520918C0530918D0526173707F0
:1044600048F06115710539F42091E8002E7720930A
:10447000E80001C0B901FC0120E06115710579F186
:10448000809184058823F1F18530F1F18091E80075
:1044900083FD3CC08091E80082FD2EC08091E80041
:1044A00080FFEBCF2091F3008091F20090E0922BFF
:1044B0006115710551F08830910538F421912093F0
:1044C000F100615071090196F3CF21E0089709F0DE
:1044D00020E08091E8008E778093E800CECF211114
:1044E000CFCF0AC080918405882361F0853061F0C8
:1044F0008091E80083FD0AC08091E80082FFF2CF3E
:1045000080E0089582E0089583E0089581E00895B1
:1045100087E797E790930108809300089AE088E185
:104520000FB6F894A895809360000FBE909360003A
:10453000FFCF78941F920F920FB60F9211248F9392
:104540009F93AF93BF938091590490915A04A09187
:104550005B04B0915C040196A11DB11D80935904C8
:1045600090935A04A0935B04B0935C04BF91AF9105
:104570009F918F910F900FBE0F901F901895CF9223
:10458000DF92EF92FF922FB7F894C0905904D09029
:104590005A04E0905B04F0905C042FBFA7019601E1
:1045A000261B370B480B590BCA01B901FF90EF903E
:1045B000DF90CF9008959C014FB7F89480915904F3
:1045C00090915A04A0915B04B0915C044FBF821B90
:1045D000930B08952FB7F8946091590470915A0481
:1045E00080915B0490915C042FBF08952FB7F894DD
:1045F0008091590490915A04A0915B04B0915C049D
:104600002FBF08951F920F920FB60F9211248F9310
:104610009F93AF93BF9380915804811113C08091F1
:10462000590490915A04A0915B04B0915C044196A6
:10463000A11DB11D8093590490935A04A0935B046B
:10464000B0935C04BF91AF919F918F910F900FBE7B
:104650000F901F9018952091EA012223C9F0209114
:104660005D0427FF15C0262F2695269526952E3109
:10467000C8F4FC01E20FF11D677081E090E001C019
:10468000880F6A95EAF7809592818923828308953D
:10469000FC0106962281621301C012823196E8174E
:1046A000F907C1F708952091EA012223C1F0209172
:1046B0005D0427FF14C0262F2695269526952E31BA
:1046C00030F5FC01E20FF11D677081E090E001C060
:1046D000880F6A95EAF79281892B82830895FC01FD
:1046E00032962FEF30E04191641789F02F3F19F493
:1046F000411101C0232F3F5F3630A9F72F3F39F01A
:10470000FC01E20FF11D27FDFA95628308950895DB
:1047100020915604309157042817390771F090936F
:10472000570480935604E0915404F0915504309757
:1047300021F00084F185E02D099408952091520420
:10474000309153042817390771F0909353048093E4
:104750005204E0915404F0915504309721F0068002
:10476000F781E02D099408950E948515811103C0F9
:10477000809151040895E0915404F09155043097CC
:1047800021F00190F081E02D099480E00895CF930D
:10479000DF93EC0181E0898B909150048F81892B0C
:1047A0008093500490914F048885892B80934F0407
:1047B0000E94711AEA81FB81CE010696309729F09A
:1047C0006C897D89DF91CF910994DF91CF91089514
:1047D000EF92FF920F931F93CF93DF93FC012285FB
:1047E000211136C0EC01E380F480F7E5FF1A26E1E1
:1047F0002E9DC0012F9D900D1124DC01A658BE4FA7
:104800001496ED91FC91159780589E4F309729F0A2
:1048100054966D917C915597099586E18E9D800106
:104820008F9D100D112406581E4FF80187810E949C
:104830006A1AF80180850E94631A0E94711A188210
:1048400019861B861E821D8210924E0410924D0402
:10485000DF91CF911F910F91FF90EF900895EF920C
:10486000FF920F93CF93DF93C42FD22FFC0182814D
:104870008823D1F040934C040E94F62290934B047D
:1048800080934A0480E28C0F883008F06DC0C770B6
:1048900081E001C0880FCA95EAF7DF91CF910F91AF
:1048A000FF90EF900C94B71E80914C0448134BC0BE
:1048B00080914A0490914B040E94DB228A3F91052B
:1048C00008F041C0CD17C9F080E28C0F883040F469
:1048D000C77081E001C0880FCA95EAF70E94B01E38
:1048E00080E28D0F883048F481E09D2F977001C0E1
:1048F000880F9A95EAF70E94B71E093319F0E12C48
:10490000F12C03C080E5E82EF12C802F0E94EB1ED5
:10491000E114F10451F08FE99FE00197F1F700C035
:10492000000091E0E91AF108F3CF802F0E94C11E28
:1049300080E28D0F8830C0F4D77081E001C0880F0D
:10494000DA95EAF70AC080E28C0F883068F4C77005
:1049500081E001C0880FCA95EAF7DF91CF910F91EE
:10496000FF90EF900C94B01EDF91CF910F91FF90CC
:10497000EF9008958091490490914804882389F02C
:10498000992369F062E070E082E293E00E94BC2A21
:10499000892B19F080914804089510924804909151
:1049A000480481E089270895809149048823F9F01B
:1049B0000E94EA22DC01CB0188539045AF4FBF4FE4
:1049C0008093440490934504A0934604B093470415
:1049D0008091480481110BC062E070E080E293E0B6
:1049E0000E94BC2A892B19F481E0809348048091AD
:1049F00048040895882311F0FA0101C0FB010994CD
:104A0000EEE9F7E024813AE0231B08F420E0248358
:104A100080918E05816080938E050895EEE9F7E020
:104A200024813AE0230F08F42FEF248380918E0530
:104A3000816080938E050895FF920F931F93CF930B
:104A4000DF93EC01F62E042F122F0E9485158111A1
:104A500005C0CB31D1057CF06B9703C0CB31D105BC
:104A600054F4CE01880F991FC80FD91FC254DB4FD1
:104A7000F98208831A83DF91CF911F910F91FF90E4
:104A80000895539A8BB1877F9BB198602FB7F894A4
:104A9000EEEBF4E035E0E036F30789F0319148E0E1
:104AA0009BB9000000C037FF8BB9330F000000C076
:104AB00000C000C08BB900C04A9591F7EBCF2FBF63
:104AC0008FE594E00197F1F700C000000895EEE94A
:104AD000F7E0438128E0421B08F440E081816281D5
:104AE00090E00C94FC2AEEE9F7E0438128E0420FC5
:104AF00008F44FEF8181628190E00C94FC2AEEE98A
:104B0000F7E0628128E0621B08F460E08181438164
:104B100090E00C94FC2AEEE9F7E0628128E0620F55
:104B200008F46FEF8181438190E00C94FC2AEEE958
:104B3000F7E0818190E04381628108970C94FC2A20
:104B4000EEE9F7E0818190E04381628108960C9460
:104B5000FC2A80919E0786958695815009F484E011
:104B60000C94A32A80919E07869586958F5F853049
:104B700008F081E00C94A32AFF920F931F93CF9328
:104B8000DF93182F062FF42EC0E0D0E02F2D402FFA
:104B9000612FCE010E94482E2196C633D105B1F770
:104BA000DF91CF911F910F91FF9008952F923F9227
:104BB0004F925F926F927F928F929F92AF92BF922D
:104BC000CF92DF92EF92FF920F931F93CF93DF93D9
:104BD00000D000D000D0CDB7DEB78C838091E90142
:104BE0001C8181130DC020919E07237030E04091FD
:104BF000E80150E081E02417350719F480E001C096
:104C000081E081708093EE018091A3079091ED0186
:104C1000981739F08093ED0140E060E080E00E9459
:104C2000BC251C81123019F488E09EE20AC01330C2
:104C300058F01C81143009F485C008F07AC08FE266
:104C40009EE20E940D2A30C0112309F442C01130A7
:104C500009F072C08091EC013BE0839F802D11240C
:104C60008983182F155F173308F016E30E94851506
:104C700081113EC00E948515882309F43EC06091D1
:104C80009F077091A0078091A1070E947B2E062F9D
:104C9000F72EE82E59815117B8F10E948515882307
:104CA00011F181E01B3110F59091EC019F5F909321
:104CB000EC01811152C182E08093EB018091EE0101
:104CC00081114BC11C81111148C183E08093EB011C
:104CD00044C18091EE01882349F040E060E080E02B
:104CE0000E94BC2503C081E01633F0F280E0DCCFE7
:104CF0001C3108F4BFCF1BE1BDCF09810B3108F097
:104D0000BECF0BE10983BBCF3981E32FF0E0DF0198
:104D1000AD52BD4F8C919091ED01982331F02E2D25
:104D2000402F6F2DCF010E94482E49814F5F49834C
:104D3000B1CF1F3F09F4E0C08091EC018F5F8093F9
:104D4000EC01B9CF8091EC0189838BE09981989F28
:104D5000802D11248D83855F8E83873310F016E3B9
:104D60001E830E948515882329F01E811C3110F0B6
:104D70001BE11E830E948515811105C01D811B3119
:104D800010F41BE11D83A0908C04212C312C1D817B
:104D90003E81131708F0A6C01D81C12ED12CF6014B
:104DA000ED52FD4F90818091ED01892309F496C069
:104DB00060919F077091A00785EA682E84E0782EA5
:104DC0009DE8892E94E0992E80E0B12C9601220F67
:104DD000331FA90149595D4F5B834A839601220F16
:104DE000331FD901A859BD4F2D01AB1409F467C079
:104DF000F40191914F01AA81BB814C9150E0491B74
:104E00005109F201208130E0D40117969C91291BB1
:104E10003109449FD001459FB00DB00D1124229F50
:104E2000F001239FF00DF00D1124AE0FBF1FA23033
:104E3000B10514F4A9832CC0A13EEEE1BE074CF4E9
:104E4000FD0105E0F695E7950A95E1F798E09E0FDC
:104E500001C09FEF01E0E92FF0E0E00FF11DF595B3
:104E6000E795EE9F7001EF9FF00CF00C1124AE154A
:104E7000BF0518F49FEF9E0F04C0EF3F39F001E02B
:104E80000E0F901740F70150098302C0FFEFF9831E
:104E90009091A207092F11E0010F08F40FEFD30141
:104EA000ED91FD913D017101E09FE12CF09FE00C3F
:104EB000F11C112409810E94652EB39496CF209194
:104EC000A107082F029F012D1124802F0E947B2E05
:104ED000462F282F672FC6010E94482E1D811F5F75
:104EE0001D8355CF0E948515882319F081E01E810E
:104EF000D9CE81E01E81F8CE80919A0790919B07D0
:104F0000A0919C07B0919D0788279C70AA27BB277A
:104F10002AE0B695A795979587952A95D1F782307F
:104F20009105A105B10571F083309105A105B10589
:104F300069F040E00197A105B10511F060E008C0FB
:104F400064E102C044E160E080E003C044E164E168
:104F500084E10E94BC2582E0B9CE26960FB6F89473
:104F6000DEBF0FBECDBFDF91CF911F910F91FF909C
:104F7000EF90DF90CF90BF90AF909F908F907F90F9
:104F80006F905F904F903F902F900895FC019B0190
:104F9000AC0197FF04C044275527481B590BBA01A1
:104FA000620F731F37FD0CC0241B350BC901A5E030
:104FB000880F991FAA95E1F70E94593280E20CC030
:104FC000CB0165E0880F991F6A95E1F7BA01621B72
:104FD000730B0E94593280E6861BF7FD8195089578
:104FE000CF93C82F882391F08091BD0481110EC00A
:104FF0000E94D6251092E90180919E0783708093CC
:10500000E8010E94412583E08093EB01C093BD0439
:10501000CF9108954F925F926F927F928F929F925D
:10502000AF92BF92CF92DF92EF92FF92CF93809098
:10503000B5049090B604A090B704B090B8040E9454
:105040008515882339F0C501B4010E94BF226B0188
:105050007C0108C00E94BF156B017C01C818D908EB
:10506000EA08FB080E94BF154B015C016093B50480
:105070007093B6048093B7049093B804A09163042E
:10508000E3E6F4E08A2F90E04FEF5FEF60E070E03E
:105090004C195D096E097F09A91799F0218D328D90
:1050A0002901612C712C441555056605770510F40E
:1050B000815004C02C0D3D1D328F218F9F5F329691
:1050C000EBCF809363048091BD04811108C0C0912F
:1050D0009E078C2F837019F0C695C69501C0C0E05D
:1050E0008091EB018130E9F038F0823009F4A2C000
:1050F000833009F4ACC0D7C01092EC0180929A07BB
:1051000090929B07A0929C07B0929D0789E2E3E6EC
:10511000F4E0ACE8B4E001900D928A95E1F781E00B
:1051200093C08C2F0E94D625CC2309F4BCC040919B
:10513000B9045091BA046091BB047091BC04CB01D6
:10514000AA27BB270097A105B10521F0AC01BD013D
:1051500080E101C080E0C52ED62EE72EFF24C114C9
:10516000D104E104F10419F0885FB701A6016A01D6
:105170007B0134E0F694E794D794C7943A95D1F73D
:10518000C114D104E104F10419F08C5FB701A60148
:105190006A017B0122E0F694E794D794C7942A959C
:1051A000D1F7C114D104E104F10419F08E5FB70105
:1051B000A6017695679557954795452B462B472B26
:1051C00009F08F5F813091F0823001F5E12CF12CF4
:1051D00020E040E06FEFC7010E94482E8FEFE81AF1
:1051E000F80A86E3E816F10499F75DC0E12CF12C8A
:1051F00024E640E060E0C7010E94482E8FEFE81AE5
:10520000F80A86E3E816F10499F74DC00E94B4232A
:1052100081FF49C0E12CF12C20E040E060E0C701B3
:105220000E94482E8FEFE81AF80A86E3E816F10488
:1052300099F739C0C093E90180919E0783708093EC
:10524000E8010E94412583E08093EB012CC080910E
:105250008E05882351F046E050E06CE170E08EE965
:1052600097E00E94193210928E05C0909A07D09054
:105270009B07E0909C07F0909D070E94851588236E
:1052800029F0C701B6010E94BF2206C00E94BF15C7
:105290006C197D098E099F096031710581059105A1
:1052A00010F01092EB01CF91FF90EF90DF90CF9034
:1052B000BF90AF909F908F907F906F905F904F9036
:1052C0000895CF93DF93C0919807D09199078A30C2
:1052D000B1F420918F05CE0182599540622F70E084
:1052E0000E94DE31281B822F66E00E944D32C82FBB
:1052F000C15008F48FC080E20E946129F9CF8D303F
:10530000E9F4C259D54020918F05622F70E0CE019B
:105310000E94DE31281B822F9E01280F311D21158E
:10532000324018F080E0C0E0D0E0C80FD11DCE566A
:10533000DA4FD0939907C09398076CC096E0FE01AE
:10534000A2E9B7E001900D929A95E1F7803E30F026
:1053500086E0FE0111928A95E9F70BC0F6E08F9F77
:10536000B00111246E5B7B4F46E050E0CE010E94FD
:10537000F231C0919807D091990746E050E0BE0104
:1053800082E997E00E947332892B49F19E012259EC
:105390003540A90185E0569547958A95E1F781E06A
:1053A00090E0BC0102C0660F771F4A95E2F740917A
:1053B000900550919105462B572B2B5F3F4F65E091
:1053C000369527956A95E1F702C0880F991F2A95AF
:1053D000E2F7842B952B90939105809390059E0185
:1053E0002C58354040918F05642F70E0C9010E9410
:1053F000DE31481B463010F4240F311D211582E0A8
:10540000380710F020E030E02E563A4F30939907DD
:1054100020939807DF91CF910895CF92DF92EF927A
:10542000FF920F931F93CF93DF937C01C091EC0108
:105430008BE0C89FC02D1124DBE0DC0FD73308F0D0
:10544000D6E30E948515882319F0DC3108F0DBE1F2
:105450000E948515811103C0CB3108F4CBE1409146
:105460009A0750919B072091A207269580E090E033
:10547000429F812D529F800D911D1124182FCD1711
:1054800078F5CC2ED12CF601ED52FD4F9081809114
:10549000ED01892319F1F601EE0FFF1FE95CFD4FC5
:1054A00021A930E020523109F601EE0FFF1FE95922
:1054B000FD4F408150E04057510960919F07709126
:1054C000A0078091A107012FF70109950E947B2E6B
:1054D000462F282F672FC6010E94482ECF5FCFCFBF
:1054E0000E948515882321F081E0DB3128F003C07C
:1054F00081E0D63308F080E0DF91CF911F910F91CA
:10550000FF90EF90DF90CF90089581E00E94161CED
:10551000882341F082E00E94161C882319F083E062
:105520000C949B1C83E00C943C1CCF93DF93EC0108
:10553000FE018491882321F00E9461292196F8CFF1
:10554000DF91CF91089590919E079370A1F0811102
:1055500002C0946007C0853010F0906103C0880FCE
:10556000880F982B90939E071092EB0180918E05E7
:10557000816080938E050895EF92FF920F931F93A1
:10558000CF93DF93EC017B0164E670E088E70E9433
:10559000112F8C01EC0EFD1ECE15DF0561F017FDFD
:1055A0000AC0FE01849164E670E00E94922F8C0193
:1055B0002196892B89F30E941630C801DF91CF9183
:1055C0001F910F91FF90EF900895FC01AC014C5F8B
:1055D0005F4F8FEF91E32191822728E030E087FF32
:1055E00003C0880F892701C0880F21503109B9F7FE
:1055F000E417F50781F7089590919E07937071F075
:1056000080939F076093A007473908F046E94093CD
:10561000A10780918E05816080938E050895EF9299
:10562000FF920F931F93CF93DF937C018B010E9416
:105630006B20811119C0E70101151105A1F08091BE
:10564000E80085FD0AC08091E8008E778093E8002D
:105650000E946B20882381F307C089918093F10019
:1056600001501109E9CF80E0DF91CF911F910F9197
:10567000FF90EF9008951F93CF93DF93CDB7DEB7E0
:10568000AA970FB6F894DEBF0FBECDBFE6E8F5E0EF
:105690008EE895E02091F10021938E179F07D1F7B6
:1056A00080918705833009F461C030F4813071F056
:1056B000823009F49BC0B2C08A3009F487C08B30B5
:1056C00009F46CC0893009F0A9C020C0809186051A
:1056D000813A09F0A3C08091E800877F8093E800B9
:1056E00080918A0590918B05892B21F460E282E6F6
:1056F00095E003C060E080E090E070E00E942A2224
:105700008091E8008B778093E80088C080918605BF
:10571000813209F083C080918A0590918B050297B0
:1057200008F07CC08091E800877F8093E80080913A
:10573000E80082FD05C0809184058111F8CF6EC01C
:105740002091F3008091F20090E0922B029731F4C7
:105750008091F100813011F0863021F48091F100C8
:10576000809361058091E8008B7754C08091860515
:10577000813A09F053C080918A0590918B05892B5D
:1057800009F04CC08091E800877F8093E800809109
:10579000E80080FFFCCF8091EA0137C08091860548
:1057A0008132E1F580918A0590918B05892BB1F5C5
:1057B0008091E800877F8093E8000E949E2080917E
:1057C00088058093EA010E948A1E28C08091860580
:1057D000813221F58091E800877F8093E8000E9464
:1057E0009E20809189058093600518C08091860570
:1057F000813AA1F48091E800877F8093E80080914E
:10580000E80080FFFCCF809160058093F1008091DB
:10581000E8008E778093E8000E949E208091E80047
:1058200083FFCEC18091860590918705492F50E076
:105830004A30510508F0C4C1FA01EE59FF4F0C94EB
:105840006D32803821F0823809F0BAC108C08091E9
:10585000820590918305992389F082600FC0809121
:105860008A058F70873008F0ABC18093E900809182
:10587000EB0085FB882780F91092E9009091E80001
:10588000977F9093E8008093F1001092F10065C13A
:10589000282F2D7F09F094C1882319F0823061F000
:1058A0008FC180918805813009F08AC1933009F059
:1058B00080E0809383052EC08091880581112AC0E5
:1058C00080918A058F702FEF280F263008F078C15D
:1058D0008093E9002091EB0020FF1CC0933021F45D
:1058E0008091EB00806214C09091EB0090619093E6
:1058F000EB0021E030E0A90102C0440F551F8A955A
:10590000E2F74093EA001092EA008091EB00886091
:105910008093EB001092E9008091E800877F20C11E
:1059200081114EC1109188051F778091E300807826
:10593000812B8093E3008091E800877F8093E800CB
:105940000E949E208091E80080FFFCCF8091E300C0
:1059500080688093E300111102C082E001C083E0FF
:10596000809384052DC18058823008F029C1809130
:105970008805909189058C3D53E0950779F583E082
:105980008A838AE289834FB7F894DE01139620E078
:105990003EE051E2E32FF0E050935700E49120FF06
:1059A00003C0E295EF703F5FEF708E2F90E0EA301A
:1059B00010F0C79601C0C0968D939D932F5F243140
:1059C00049F74FBF8091E800877F8093E8006AE243
:1059D00070E0CE0101960E942A22AEC040918A0555
:1059E00050918B05292F332723303105A9F068F416
:1059F0002130310509F4F3C02230310509F0E0C04F
:105A00008BE390E0E1EDF3E044C02132310521F178
:105A10002232310571F1D4C0992781309105A1F06E
:105A200058F0029709F0CCC0EEE1F4E0E4918E2F3B
:105A300090E0EEE1F4E02AC0EEE3F4E0E4918E2F92
:105A400090E0EEE3F4E022C0ECE2F4E0E4918E2F8B
:105A500090E0ECE2F4E01AC04115510509F4C4C02D
:105A60004130510509F0ACC089E090E0ECEFF3E083
:105A700010C04115510509F4BCC04130510509F071
:105A80009FC08DE690E0E4E2F3E003C0009709F4E4
:105A900097C02091E800277F2093E80020918C0593
:105AA00030918D058217930708F49C0140E0211581
:105AB000310589F180918405882309F43DC0853042
:105AC000D9F18091E80083FD37C08091E80082FD24
:105AD0002FC08091E80080FFEACF4091F3008091D1
