:100000000C9414060C9431060C9431060C940B2CB1
:100010000C9431060C9431060C9431060C94310684
:100020000C9431060C9431060C94D81C0C94931B40
:100030000C94761E0C9431060C9431060C94310607
:100040000C9431060C9431060C9431060C94310654
:100050000C9431060C940D1E0C9431060C94310650
:100060000C9431060C9431060C9431060C94310634
:100070000C9431060C9431060C9431060C94310624
:100080000C9431060C9431060C9431060C94310614
:100090000C9431060C9431060C9431060C94310604
:1000A0000C9431060C9431060C9431063B07410741
:1000B0002C07320747074D075307AD072108B5073F
:1000C0007F078307B9078607BC07C707910717088B
:1000D0009507CB079907CF07F9079D07D3070308B3
:1000E000A307D907E3078A07C0078D07C307A80737
:1000F000DE07EF070F0811087B07B1072A0814096C
:10010000140943094309BF09F50AF50AF50ADD098F
:100110006B0A7C0A7C0A1D0B2B0B300B350B3A0B40
:100120003F0B440B490B4E0B530B580B5F0B530803
:1001300053085308530853085308530853085308E7
:10014000B922E0226224E022622428234B23622485
:1001500028243B2420202020616263646566676850
:10016000696A6B6C6D6E6F70717273747576777887
:10017000797A313233343536373839305245425452
:100180005F2D3D5B5D5C233B27602C2E2F202020C4
:10019000202020206162636465666768696A6B6C11
:1001A0006D6E6F707172737475767778797A31329B
:1001B000333435363738393014131B1A162D3D5B5E
:1001C0005D5C233B27602C2E2F80202020202020C8
:1001D00020202020202050532020202010202020CC
:1001E000202020202020202020202020202020200F
:1001F00020202020202020202020202020202020FF
:1002000020202020202020202020202020202020EE
:1002100020202020202020202020202020202020DE
:1002200020202020202020202020202020202020CE
:1002300020202020202020202020202020202020BE
:1002400020202020202020202020202020202020AE
:10025000202020202020202020202020202020209E
:10026000202020202020202020202020202020208E
:1002700043534143202020202020202020202020E4
:10028000202020202020202020202020202020008E
:10029000DA0281FFD9F1DB20A4A62EAF00A0C0D3E3
:1002A0000000A1C8D30000AED580A81F408D142047
:1002B00000290014001A000900130005002B000497
:1002C000001500160017000A00E0001D001B0006C4
:1002D0000007001900000000000000215200572C08
:1002E000002A0033001C0018000F000D003400121B
:1002F000000C00080011001000E200380037003642
:10030000000B000E00000000000000E30022522855
:10031000004000410042004300000000003D003E5C
:10032000003F004400000000003A003B003C004554
:1003300000000000000000000000000100E10000DB
:10034000002A0027002600250024002E0000002E91
:10035000022300220021002D000000250220001FA2
:10036000001E002D020000000000000000235200CB
:100370000035021E021F022002210222020000009C
:10038000000000000026022702E00000000000003C
:10039000002F023002000000000000235200000085
:1003A000004C000000000031022402230235004FFF
:1003B00000520051005000000000003100000030E9
:1003C000002F0000000000000000000000010000FD
:1003D00000007C00000000000000000000207823E6
:1003E00078277829780000A9002178247828782AAD
:1003F000780000AA000000000000000100000000DA
:1004000000460000000000000000000000000000A6
:1004100000000000000000A8000000000000000034
:1004200000000000000000000000000000010000CB
:100430000000AF00AE05010906A1018501050719FD
:10044000E029E715002501950875018102950175E0
:100450000881010507190029FF150026FF009506F0
:100460007508810005081901290515002501950564
:1004700075019102950175039101C005010980A1E3
:1004800001850319012AB700150126B700950175EA
:10049000108100C0050C0901A101850419012AA0E1
:1004A00002150126A002950175108100C005010901
:1004B00006A1018506050719E029E7150025019524
:1004C00008750181020507190029EF15002501951E
:1004D000F07501810205081901290595057501913D
:1004E00002950175039101C009022200010100A0DB
:1004F000FA090400000103010100092111010001B2
:1005000022B3000705810320000112010002000050
:100510000008534601000100010200010C034300E2
:100520006F0072006E0065000000100366006F002F
:100530006F007300740061006E0000000403090482
:100540000000000000003E5B4F5B3E003E6B4F6BC7
:100550003E001C3E7C3E1C00183C7E3C18001C5794
:100560007D571C001C5E7F5E1C0000183C180000BC
:10057000FFE7C3E7FF00001824180000FFE7DBE7F0
:10058000FF0030483A060E00262979292600407FD0
:1005900005050700407F05253F005A3CE73C5A000F
:1005A0007F3E1C1C0800081C1C3E7F0014227F227A
:1005B00014005F5F005F5F0006097F017F00006637
:1005C00089956A0060606060600094A2FFA2940058
:1005D00008047E04080010207E20100008082A1C51
:1005E0000800081C2A0808001E10101010000C1E1D
:1005F0000C1E0C0030383E383000060E3E0E060051
:1006000000000000000000005F000000000700077D
:100610000000147F147F1400242A7F2A1200231361
:1006200008646200364956205000000807030000A5
:10063000001C224100000041221C00002A1C7F1CDB
:100640002A0008083E0808000080703000000808F2
:100650000808080000006060000020100804020084
:100660003E5149453E0000427F40000072494949E1
:1006700046002141494D33001814127F10002745D0
:10068000454539003C4A49493100412111090700DB
:10069000364949493600464949291E0000001400E0
:1006A000000000403400000000081422410014142F
:1006B0001414140000412214080002015909060014
:1006C0003E415D594E007C1211127C007F49494920
:1006D00036003E41414122007F4141413E007F4979
:1006E000494941007F09090901003E414151730018
:1006F0007F0808087F0000417F4100002040413F03
:1007000001007F08142241007F40404040007F02EA
:100710001C027F007F0408107F003E4141413E00E3
:100720007F09090906003E4151215E007F09192910
:10073000460026494949320003017F0103003F403A
:1007400040403F001F2040201F003F4038403F00F6
:100750006314081463000304780403006159494DCD
:100760004300007F41414100020408102000004185
:1007700041417F000402010204004040404040002B
:100780000003070800002054547840007F284444A8
:100790003800384444442800384444287F00385402
:1007A0005454180000087E0902001824241C780004
:1007B0007F080404780000447D4000002040403D54
:1007C00000007F102844000000417F4000007C04AE
:1007D000780478007C0804047800384444443800E5
:1007E0007C1824241800182424187C007C08040495
:1007F000080048545454240004043F4424003C405E
:1008000040207C001C2040201C003C4030403C002C
:100810004428102844004C9090907C004464544C30
:10082000440000083641000000007700000000414D
:10083000360800000201020402003C2623263C0088
:100840000000000000000000C0E0F0F8F81800C050
:10085000F0FCFEFFFFFFFFFFFFFF7E00000000F83F
:10086000042252E2424242E2522222224282020206
:1008700022220204F80000F804020282422242828C
:10088000020202824222122242820204F80000F88E
:10089000FCDEAE1EBEBEBE1EAEDEDEDEBE7EFEFEDA
:1008A000DEDEFEFCF80000F8FCFEFE7EBEDEBE7E54
:1008B000FEFE00000000000080804040202010105C
:1008C000080810102020404080808080C0C0E0E0F8
:1008D000F0F0F8F8F0F0E0E0C0C0808080804040A8
:1008E00020201010080810102020404080808080B8
:1008F00040C060A050B058A850B060A040C08080F8
:1009000000F8FCFEFFE000FFFFFFFFFFFF80FFFF9E
:10091000FFFFFFFFFFFFFF1F070100000000001F98
:1009200020444A47424242474A44404040404142B4
:10093000444440201F00001F2040414040404040B0
:10094000414041414F4848484F4141201F00001F4E
:100950003F7B75787D7D7D78757B7F7F7F7F7E7D1A
:100960007B7B7F3F1F00001F3F7F7E7F7F7F7F7FDE
:100970007E7F00000000000088885D5D3E3E7C7C3C
:10098000F8F87C7C3E3E5D5D888888885555232339
:1009900047478F8F47472323555588888888D5D563
:1009A000E2E2C4C48888C4C4E2E2D5D588888888D5
:1009B0005DD56BB66DD6ADDA6DD66BB65DD5888874
:1009C00000030F1F3F3F3F3F1F1F3F3F7F7F7F3F82
:1009D0003F1F3F7F7F7F7F7C7878381C0F0004F8B3
:1009E0000000F804201F00001F20FCF80000F8049D
:1009F0003F1F00001F2004F80000F8FC201F00002B
:100A00001F3FFCF80000F8FC3F1F00001F3FFE7E68
:100A1000BEDEEEDEBE7EFEFCF8007E7E707777776F
:100A2000707E7E3F1F0000000000000000000000FC
:100A300000000000000000000000010102020404A8
:100A40000808040402020101000000000101020282
:100A5000040408080404020201010000000001016E
:100A6000030307070F0F070703030101000000003E
:100A70000101030205060D0A05060302010100003B
:100A8000636F726E65008081828384A0A1A2A3A49B
:100A9000C0C1C2C3C400209495962020B4B5B6202E
:100AA00020D4D5D62000209798992020B7B8B92017
:100AB00020D7D8D92000209A9B9C2020BABBBC20EC
:100AC00020DADBDC2000209D9E9F2020BDBEBF20C1
:100AD00020DDDEDF2000202020202000A7A800AF9E
:100AE000B000C600CA00C800A5A600ADAE00878849
:100AF000008F9000C500C900C700CB008586008D1F
:100B00008E00ABAC00CFD000C600CA00C800A9AAB6
:100B100000B1B2008B8C00CDCE00C500C900C7006B
:100B2000CB00898A009192000001010101010101BD
:100B30000101020202020202020202030303030392
:100B40000303030404040404040405050505050661
:100B5000060606060707070707080808080909091F
:100B6000090A0A0A0B0B0B0C0C0C0D0D0D0E0E0EC8
:100B70000F0F0F1010111111121213131414151559
:100B800016161717181819191A1A1B1B1C1D1D1ECB
:100B90001E1F20202122222324242526262728291F
:100BA000292A2B2C2D2D2E2F30313232333435364D
:100BB0003738393A3B3C3D3E3F404142434445464D
:100BC0004748494A4C4D4E4F505153545556585929
:100BD0005A5B5D5E5F616264656668696B6C6D6FD0
:100BE0007072737577787A7B7D7E80828385878843
:100BF0008A8C8E8F91939596989A9C9EA0A2A3A57D
:100C0000A7A9ABADAFB1B3B5B7BABCBEC0C2C4C67D
:100C1000C9CBCDCFD1D4D6D8DBDDDFE2E4E7E9EB39
:100C2000EEF0F3F5F8FAFDFF11241FBECFEFDAE086
:100C3000DEBFCDBF12E0A0E0B1E0E8EFFBE502C00F
:100C400005900D92A63AB107D9F726E0A6EAB2E0E0
:100C500001C01D92AF3EB207E1F70E94BD0B0C949C
:100C6000FA2D0C9400008F929F92AF92BF92EF9258
:100C7000FF920F931F93CF93DF93FC0124812223D4
:100C800009F470C57C0161E00E949927EC01F7012D
:100C90008581882319F180910104909102040097C5
:100CA000E9F0C817D907D1F0992734E0880F991FC8
:100CB0003A95E1F7FC01E65EFE4F20812460208337
:100CC0008B5E9E4FFC01D183C0830E94821F1092D5
:100CD000FF0361E0C7010E949927EC01F7018581BC
:100CE0008823C9F181818093CD0280818093CC02D9
:100CF00080E280932501D093CB02C093CA02CE013B
:100D000090528115904228F4F7018681807F79F412
:100D1000E4C4CE0190548115904120F4F7018681FE
:100D2000807F29F4CE019A9581159F4118F4FE0128
:100D3000FF2707C0CE01805A9245809708F4CDC4A2
:100D4000FE01ED33F10508F0C8C4EC5AFE4FE49102
:100D5000E0932501C2C4C230D10509F4F9C4C330FF
:100D6000D10529F0C130D10549F481E0F2C483E016
:100D70000E942A14F70185818111B8C4CE019755CC
:100D80008F3F910511F008F05CC05E01BB24C501E6
:100D900024E0880F991F2A95E1F78C010B5E1E4F06
:100DA000F7012581AC01465E5E4F5A01FA01808150
:100DB00020FB80F98083F7018581882341F10E941F
:100DC0006A1E9093C9028093C802F80182818F5FE6
:100DD00082839091FF0380910004892B838380910B
:100DE000BE0384834681578166857785C8010E944A
:100DF000631FF501808181FF03C090E080E002C0A5
:100E00009C2F8D2F90930104809302041AC0F80147
:100E10004485558566857785C8010E94631FF50165
:100E2000808181FF0EC0C8010E94691F809101046A
:100E300090910204C817D90721F41092020410926D
:100E400001044E01FE01E851FC47E730F10588F549
:100E5000EA5AFF4F0C94DE2D06E221EE41EE6AE1E4
:100E60007CE705C007E225EE45EE6BE17CE7C701B4
:100E70000E94AC1F18C106E221EE40EE68E17CE75B
:100E8000F6CF07E225EE44EE69E17CE7F0CF06E21B
:100E900021EE42EE6CE17CE7EACF07E225EE46EE7A
:100EA0006DE17CE7E4CF08E221E045EE6EE17CE70E
:100EB000DECFF7018581882309F453C11092FE0328
:100EC000CE019057839708F0DBC084E090E00E9449
:100ED000982D90930D0480930C04FE01E150F0478F
:100EE000E232F10520F4E35AFF4F0C94DE2D80919D
:100EF0000C048160ACC080910D048860B4C0809106
:100F00000C048260A4C080910C0420C080910C0469
:100F100088609DC080910D041EC080910D04826088
:100F2000A2C080910C04806192C080910C04806208
:100F30008EC080910C0480648AC00E947F148091CE
:100F40000C04806884C080910C04886084607FC039
:100F500080910D048260816086C080910C048E7F38
:100F600076C080910D04877F7EC080910C048D7FB8
:100F70006EC080910C0420C080910C04877F67C0F4
:100F800080910D041EC080910D048D7F6CC08091F6
:100F90000C048F7E5CC080910C048F7D58C08091C2
:100FA0000C048F7B54C00E947F1480910C048F77B7
:100FB0004EC080910C04877F8B7F49C080910D04C7
:100FC0008D7F8E7F50C080910C0482FB222720F9F8
:100FD00091E0922790FB82F990FB83F938C08091D1
:100FE0000D04982F909591708E7F892B90FB81F93D
:100FF0003AC080910C0486FB222720F991E09227C9
:1010000090FB86F924C00E947F1480910C0487FB1A
:10101000222720F991E0922790FB87F918C061E020
:1010200001C060E08EE090E00E94AE2D1EC0809175
:101030000C0484FB222720F991E0922790FB84F98D
:1010400006C080910C04982F909590FB80F98093B6
:101050000C040BC080910D0483FB222720F991E042
:10106000922790FB83F980930D0460910C0470919A
:101070000D0484E090E00E94CC2D0E947F1413C0E8
:10108000C631FCE7DF0709F5809100048A7A91E018
:1010900009F490E09093A8028111C9C289E20E94EC
:1010A000CD1E0E941B1180914C03877009F45AC316
:1010B000F7018581882309F455C380910D0482FFCF
:1010C00051C382E00E943C144DC3C330FCE7DF07EC
:1010D00099F140F4C1154CE7D40791F0C130DC47D9
:1010E00089F14DC0CB358CE7D807B9F1CC359CE7F9
:1010F000D90759F1CA35DC4709F041C081E02EC05B
:101100000E947F14FFEF24E34CE0F1502040404068
:10111000E1F700C0000087E797E79093010880930C
:1011200000089AE088E10FB6F894A89580936000D3
:101130000FBE90936000FFCF6FEF7FEF80E090E0F5
:101140000E94CC2D0E944D28AECF80910D0482FBD1
:10115000882780F991E0892701C080E00E9453141C
:101160000EC0C631DC4709F4AEC280910004827221
:10117000F401E052F847E531F10508F45AC2F701ED
:101180008581C081D181882349F0CE010E94D3118D
:10119000182F682FCE010E94F11304C0CE010E94C7
:1011A000BE13182FBE01812F0E9424190E94F00F38
:1011B000D82FC92F982EF7011581068102950F703F
:1011C00080914C03877001F11123F1F0892F807F0A
:1011D000803469F080E28D0F8830B0F0892F807EF6
:1011E000803229F4F1E0FD1778F4002369F0809152
:1011F0000D0482FF09C082E00E943C1480914C03E0
:101200008770BB24B3948111B12CAC2EA2948FE0D3
:10121000A8228A2D90E08C30910508F0E6C1FC01EF
:10122000E158FF4F0C94DE2D8C2F807FCF708823E8
:1012300011F0C295C07F1123B9F0CC2309F4C3C1CA
:1012400080E28D0F883010F0911006C0909100045C
:10125000C92BC093000405C09091FF03C92BC09314
:10126000FF030E941B11AFC18D2F0E94C314CC231A
:1012700009F4BBC1D05E8C2FD83068F1992059F1A8
:101280000E940D112AC08C2F807FCF70803211F008
:10129000C295C07F992029F021E0921609F44CC034
:1012A00055C080910D0482FD1BC0112369F0CC2331
:1012B00039F090910004C92BC09300040E941B11C7
:1012C00080E00E94ED1491C180E00E94C314CC2301
:1012D00009F48BC18C2F0E9414110E941B1185C12F
:1012E000112381F00023B1F1013009F07EC190910A
:1012F000BE038C2F8923C81709F477C1C92BC0936B
:10130000BE0373C1011171C18C2F0E94B214809170
:10131000BE039C2F982329F09C2F909589238093BE
:10132000BE032091BF038C2F822309F45EC1C095B8
:101330002C232093BF0359C1112321F0063008F05C
:1013400054C108C0053008F050C115C0112331F058
:10135000011139C18C2F0E94B91447C1002359F0E3
:10136000D93309F03FC14FEF57EE83E04150504071
:101370008040E1F735C18C2F0E94B21436C18C2F0A
:1013800086958695837019F0813061F02EC1112306
:1013900021F08D2F9C2F937002C080E090E00E947E
:1013A0002A1F29C1112321F08D2F9C2F937002C079
:1013B00080E090E00E94051F1EC18C2F837009F011
:1013C00041C0111116C12D2F229526952770220F8D
:1013D000220F8D2F8F7090E0022E02C0880F991F70
:1013E0000A94E2F7D4FF0BC04FE050E002C0440F74
:1013F000551F2A95E2F79A012095309502C020E00A
:1014000030E0C695C695C370C23099F068F440913B
:10141000450650914606C13029F0822B932B842338
:10142000952304C0842B952B822B932B0E947A1436
:10143000E0C0822B932B20914506309146068227EF
:101440009327F4CF112319F08C2F817001C086955A
:10145000882309F4CEC02D2F229526952770220FC0
:10146000220F8D2F8F7090E0022E02C0880F991FDF
:101470000A94E2F7D4FF0BC04FE050E002C0440FE3
:10148000551F2A95E2F79A012095309502C020E079
:1014900030E0C695C695C370C23079F0B8F440917B
:1014A000340450913504C13029F0822B932B8423CE
:1014B00095230EC0842B952B09C0822B932B209152
:1014C0003404309135048227932702C0822B932B5A
:1014D0000E9425148EC0CF70112339F08C2F0E94EA
:1014E0006A148D2F0E94B91484C08D2F0E94B214EB
:1014F0008C2F0E942A147DC08D2F92EF991689F1AE
:10150000991538F0E0EF9E1659F0F1EF9F1621F192
:1015100056C023EF921661F144EF9416C9F04FC004
:10152000112391F0053008F060C0CF7181E090E0A8
:1015300002C0880F991FCA95E2F7209134043091B8
:1015400035048227932721C0063008F04EC0EDCF26
:1015500080910D0482FD1CC0112329F08C2F8F7106
:1015600022C01123D9F38C2F8F710E942A143DC001
:10157000112349F0CF7181E090E002C0880F991FDC
:10158000CA95E2F702C080E090E00E9425142DC0C9
:10159000112361F08C2F8F7158E0859F90011124E9
:1015A000236020934C030E946A141FC081E00E94B4
:1015B0003C140230D0F082E00E943C1416C011238B
:1015C00021F0002359F28D2F7CCE002361F2893364
:1015D00049F48FEF97EEE3E081509040E040E1F76F
:1015E00000C000008D2F0E94C31488EF8A0D843044
:1015F00010F40E944F1FBB20A9F080914C0380FD86
:1016000011C0F70115828695869586950E946A1409
:10161000C7010E94330680914C0386958695869576
:101620000E942A1460E0C7010E9499279BC085E3AD
:1016300036CDE557FF4F0C94DE2D90912C0481E0C0
:10164000892780932C0410927E0180912B04816065
:1016500080932B0428CD47E555E261E675E22CC066
:1016600041E655E267E575E227C043E455E26DE4E3
:1016700075E222C04DE455E263E475E21DC049E223
:1016800055E266E375E218C046E355E269E275E2A9
:1016900013C04FE055E26CE175E20EC04CE155E23B
:1016A0006FE075E209C044EB54E262EC74E204C0FE
:1016B00042EC54E264EB74E20E94B320F4CC81E08B
:1016C0000E945721F0CC8091A802811104C089E2C8
:1016D0000E949F1EE6CC85E3FBCFC230D105A1F16D
:1016E000C330D105D9F1C130D10561F10E946A1E24
:1016F000CE019A9581159F4418F4FE01FF2708C07A
:10170000CF3FD10509F010F4FE0102C0E0E0F0E0A7
:101710008091030180930401809102018093030171
:101720008091010180930201809100018093010169
:10173000EF3FF10509F422CBE057FE4FE491E0932F
:1017400000011CCB81E001C082E00E946A1403C04A
:1017500082E00E942A140E944721A5CC83E00E94C7
:101760006A1408CBDF91CF911F910F91FF90EF90FA
:10177000BF90AF909F908F900895AAE0B0E0E3EC07
:10178000FBE00C94402D85B7806885BF85B78068E5
:1017900085BF84B7877F84BF0FB6F894A8958091E2
:1017A0006000886180936000109260000FBE90E03E
:1017B00080E80FB6F89480936100909361000FBEAB
:1017C0008CE795E19093A7028093A6020E94D71B15
:1017D0000E947D1C8091E20084608093E2007894F6
:1017E00080912A048823A1F01091E9001F70909144
:1017F000EC00892F817090FD80E8182B1092E90091
:101800008091E80083FD0E94D8211F701093E900A9
:1018100082E084BD93E095BD9AEF97BD80936E0002
:101820001092A9021092AA021092AB021092AC027E
:101830008091D80080618093D8002AE12A95F1F741
:1018400000C08091D900182F117080FD04C00E9443
:10185000D71B10922A0410930304109304041093CE
:101860000A0111110E94C62B80910A0180910A0180
:10187000811102C094E001C090E09093B60284E030
:10188000891B8093B50207E811E0BBE8EB2EB1E0BD
:10189000FB2ED8018D918D018F3F11F00E94C8174A
:1018A000E016F106B1F70BE811E0F80181918F0124
:1018B0008F3F11F00E94C817F1E001391F07A9F707
:1018C00088E0E7EBF2E0DF01282F1D922A95E9F787
:1018D000EDEAF2E0DF011D928A95E9F780E090E001
:1018E0000E94982D853E9E4F09F461C065EE7EEF03
:1018F00080E090E00E94CC2D60E082E090E00E94C9
:10190000AE2D81E090E0909346068093450661E01D
:1019100083E090E00E94AE2D60E074E184E090E00E
:101920000E94CC2D60E086E090E00E94AE2D60E049
:1019300087E090E00E94AE2D40E050E0BA0188E0E0
:1019400090E00E94C02D60E083E290E00E94AE2D06
:1019500060E08CE090E00E94AE2D60E08DE090E0D1
:101960000E94AE2D19821A821B821C821D821E8249
:101970001F82188648E050E067E170E0CE010196D2
:101980000E949E2D40E050E0BA018FE190E00E945D
:10199000C02D40E050E0BA018FE090E00E94C02DE1
:1019A00040E050E0BA0183E190E00E94C02D82E067
:1019B00090E00E94902D8093BF0284E090E00E940E
:1019C000982D90930D0480930C0483E090E00E9486
:1019D000902D90E00E947A140E94B02481E08093C0
:1019E0002B0448E050E067E170E08CE294E00E9454
:1019F000802D10922B0480912C048C7FF9F485E0CB
:101A000080932C048091840190918501A09186019E
:101A100080932D0490932E04A0932F048FE780933E
:101A200030048FEF8093310448E050E067E170E0CC
:101A30008CE294E00E949E2D10922B0483E0809310
:101A4000EE0280E2809336040E94562A6BE070E03A
:101A500086EA92E00E946620882309F443C08091C0
:101A6000EE0265E070E081FD3AC081EA92E00E94FA
:101A700066208823B9F16DE070E08FE892E00E9463
:101A80006620882379F10E945E1EDC01CB01805A1A
:101A90009541AF4FBF4F8093F6039093F703A09308
:101AA000F803B093F903E9E3F4E080E092E0DF01AA
:101AB0009C011D9221503040E1F7F0934006E093E5
:101AC0003F068FEF9FEF909338048093370481E0B7
:101AD0008093FB038093FA031092EF0203C08CE91A
:101AE00092E0C5CF80910304811102C00E94C92BEE
:101AF0008BE091E09093090480930804F8E12F2E85
:101B0000312C44244394512C80912A04853009F0CF
:101B100057C000E112E180912A04853009F04AC0E3
:101B200080912A04843009F434C00E9473200E94FA
:101B3000932680914B06811105C00E94922580E07A
:101B40000E94852531E030934B060E94732010924D
:101B50000E0480E40FB6F894A895209260000FBEA2
:101B60008093600083B7817F846083BF83B7816087
:101B700083BF7894889583B78E7F83BF0FB6F89420
:101B8000A895809160008861809360001092600049
:101B90000FBE80912004882309F4BDCF0E94411913
:101BA000E7EBF2E081918111BFC192E0EF3BF907D1
:101BB000C9F7B1CF0E947F140E944F1F10924B06AD
:101BC0000E94411900EC12E0E7EBEE2EE2E0FE2E5F
:101BD000D701F80191918D91892728EC32E02E17D9
:101BE0003F0719F08823B1F306C0811104C00E9499
:101BF0005815D12C38C080900304D12CD7019D906A
:101C00007D01F801A080A92421F1C12CBB24B3944B
:101C10008B2D8A21B9F08820A9F0C982DA820E942E
:101C20006A1E9C838B83F1E0FD8391E08B2D8921DB
:101C300009F490E09E8349815A816B817C818D817A
:101C40000E94C427C394BB0C26E0C212E1CFD80186
:101C50009C92D3940F5F1F4FB8E0DB12CFCF0E944E
:101C6000DF17DD24D39480910304882319F1809138
:101C7000010490910204892BE9F08091C8029091AF
:101C8000C9020E944F1E893C9105A0F08091010479
:101C900090910204992774E0880F991F7A95E1F7D3
:101CA000FC01E65EFE4F208122FD04C08B5E9E4F4C
:101CB0000E94821F0E9493268091FB03882309F4CF
:101CC00024C18091F0029091F1020E944F1EC297B0
:101CD000A8F00E946A1E9093F1028093F00289E3BB
:101CE00094E09093400680933F06809103048823FC
:101CF00019F00E94972802C00E949728809137040B
:101D000090913804892B31F48091FA03882309F4E7
:101D1000FCC0E4C08091FB038823B1F38091EF0203
:101D20008111F2CF0E948D20209137043091380428
:101D30002115310549F380E0082F10E07201082ECB
:101D400002C0EE0CFF1C0A94E2F7A70142235323C2
:101D5000452B11F48F5FF0CF9091EE02980165E072
:101D6000220F331F6A95E1F790FF13C055E03695B7
:101D700027955A95E1F7220F220F220F2093280171
:101D800010922B01295F2093290183E080932C017D
:101D900011C0220F232F221F330B31958295880FFC
:101DA00080768093280120932B01815E8093290106
:101DB00020932C0124E630E047E050E066E271E039
:101DC00088E70E948B2A892B09F09ECF8091EE0232
:101DD00080FF64C080E2EEECF2E0DF011D928A95A4
:101DE000E9F7A80135E0440F551F3A95E1F7E5E919
:101DF000F1E0FA87E98701E911E0A985BA858D91BB
:101E0000BA87A987F80191918F01BA01690F711DF5
:101E1000675C7B4F90E082539D4FFC0127E0922E40
:101E20009F01281B390B742C01C0770C2A95EAF707
:101E30005B01812CD501CD905D01C720292D28198A
:101E40002770622E022E000C330BBC2D01C0BB0F7D
:101E50006A94EAF76B2E3195219531092770332763
:101E600001C0C6942A95EAF76C28C0806C2860826D
:101E7000839428E08212DECF9A9431963FEF93123A
:101E8000CFCF89859A858959914009F0B6CF04E66C
:101E900010E020E230E04EEC52E00CC0A80185E0FA
:101EA000440F551F8A95E1F7475C5B4F04E610E04D
:101EB00020E230E060E488E70E94222B892B09F0C1
:101EC00023CFE094F0948091370490913804E82275
:101ED000F922F0923804E092370416CF0E945E1E79
:101EE0000091F6031091F7032091F8033091F90364
:101EF000DC01CB01801B910BA20BB30B8F3F9F4FDB
:101F0000AF4FBF4710F40E947320D1100E948D2064
:101F10000E944F1F9091F202891709F4F5CD80932A
:101F2000F2020E945E1EF0CD09BD19BD09B400FE8B
:101F3000FDCF8091D8008F7D8093D8008091E00004
:101F400082608093E0008091E00081FDFCCF0E94E0
:101F50007F14E1CD909100048091FF03892B909133
:101F6000BE039923E1F0892B90917D01992341F0E3
:101F700090910C0497FF04C09EE128ED33E003C06C
:101F800096E020ED33E0F90120E0915028F0319106
:101F90003323D9F32F5FF9CF21111092BE03089597
:101FA00020914B039091120357E02917A9F030E0DC
:101FB000529FF001539FF00D1124ED5EFC4F718193
:101FC000761306C07081781303C07581741306C040
:101FD0002F5F3F4F2770E9CF80E0089581E008959B
:101FE0001F93CF93DF930E948818EC01C11580E501
:101FF000D807E8F5C11590E4D90708F0A8C0C03E9D
:10200000D10530F5CD3CD10508F094C0C83AD105D2
:1020100078F4C53AD10508F083C0C130D10509F480
:102020007CC008F4F2C0C430D10508F0F1C0EDC0A6
:10203000C33CD10508F0E9C0C85AD0E0CC0FDD1F81
:10204000C456DE4F0990D881C02DCE019464E1C002
:10205000C11580E2D80708F0CBC0C11591E0D907BF
:1020600008F06BC0C83ED10508F4D2C0CEC0C0365F
:1020700082E5D80728F5C03492E5D90708F079C081
:10208000C03282E5D80708F06CC0C11592E5D907C7
:1020900008F481C04C2F4695469580E2489FA001E8
:1020A0001124C37021E030E0C90102C0880F991FDC
:1020B000CA95E2F7EA01C82BD92BCE019D68A9C0C9
:1020C000C03A82E5D807B8F48C2F8F71C03892E5FA
:1020D000D90708F07BC08695869590E2899F90018C
:1020E0001124C37081E090E002C0880F991FCA9547
:1020F000E2F79A6868C0C03C82E5D80708F46DC072
:10210000C03E92E5D90708F080C0CF71DD27DC2FF3
:10211000CC27CE01806F906A7CC081E090E079C0CE
:10212000C55AD0E0C756DE4F8881C82FD0E0CE0117
:1021300090646FC0CE0190656CC08D2F0E943918DD
:10214000182FCE0199270E9488181F715CC0CE01FC
:1021500099270E948818CC27DF70D06A8C2B9D2B82
:1021600058C0CF71D0E0DC2FCC27CE01816F906AB0
:1021700050C08C2F8F718695869590E2899F900133
:102180001124C37081E090E002C0880F991FCA95A6
:10219000E2F79C6818C08C2F8F710E94391895E067
:1021A000D695C7959A95E1F7CF70D0E0DC2FCC2774
:1021B000282F30E084FF05C084E0220F331F8A956A
:1021C000E1F7D069CE01822B932B23C090E0D82F6A
:1021D000CC27CE01846F906A1CC08C2F8F710E9417
:1021E00039188F7190E0D82FCC27CE01906211C0A2
:1021F0008D2F8F710E943918182FCE0199270E94B8
:1022000088181F719062912B04C080E090E001C09B
:10221000CE01DF91CF911F91089580959091FF039A
:1022200089238093FF03089580959091000489236A
:1022300080930004089580917D01882351F180915D
:102240000C0487FF26C00E94AA0F8093D70340E2A8
:1022500050E06DE473E086ED93E00E94E42D892B5D
:10226000F1F180E2E6EDF3E0ADE4B3E001900D9230
:102270008A95E1F7E0910804F0910904309779F12B
:1022800086E08093D6030480F581E02D86ED93E00F
:1022900025C00E94AA0F8093CE0349E050E06DE66E
:1022A00073E08DEC93E00E94E42D892BC1F089E06E
:1022B000EDECF3E0ADE6B3E001900D928A95E1F725
:1022C000E0910804F0910904309749F081E080938F
:1022D000CD030280F381E02D8DEC93E00995089504
:1022E00080914B0390911203891719F08F5F8770CB
:1022F000FBCF0895CF93DF938091110382958F7068
:1023000009F04EC080911003882309F449C08091E0
:102310004B034091120350910C0360910B03C09149
:102320000D03D0910E0377E08417D1F190E0789FF0
:10233000F001799FF00D1124DF01AD5EBC4F1496C2
:102340002C911497222349F111962C911197251362
:1023500024C02C91261321C015962C91159721117C
:102360001CC012962D913C9113972C1B3D0B283CC1
:10237000310598F4809111038F708061809311036F
:10238000E75EFC4F80818F70806180838BE093E0FB
:102390000E9433060E94701103C001968770C4CF5B
:1023A000DF91CF910895A0E0B0E0E9EDF1E10C9468
:1023B000492D7C010091340410913504809145062B
:1023C00090914606082B192BCFE0D0E0CC24C39483
:1023D000D12CC6010C2E02C0880F991F0A94E2F777
:1023E00080239123892B21F4219798F7B12C09C0E0
:1023F000BC2EB7018C2F0E9424190E94F00F019768
:1024000099F38B2DCDB7DEB7E9E00C94652DCF9312
:10241000DF93EC010E94D311BE010E9424190E9497
:10242000F00FDF91CF910895FC0124812223D9F090
:10243000808191810E94071292959F70963079F069
:1024400010F4925001C09A50923068F4803F69F0C5
:1024500018F4883E40F409C0843F29F406C0883E41
:1024600020F0813F11F080E0089581E00895A4E11B
:10247000B0E0EDE3F2E10C94462D8C0186E0F8012A
:10248000DE011F9601900D928A95E1F7F801848193
:10249000E5809BE0892E93E0992E90910F03911196
:1024A00020C0882309F463C1EE2009F442C0C801AA
:1024B0000E941412F82E8823E1F187E0F801D4017C
:1024C00001900D928A95E1F780910F03813031F4EC
:1024D00080910B0390910C030E9407120E947A11C5
:1024E00048C1F801D080C180A280B380F090100371
:1024F00020910D0330910E03FF2009F4E7C0A501E0
:10250000421B530B483C510508F09DC0882309F439
:1025100030C180911103282F207F90910C0322233A
:1025200061F09C1509F460C0C8010E941412811169
:1025300063C0C8010E9433061AC19C1113C0909158
:102540000B039D110FC0E1100DC08F70806180934F
:1025500011038BE093E00E94330680911103F80190
:10256000868303C1E1103AC040E06C2D8D2D0E949E
:10257000D00F40E06C2D8D2D0E94D00FE82E8111E0
:10258000F4C0DF86C88A8F8598890E940712292F98
:1025900022952F70243020F49F70223028F009C03B
:1025A0002A50223080F014C0992349F0811107C0CD
:1025B00013C0992321F0F8019681907F69F0805E25
:1025C000883030F409C0803F38F0815F833020F0DC
:1025D000C8010E943306EF2CFE2CCBC08091110362
:1025E000816080931103C1C090910B039D119CCF1A
:1025F000E1109ACFF80198C0EE2009F49ACF20910B
:102600001103822F82958F7090E002978CF0809159
:102610000B0390910C0399878887BB86AA868091CB
:102620000F038C871D862E87CE0108960E943306E5
:1026300087E0F801ABE0B3E001900D928A95E1F7F5
:102640000E947A1194C090911103292F207F51F498
:102650008BE093E00E94330687E0F40111928A95A3
:10266000E9F783C0882309F484C080910C038C119E
:102670000CC080910B038D1108C0E11006C0F80159
:102680009683C8010E9433066AC0C8010E941412D2
:10269000882309F44ECFEE2009F44BCF209111038B
:1026A000822F82958F7090E0029714F280910B0335
:1026B00090910C039A838983BC82AB8280910F0333
:1026C0008D831E822F83CE010196B0CFA21AB30A4A
:1026D000F8ECAF16B10408F042C0882309F447C0F3
:1026E000FE2CEE2009F425CF80910C038C1129C01B
:1026F00080910B038D1125C09091110390FD18C09E
:10270000892F82958F70282F30E02115310581F0B7
:10271000F80196832F30310541F08F5F982F929505
:10272000907F86818F70892B8683C8010E94330633
:1027300087E0F801ABE0B3E001900D928A95E1F7F4
:1027400018C0C8010E941412811172CF8091110328
:10275000816080931103C8010E9433060AC087E09C
:10276000F40111928A95E9F704C0F12C02C0FF240C
:10277000F3948F2D6496ECE00C94622D983078F5EC
:10278000863068F5E82FF0E086E0989FE00DF11DB7
:1027900011249E2F977083E0F695E7958A95E1F7CF
:1027A000EE0FFF1FEE0FFF1FED50FD4F40E050E01A
:1027B00080E0219130E0092E02C0369527950A94D9
:1027C000E2F721703327042E01C0220F0A94EAF7A2
:1027D000822B4F5F5F4F4430510559F7089580E0D9
:1027E0000895983088F5863078F5E82FF0E086E097
:1027F000989FE00DF11D11248E2F877051E001C0CC
:10280000550F8A95EAF783E0F695E7958A95E1F703
:10281000EE0FFF1FEE0FFF1FED50FD4F20E030E0E9
:1028200070E04081CB01022E02C0969587950A94F4
:10283000E2F78170819584278523842781932F5F18
:102840003F4F2430310569F7089590933504809304
:102850003404089521E030E002C0220F331F8A952E
:10286000E2F72095309580913404909135048223CD
:1028700093230E942514089590914C0380958923F9
:1028800080934C03282F277069F4981759F0909182
:102890000D0492FF07C08695869586950E942A149E
:1028A00010924C03089590910D0492FB222720F979
:1028B000281779F080FB92F990930D0460910C0435
:1028C00070910D0484E090E00E94CC2D82E00E9483
:1028D0003C14089521E030E002C0220F331F8A9596
:1028E000E2F78091340490913504822B932B0E945F
:1028F00025140895909346068093450608951092F6
:10290000000480917D01882341F080910C0487FFB1
:1029100004C08EE1E8EDF3E003C086E0E0EDF3E013
:10292000DF011D928A95E9F780E090E00E942A1F5E
:1029300080E090E00E94051F1092FF030E941B118F
:102940000895882321F00E940D110E941B11089503
:10295000882339F09091FF03892B8093FF030E9415
:102960001B110895882321F00E9414110E941B114D
:102970000895882339F090910004892B80930004F6
:102980000E941B110895882339F19CEF980F913A0A
:1029900018F40E949F1E0DC090E2980F983060F4CA
:1029A000877091E001C0990F8A95EAF7892F0E94FC
:1029B00014110E941B1108959BE5980F933028F481
:1029C00080E090E00E942A1F0895885A8B3120F4FD
:1029D00080E090E00E94051F0895CF93882309F4BA
:1029E00065C0C82F8CEF8C0F813AA0F580917D01D6
:1029F0008823E1F080910C0487FF18C0EC2FE69546
:102A0000E695E695F0E0EA52FC4F8281282F30E00F
:102A10004C2F477081E090E002C0880F991F4A95C3
:102A2000E2F782239323892B61F410C0E0EDF3E0F9
:102A300086ED93E02191C21721F08E179F07D1F701
:102A400005C08C2F0E949F1E0E941B118C2F0E947C
:102A5000CD1E10C080E28C0F883078F4C77081E002
:102A600090E001C0880FCA95EAF790910004892B85
:102A7000809300040E941B1119C0EBE5EC0FE330BA
:102A800040F4F0E0E756FE4F808190E00E942A1F5C
:102A90000DC0C85ACB3150F4EC2FF0E0EE0FFF1F01
:102AA000E456FE4F808191810E94051FCF910895C9
:102AB000A6E0B0E0EEE5F5E10C944E2D0E946A1E12
:102AC0008C0180917603909177030817190781F0A4
:102AD00019821A820E946A1E682F49815A81792FB1
:102AE00080E090E00E94C427109377030093760360
:102AF0002696E4E00C946A2D80E00895A0E0B0E012
:102B0000E4E8F5E10C94482D7C015B016A018091B9
:102B1000CC038A3018F001E010E002C00AE010E0B7
:102B2000C1E0D0E0B501C701F6010995811115C0DA
:102B300021960C171D0794F0CC9F9001CD9F300D6E
:102B4000300D112480E090E045E34A95F1F7000054
:102B5000019682179307C1F7E5CF81E0CDB7DEB7C5
:102B6000EAE00C94642DA0E0B0E0E9EBF5E10C9410
:102B70004B2D7901C82F880FDD0B41155105A9F0A8
:102B8000FE0193E0EE0FFF1F9A95E1F7E35DFE4F24
:102B9000818192818E579C4F208130E042175307EC
:102BA00008F49A01A9010E94F12DCE010E94B12CD6
:102BB000D82E8823D1F001151105B9F083E0CC0F90
:102BC000DD1F8A95E1F7FE01E35DFE4F438150E092
:102BD0000417150708F4A801C35DDE4F6C817D81E1
:102BE0006E577C4FC7010E94F12D8D2DCDB7DEB7FA
:102BF000E7E00C94672DA4E0B0E0E1E0F6E10C948E
:102C00004E2D6091C0037091C1038091C2039091D9
:102C1000C3030E94331E41E06436710581059105AE
:102C200008F440E030910004398364367105810571
:102C3000910520F420919403231341E09091FF0328
:102C40009A83411106C041E020919503291301C0E8
:102C500040E09091BE039B83411106C041E020916A
:102C60009603291301C040E09091BF039C8341115A
:102C700006C080919703891302C011E019C000E0DB
:102C800010E020E030E044E050E0BE016F5F7F4F95
:102C900087E00E94B315182F882351F00E945E1E12
:102CA0006093C0037093C1038093C2039093C303E6
:102CB000812F2496E4E00C946A2DA5E0B0E0E3E6D1
:102CC000F6E10C944C2D7B0101E010E09E012B5F9E
:102CD0003F4F40E050E060E070E080E00E94B315BC
:102CE000182F8823C1F16091A6037091A7038091EA
:102CF000A8039091A9030E94331E643671058105D3
:102D0000910538F483E893E00E9470219D81891732
:102D100011F104E010E09E012F5F3F4F40E050E0D2
:102D200060E070E081E00E94B315182F83E893E023
:102D30000E94702191E02D81281390E0192329F140
:102D40000E945E1E6093A6037093A7038093A8035E
:102D50009093A9030CC08091830390918403A09168
:102D60008503B091860389839A83AB83BC83112347
:102D700061F089819A81AB81BC818093A203909399
:102D8000A303A093A403B093A5038091A203909101
:102D9000A303A091A403B091A503F70180839183BD
:102DA000A283B383812F2596E6E00C94682DA0E0E2
:102DB000B0E0EDEDF6E10C94482DC82F7B01D42F47
:102DC00069015801FB0160817181828193810E94B8
:102DD000331E643671058105910510F4DD23A1F0E1
:102DE00000E010E020E030E0A501B6018C2F0E9449
:102DF000B315C82F882349F00E945E1EF701608337
:102E000071838283938301C0C1E08C2FCDB7DEB77D
:102E1000EAE00C94642DA1E0B0E0E1E1F7E10C946C
:102E20004E2D8091FA0389832091A10330E090E038
:102E300041E02817390709F440E001E010E09E0165
:102E40002F5F3F4F68EC73E089E00E94D716219610
:102E5000E4E00C946A2D0F931F9341E020918F03BF
:102E600030919003809134049091350428173907EC
:102E700009F440E002E010E024E334E066EB73E0A4
:102E800084E00E94D7168823B1F041E0209191039D
:102E90003091920380914506909146062817390794
:102EA00009F440E002E010E025E436E062EB73E074
:102EB00085E00E94D7161F910F910895CF92DF925F
:102EC000FF920F931F93CF93DF93F82E6B01EA01CC
:102ED000A801B901CE010E94E42D41E0892B09F43B
:102EE00040E09E01B6018F2D0E94D716DF91CF9151
:102EF0001F910F91FF90DF90CF900895A9E0B0E06F
:102F0000E4E8F7E10C944E2D88E0ECE2F4E0DE0119
:102F1000119601900D928A95E1F780914B06898771
:102F200009E010E028E933E0AE014F5F5F4F64EC49
:102F300073E088E00E945E172996E4E00C946A2D05
:102F4000A1E0B0E0E6EAF7E10C944E2D0E944F1F9D
:102F5000898301E010E023E933E0AE014F5F5F4F6A
:102F60006AEB73E086E00E945E172196E4E00C9421
:102F70006A2D0F931F9304E010E027E833E0AC01C3
:102F80006AEA73E082E00E945E171F910F91089534
:102F9000F894E82FE295EF70F0E031A1282F2F7020
:102FA00081E090E001C0880F2A95EAF7982F90956C
:102FB000932391A392A1892B82A3789408950F93D0
:102FC0001F9380910304882319F00E945E1E0EC097
:102FD0000E945E1E0091A9021091AA022091AB02EC
:102FE0003091AC02600F711F821F931F1F910F91D0
:102FF0000895A4E0B0E0EFEFF7E10C944E2D60915E
:10300000AE037091AF038091B0039091B1030E9421
:10301000331E643671058105910528F10E94DF1782
:10302000DC01CB010296A11DB11D89839A83AB837C
:10303000BC8300E010E020E030E044E050E0BE015E
:103040006F5F7F4F83E00E94B315182F882361F0D4
:103050000E945E1E6093AE037093AF038093B00333
:103060009093B10301C011E0812F2496E4E00C9409
:103070006A2D90910C0492FF10C041E0282F24711A
:10308000243009F040E031E0282F2871283009F081
:1030900030E0431711F02CE0822793FF10C041E08D
:1030A000282F2471243109F040E031E0282F2871C5
:1030B000283109F030E0431711F02CE082273091DD
:1030C0000D0430FF10C051E0282F2171213009F08C
:1030D00050E041E0282F2871283009F040E05417D3
:1030E00011F029E0822731FF10C041E0282F217123
:1030F000213109F040E031E0282F2871283109F012
:1031000030E0431711F029E0822794FD877E08956F
:103110008238910569F1B0F48133910509F475C0E5
:1031200048F48932910509F467C08A32910509F49F
:1031300071C008958533910509F459C0893391050B
:10314000B9F00895833E910589F138F4803E9105E8
:10315000D1F0823E910529F10895863E9105C9F18D
:10316000873E9105D9F1843E910509F06CC027C0D6
:1031700020910C0420FD57C021FD55C020910D0465
:1031800023FD5BC0089580910C0480FD48C08091B0
:103190000D0480FF48C080910C0484FD46C083EE7E
:1031A00051C080910C0482FF3CC0F5CF80910C048B
:1031B00082FD37C080910D0480FD35C0ECCF809139
:1031C0000D0481FF36C080910C0484FD2EC087EE73
:1031D00039C080910C0483FF2AC0F5CF80910C0484
:1031E00083FD25C080910D0481FD23C0ECCF80912B
:1031F0000C0485FD22C01FC080910C0485FD1BC0FE
:1032000080910D0483FF19C00AC080910C0486FDD3
:1032100016C017C080910C0486FD13C010C089E34E
:1032200011C082EE0FC080EE0DC080E00BC086EEB4
:1032300009C084EE07C085E305C089E203C08AE2C5
:1032400001C081E390E008957830B0F46630A0F4D6
:103250008430A0F490E3899FF001112486E0789FE8
:10326000E00DF11D1124E60FF11DEE0FFF1FEF54CD
:10327000FD4F85919491089580E001C081E090E038
:103280000895ACE0B0E0E7E4F9E10C94432DAE0121
:103290004F5F5F4F7A0188E0DA011D928A95E9F766
:1032A00007E811E06A018BE8682E81E0782EAA24F5
:1032B000A394B12C21E9822E21E0922EF801808185
:1032C0008F3F09F440C0F894E82FE295EF70F0E0EA
:1032D00021A18F70A50102C0440F551F8A95E2F706
:1032E000CA01922F982B91A392A18095892382A342
:1032F000789400C0EBE8F1E0512C31E021912F3FB0
:1033000089F0A22FA295AF70B0E090968C9190E0DA
:103310002F7002C0959587952A95E2F780FD02C02F
:10332000832F01C080E0582A330F8E169F0631F795
:10333000D8018C918F3F11F00E94C817B0EABA955E
:10334000F1F7F60150820F5F1F4FFFEFCF1ADF0A30
:103350006016710609F0B2CF48E050E0B7018DEA7F
:1033600092E00E94E42D892B99F088E0F701ADEA04
:10337000B2E001900D928A95E1F781E080937A03A3
:103380000E946A1E9093790380937803F12C27C0E2
:1033900080917A038823D1F30091B602809178035B
:1033A000909179030E944F1E059780F310E0095415
:1033B0001D4F44E050E06DEA72E0C8010E94E42D28
:1033C000892B09F45CC184E0EDEAF2E0D8010190B8
:1033D0000D928A95E1F7FF24F39410927A0380917D
:1033E0000304E091B602882309F497C019861A866F
:1033F0001B861C860E2F10E009541D4F8091CC03B4
:103400008A3060F44DE556E1BE01675F7F4FC80129
:103410000E947E15882309F451C00AC080917B0365
:1034200090917C030E944F1E843F914058F758C0F2
:1034300049EB57E1BE01675F7F4FC8010E947E15CF
:103440008823E1F149EF57E1BE01675F7F4FC80173
:103450000E947E15882391F14BE257E1BE01675F20
:103460007F4FC8010E947E15882341F140EA57E151
:10347000BE01675F7F4FC8010E947E158823F1F06F
:103480004BEF55E1BE01675F7F4FC8010E947E157B
:103490008823A1F04EE757E1BE01675F7F4FC80167
:1034A0000E947E15882351F04BE057E1BE01675F13
:1034B0007F4FC8010E947E158111CCC08091CC0342
:1034C0008F3F19F08F5F8093CC038091CC038A30BB
:1034D00008F4C2C00E946A1E90937C0380937B0311
:1034E00080918103882309F4AFC0FE01399684E0FE
:1034F000DF011D928A95E9F710928103E091B502F0
:10350000F0E0E954FD4F89859A85AB85BC858083C1
:103510009183A283B38381E098C00091B50210E04B
:1035200009541D4FF0E0E954FD4F84E0A3E8B3E0F7
:1035300001900D928A95E1F783E893E00E94702153
:103540008093820384E0E7E8F3E0D80101900D92D4
:103550008A95E1F780908B0390908C03A0908D0367
:10356000B0908E0380917D0390917E03A0917F03A4
:10357000B091800388169906AA06BB06B1F0809226
:103580007D0390927E03A0927F03B09280030E94FD
:103590005E1E861A970AA80AB90A8092A90290921A
:1035A000AA02A092AB02B092AC0280918F039091DC
:1035B000900390933504809334048091910390910B
:1035C00092039093460680934506809193038093DF
:1035D0000504209195039091960380919703309173
:1035E0009403309300042093FF0320910D0422FFE5
:1035F00005C02091BE0392139093BE039091BF0328
:1036000089138093BF0388E0E8E9F3E0ACE2B4E01B
:1036100001900D928A95E1F71091A003112349F0D2
:1036200080914B06811105C00E94922580E00E9486
:10363000852510934B068091A103882319F00E94E1
:103640008D2002C00E94732080E08F292C96EFE02D
:103650000C945F2D1092CC038091B50290E044E071
:1036600050E0BE01675F7F4F89549D4F0E94E42D5B
:1036700021E020938103892B09F040CFE5CFF12C85
:10368000ACCE089580911504089563E070E00E9427
:103690009A21089560E270E00E949A210895CF93E4
:1036A000DF93EC0180917D01811105C068E070E03D
:1036B000CE01019603C069E070E0CE010E949A211C
:1036C00089E0FE01A6E1B4E001900D928A95E1F750
:1036D000DF91CF910895FC018281813021F4FB01BB
:1036E0008081918105C0823029F4FB018281938120
:1036F0000E9463280895FB01808191810E947D28AA
:103700000895CF93DF93FC012281223049F4FB011D
:10371000EC01828193810E947D288D8182608D835E
:10372000DF91CF9108951F920F920FB60F9211243F
:103730002F933F934F935F936F937F938F939F93B9
:10374000AF93BF93CF93DF93EF93FF93C091E900C3
:10375000CF708091EC00D82FD17080FDD0E810920E
:10376000E9008091F000877F8093F00078940E94B8
:10377000D8211092E9008091F00088608093F000D9
:10378000CD2BCF70C093E900FF91EF91DF91CF91E6
:10379000BF91AF919F918F917F916F915F914F9169
:1037A0003F912F910F900FBE0F901F901895E8ED4D
:1037B000F0E080818E7F80831092E2001092DA0028
:1037C0001092E100A0EEB0E08C9181608C9380813A
:1037D0008F77808319BCA7EDB0E08C918E7F8C939E
:1037E00080818F7E80831092130408952091E400DD
:1037F0003091E50095E64091EC00842F817040FF08
:1038000023C08091E80080FD1DC080912A04882398
:1038100099F0853099F08091EB0085FD11C04091C1
:10382000E4005091E5002417350729F3915011F079
:103830009A01E1CF84E0089582E0089583E008953D
:1038400081E0089580E008954091E80042FFDDCFD7
:1038500008958091220487FF11C08091E80082FDC5
:1038600005C080912A048111F8CF11C08091E80031
:103870008B770BC080912A04882349F08091E8005F
:1038800080FFF8CF8091E8008E778093E80008955C
:10389000982F973068F59093E900981739F0709158
:1038A000EC002091ED005091F00003C0242F762F02
:1038B00050E021FD02C09F5FECCF3091EB003E7FD6
:1038C0003093EB003091ED003D7F3093ED0030916F
:1038D000EB0031603093EB007093EC002093ED002F
:1038E0005093F0002091EE0027FDE5CF80E0089591
:1038F0008F708093E90081E00895A0E0B0E0E3E8F4
:10390000FCE10C944A2DC8EDD0E088818F7E88833D
:10391000E7EDF0E080818160808384E082BF81E018
:103920008093130488818E7F888302EE10E0F80173
:1039300010821092DA0081EEC82ED12CF60110828E
:1039400088818F77888388818068888388818F7D4C
:10395000888319BC10922A0410922104109220042A
:1039600010921F0490EEE92EF12CF70180818B7FDD
:10397000808388818160888342E060E080E00E94EB
:10398000481CF60180818E7F8083F80180818160F0
:103990008083808188608083F70180818E7F80832F
:1039A000888180618883CDB7DEB7E8E00C94662D0E
:1039B0001F920F920FB60F9211242F933F934F93A4
:1039C0005F936F937F938F939F93AF93BF93EF9387
:1039D000FF938091E10082FF09C08091E20082FFA5
:1039E00005C08091E1008B7F8093E1008091DA0037
:1039F00080FF2AC08091D80080FF26C08091DA0025
:103A00008E7F8093DA008091D90080FF18C080E11A
:103A100089BD82E189BD09B400FEFDCF81E08093BC
:103A20002A048091130481110FC00E94D71B0E94A9
:103A30007D1C8091E20084608093E20005C019BC87
:103A400010922A04109213048091E10080FF17C0A5
:103A50008091E20080FF13C08091E2008E7F80930E
:103A6000E2008091E20080618093E2008091D800C2
:103A700080628093D80019BC85E080932A048091ED
:103A8000E10084FF30C08091E20084FF2CC080E11F
:103A900089BD82E189BD09B400FEFDCF8091D800C7
:103AA0008F7D8093D8008091E1008F7E8093E1002C
:103AB0008091E2008F7E8093E2008091E20081603D
:103AC0008093E20080912104882311F084E007C0F4
:103AD0008091E30087FD02C081E001C083E0809314
:103AE0002A0480912A048091E10083FF27C08091FD
:103AF000E20083FF23C08091E100877F8093E10093
:103B000082E080932A04109221048091E1008E7F4C
:103B10008093E1008091E2008E7F8093E2008091AB
:103B2000E20080618093E20042E060E080E00E9479
:103B3000481C8091F00088608093F000FF91EF9125
:103B4000BF91AF919F918F917F916F915F914F91B5
:103B50003F912F910F900FBE0F901F9018952091BD
:103B60002804309129042617370748F0611571059C
:103B700039F42091E8002E772093E80001C0B901C4
:103B8000FC0120E06115710579F180912A048823F8
:103B9000F1F18530F1F18091E80083FD3CC0809126
:103BA000E80082FD2EC08091E80080FFEBCF2091DD
:103BB000F3008091F20090E0922B6115710551F0B5
:103BC0008830910538F421912093F10061507109FA
:103BD0000196F3CF21E0089709F020E08091E800FA
:103BE0008E778093E800CECF2111CFCF0AC080918D
:103BF0002A04882361F0853061F08091E80083FD1C
:103C00000AC08091E80082FFF2CF80E0089582E050
:103C1000089583E0089581E0089578941F920F92AB
:103C20000FB60F9211248F939F93AF93BF93809100
:103C30000F0490911004A0911104B0911204019608
:103C4000A11DB11D80930F0490931004A093110443
:103C5000B0931204BF91AF919F918F910F900FBEBF
:103C60000F901F901895CF92DF92EF92FF922FB78F
:103C7000F894C0900F04D0901004E0901104F090DC
:103C800012042FBFA7019601261B370B480B590BB7
:103C9000CA01B901FF90EF90DF90CF9008959C0189
:103CA0004FB7F89480910F0490911004A0911104E3
:103CB000B09112044FBF821B930B08952FB7F89455
:103CC00060910F047091100480911104909112047E
:103CD0002FBF08952FB7F89480910F04909110048E
:103CE000A0911104B09112042FBF08951F920F925A
:103CF0000FB60F9211248F939F93AF93BF93809130
:103D00000E04811113C080910F0490911004A091B2
:103D10001104B09112044196A11DB11D80930F04AE
:103D200090931004A0931104B0931204BF91AF912B
:103D30009F918F910F900FBE0F901F9018959091AB
:103D40007D01992321F090910C0497FD03C0EDECC7
:103D5000F3E01DC0E82FE695E695E695EE31E0F438
:103D6000F0E0EA52FC4F877021E030E0A90102C088
:103D7000440F551F8A95E2F7CA01809592818923E5
:103D800082830895319653E0E33DF50729F093814E
:103D90008913F8CF1382F6CF089590917D0199236E
:103DA000D9F090910C0497FF17C0E82FE695E6959F
:103DB000E695EE3148F5F0E0EA52FC4F877021E0DD
:103DC00030E0A90102C0440F551F8A95E2F7CA01ED
:103DD0009281892B82830895A0EDB3E0EFEF90E00C
:103DE0002D91821789F0EF3F19F4211101C0E92FBD
:103DF0009F5F9630A9F7EF3F39F00E2E000CFF0BB6
:103E0000E353FC4F838308950895A3E0B0E0EBE013
:103E1000FFE10C94502D20910A0430910B042817D7
:103E20003907A1F090930B0480930A04E0910804F1
:103E3000F0910904309751F024E029839B838A8311
:103E40000084F185E02DCE01019609952396E2E0EC
:103E50000C946C2DA3E0B0E0E0E3FFE10C94502D56
:103E6000209106043091070428173907A1F0909398
:103E7000070480930604E0910804F0910904309748
:103E800051F023E029839B838A830084F185E02D10
:103E9000CE01019609952396E2E00C946C2D809159
:103EA0000304811103C0809105040895E091080482
:103EB000F0910904309729F00190F081E02D0995E7
:103EC000089580E008954115510511F0FA01099512
:103ED0000895CF93DF93EC014A855B856E857F85DE
:103EE0000E94631F8B810E940D118C810E9414110E
:103EF0000E941B1186E0FE0111928A95E9F7DF917D
:103F0000CF910895CF93DF93EC018D8181FD17C090
:103F100082608D839091FF038B81892B8093FF03B7
:103F2000909100048C81892B809300040E941B11C6
:103F3000488559856E857F85CE010E94631F10924A
:103F40000204109201048D8180FD03C0CE010E9405
:103F5000691FDF91CF910895FF920F931F93CF9325
:103F6000DF93C42FD22FF02EFC0185818823B1F07E
:103F70004093FE030E946A1E9093FD038093FC030E
:103F800080E28C0F883008F06CC0C77081E001C0FF
:103F9000880FCA95EAF70E94B91463C08091FE03A6
:103FA000481353C08091FC039091FD030E944F1E63
:103FB000883C910508F049C0CD1729F180E28C0FAB
:103FC000883040F4C77081E001C0880FCA95EAF7D5
:103FD0000E94B21480E28D0F883048F481E09D2F5A
:103FE000977001C0880F9A95EAF70E94B914F9E317
:103FF000FF1619F000E010E002C000E510E08F2D80
:104000000E94ED1408C099E30913F4CF89E30E94DC
:10401000ED1400E510E00115110549F08FE99FE06E
:104020000197F1F700C0000001501109F4CF8F2D66
:104030000E94C31480E28D0F883098F4D77081E01D
:1040400001C0880FDA95EAF70AC080E28C0F883049
:1040500040F4C77081E001C0880FCA95EAF70E945A
:10406000B214CDB7DEB7E5E00C94692DCF93E82FFD
:1040700020913F0630914006295334404091360448
:10408000642F70E0C9010E942C2D481B842FEE2361
:1040900051F066E00E94D22DC82FC150A8F080E2F6
:1040A0000E94BA20FACFA901480F511D4115524074
:1040B00018F080E020E030E0280F311D275C3B4FF6
:1040C0003093400620933F06CF910895AB0124E63C
:1040D00030E0BC0188E70E94D62A21E0892B09F054
:1040E00020E0822F08958091FB039091FA038823AA
:1040F00089F0992369F062E070E083E394E00E9424
:104100006620811103C08091FA0308951092FA038A
:104110009091FA0381E0892708958091FB03882319
:10412000F9F00E945E1EDC01CB01805A9541AF4F31
:10413000BF4F8093F6039093F703A093F803B093D7
:10414000F9038091FA0381110BC062E070E081E312
:1041500094E00E946620882319F081E08093FA039E
:104160008091FA030895882311F0FA0101C0FB0140
:1041700009950895CF93DF93682F8A3011F481E079
:1041800003C08D3021F480E00E9436206FC0809102
:104190003F069091400626E0FC01A9E3B6E00190BD
:1041A0000D922A95E1F7603E30F026E0FC01119275
:1041B0002A95E9F70AC0F6E06F9FB0011124605C10
:1041C0007A4F46E050E00E94772DC0913F06D09193
:1041D000400646E050E0BE0189E396E00E94E42DEF
:1041E000892B49F19E0129533440A90185E0569558
:1041F00047958A95E1F781E090E0BC0102C0660F27
:10420000771F4A95E2F74091370450913804462BC6
:10421000572B2B5F3F4F65E0369527956A95E1F761
:1042200002C0880F991F2A95E2F7842B952B909353
:104230003804809337049E01235334404091360460
:10424000642F70E0C9010E942C2D481B463010F4E9
:10425000240F311D211582E0380710F020E030E0F6
:10426000275C3B4F3093400620933F06DF91CF9170
:104270000895CF93DF93EC01FE018491882321F010
:104280000E94BA202196F8CFDF91CF9108958091B6
:104290003404909135049C01267033272630310573
:1042A00011F4886001C0877F0E94251408959091C1
:1042B0002C049370A1F0811102C0946007C0833078
:1042C00010F0986003C0880F880F982B90932C04EF
:1042D00010927E0180912B04816080932B040895BD
:1042E000FC01AC014C5F5F4F8FEF91E3219182277E
:1042F00028E030E087FF03C0880F892701C0880FBE
:1043000021503109B9F7E417F50781F70895909125
:104310002C04937071F080932D0460932E04493720
:1043200008F048E740932F0480912B04816080932C
:104330002B0408950F931F93CF93DF938C01EB0110
:1043400080912A04843079F581E08093E9008FEF31
:104350009091E800815095FD06C095ED9A95F1F792
:1043600000008111F5CF8091E80085FF1CC00E94FC
:10437000F61B882361F08091E8008E778093E80037
:1043800012C0F80181918F018093F100219720974D
:1043900091F38091E80085FDF4CF8091E8008E775D
:1043A0008093E800E4CFDF91CF911F910F910895A2
:1043B000AAE2B0E0EEEDF1E20C944F2DE2E2F4E07F
:1043C0008AE294E02091F10021938E179F07D1F7A4
:1043D00080912304833009F461C030F4813071F09E
:1043E000823009F49BC0B2C08A3009F487C08B3098
:1043F00009F46CC0893009F0A9C020C08091220462
:10440000813A09F0A3C08091E800877F8093E8009B
:104410008091260490912704892B21F469E086E19C
:1044200094E003C060E080E090E070E00E94AF1D87
:104430008091E8008B778093E80088C08091220407
:10444000813209F083C08091260490912704892B42
:1044500009F07CC08091E800877F8093E80080911C
:10446000E80082FD05C080912A048111F8CF6EC05A
:104470002091F3008091F20090E0922B029731F4AA
:104480008091F100813011F0863021F48091F100AB
:10449000809315048091E8008B7754C080912204AA
:1044A000813A09F053C08091260490912704892B0A
:1044B00009F04CC08091E800877F8093E8008091EC
:1044C000E80080FFFCCF80917D0137C080912204FD
:1044D0008132E1F58091260490912704892BB1F572
:1044E0008091E800877F8093E8000E94291C8091DA
:1044F000240480937D010E947F1428C080912204AF
:10450000813221F58091E800877F8093E8000E9446
:10451000291C809125048093140418C080912204E2
:10452000813AA1F48091E800877F8093E800809130
:10453000E80080FFFCCF809114048093F10080910B
:10454000E8008E778093E8000E94291C8091E800A3
:1045500083FFB8C18091220490912304492F50E039
:104560004A30510508F0AEC1FA01E056FF4F0C94F5
:10457000DE2D803821F0823809F0A4C108C0809176
:104580001F0490912004992389F082600FC08091CC
:1045900026048F70873008F095C18093E9008091E0
:1045A000EB0085FB882780F91092E9009091E800E4
:1045B000977F9093E8008093F1001092F10053C12F
:1045C000282F2D7F09F07EC1882319F0823061F0F9
:1045D00079C180912404813009F074C1933009F0CD
:1045E00080E0809320042EC08091240481112AC091
:1045F000809126048F702FEF280F263008F062C1BB
:104600008093E9002091EB0020FF1CC0933021F43F
:104610008091EB00806214C09091EB0090619093C8
:10462000EB0021E030E0A90102C0440F551F8A953C
:10463000E2F74093EA001092EA008091EB00886074
:104640008093EB001092E9008091E800877F0EC113
:10465000811138C1109124041F778091E300807884
:10466000812B8093E3008091E800877F8093E800AE
:104670000E94291C8091E80080FFFCCF8091E3001C
:1046800080688093E300111102C082E001C083E0E2
:1046900080932A0417C18058823008F013C180919A
:1046A0002404909125048C3D53E0950779F583E02F
:1046B0008A838AE289834FB7F894DE01139620E05B
:1046C0003EE051E2E32FF0E050935700E49120FFE9
:1046D00003C0E295EF703F5FEF708E2F90E0EA30FD
:1046E00010F0C79601C0C0968D939D932F5F243123
:1046F00049F74FBF8091E800877F8093E8006AE226
:1047000070E0CE0101960E94AF1D9CC0409126042E
:1047100050912704292F332723303105A9F068F45D
:104720002130310509F4DDC02230310509F0CAC05D
:1047300082E290E0E8EEF4E032C02132310521F16E
:104740002232310529F1BEC0992781309105A1F0AF
:1047500058F0029709F0B6C0ECE1F5E0E4918E2F35
:1047600090E0ECE1F5E018C0ECE3F5E0E4918E2F89
:1047700090E0ECE3F5E010C0EAE2F5E0E4918E2F82
:1047800090E0EAE2F5E008C0452B09F4AFC09AC01A
:10479000452B09F4B0C096C0009709F493C020914E
:1047A000E800277F2093E800209128043091290415
:1047B0008217930708F49C0140E02115310589F127
:1047C00080912A04882309F43DC08530D9F1809175
:1047D000E80083FD37C08091E80082FD2FC0809102
:1047E000E80080FFEACF4091F3008091F20090E072
:1047F000942B2115310559F08830910540F44491EE
:104800004093F1003196215031090196F2CF41E0F9
:10481000089709F040E08091E8008E778093E800E7
:10482000CCCF4111CDCF0AC080912A04882351F00A
:10483000853041F08091E80083FD04C08091E8005C
:1048400082FFF2CF8091E8008B778093E8003AC036
:104850008038C1F58091E800877F8093E8008091DF
:1048600021048093F1008091E8008E778093E80026
:104870000E94291C27C0811125C080912404909199
:10488000250499270297F4F48091E800877F8093AC
:10489000E80010912404109321040E94291C112384
:1048A00059F084E080932A0442E261EC81E00E94A6
:1048B000481C80912A0406C08091E30087FDF1CF57
:1048C00081E0F0CF8091E80083FF1AC08091E8007A
:1048D000877F8093E8008091EB0080628093EB00FB
:1048E0000FC082E190E0EAE0F5E059CF89E090E086
:1048F000EAEFF4E054CF83EB90E0E5E3F4E04FCF50
:10490000AA96E3E00C946B2D30910404311105C09C
:104910008B31910524F14B9703C08B319105FCF449
:10492000FC01EE0FFF1FDF01A80FB91FA35BB94FFA
:1049300011963C911197361307C03C91341304C073
:1049400012963C91321759F031E030934C068E0F9D
:104950009F1FFC01E35BF94F61834083228308952D
:10496000539A10924C060895ECE2F4E024813AE068
:10497000231B08F420E0248380912B048160809322
:104980002B040895ECE2F4E024813AE0230F08F4CC
:104990002FEF248380912B04816080932B04089552
:1049A0009BE0899F802D1124980F973308F096E3A0
:1049B00020910404222321F09C3128F09BE10895EA
:1049C0008B3108F48BE1089580914C06882331F1F6
:1049D0008BB1877F9BB198602FB7F894EDE4F6E038
:1049E00036E0EF3EF30789F0319148E09BB90000D3
:1049F00000C037FF8BB9330F000000C000C000C0FB
:104A00008BB900C04A9591F7EBCF2FBF8FE594E0AB
:104A10000197F1F700C0000010924C060895ECE2F7
:104A2000F4E0438128E0421B08F440E08181628188
:104A300090E00E9487210895ECE2F4E0438128E0B1
:104A4000420F08F44FEF8181628190E00E9487213C
:104A50000895ECE2F4E0628128E0621B08F460E073
:104A60008181438190E00E9487210895ECE2F4E087
:104A7000628128E0620F08F46FEF8181438190E04A
:104A80000E9487210895ECE2F4E0818190E0438167
:104A9000628108970E9487210895ECE2F4E0818109
:104AA00090E04381628108960E9487210895809159
:104AB0002C0486958695815009F482E00E94572146
:104AC000089580912C04869586958F5F833008F039
:104AD00081E00E9457210895FF920F931F93CF9377
:104AE000DF93182F062FF42EC0E0D0E02F2D402F9B
:104AF000612FCE010E9476292196C633D105B1F7E8
:104B0000CDB7DEB7E5E00C94692D809380018091EC
:104B10002C04837080937F010E94E42483E08093BF
:104B20007E010895EF92FF920F931F93CF93DF932F
:104B3000C82F809180018C130DC020912C0423700C
:104B400030E040917F0150E081E02417350719F4EF
:104B500080E001C081E08170809383018091310405
:104B600090918201981739F08093820140E060E0D3
:104B700080E00E946C25C13089F5809181010E94FE
:104B8000D024192FD82F60912D0470912E0480917C
:104B90002F040E947929062FF72EE82ED11790F4C2
:104BA000ED2FF0E0DF01A059BD4F8C919091820173
:104BB000982331F02E2D402F6F2DCF010E947629A2
:104BC000DF5FECCF80910404882321F081E01B316A
:104BD00088F00FC081E0163368F00BC0C130F0F4EC
:104BE00080918301882329F040E060E080E00E940A
:104BF0006C2580E0909181019F5F909381018111EC
:104C00008DC082E080937E0180918301811186C0F6
:104C1000C11184C083E080937E0180C0C23009F05E
:104C200044C0809181010E94D024092F182F209127
:104C300030042695269531E0230F08F42FEF80915C
:104C400047069091480660E070E0829F612D929F38
:104C5000600D711D1124D62F1017C8F4E12EF12C10
:104C6000F701E059FD4F908180918201892369F01D
:104C700070912E046D2F80912F040E947929462F68
:104C8000282F672FC7010E9476291F5FE5CF8091EB
:104C90000404882329F081E00B3108F4ABCFA9CFBD
:104CA00081E0063308F4A6CFA4CFCF3F89F58091E9
:104CB000470690914806A0914906B0914A06882778
:104CC0009C70AA27BB272AE0B695A795979587954C
:104CD0002A95D1F782309105A105B10571F0833095
:104CE0009105A105B10569F040E00197A105B10565
:104CF00011F060E008C064E102C044E160E080E0DF
:104D000003C044E164E184E10E946C2582E083CF2A
:104D1000809181018F5F8093810173CFCDB7DEB722
:104D2000E6E00C94682DCF92DF92EF92FF92CF9342
:104D3000DF930E94DF1760934106709342068093D1
:104D400043069093440620914B06211108C0C09160
:104D50002C042C2F237019F0C695C69501C0C0E015
:104D600020917E012130B1F038F0223009F457C093
:104D7000233009F458C083C0109281016093470624
:104D8000709348068093490690934A0681E0809389
:104D90007E0175C08C2F0E949225CC2309F46FC030
:104DA0008091810181500E94D024F92EC82F0E9449
:104DB0004F1F81FF2AC0DC2FDF1538F58D2F90E0C3
:104DC000FC01E059FD4F208122FF05C020E04FEF9C
:104DD00060E00E947629DF5FEFCF209134043091AC
:104DE00035048091450690914606822B932B0E94B4
:104DF0007327823091F0833059F420E040E060E086
:104E00008C2F90E00E947629CF5FCF1530F337C00A
:104E10008130D1F720E04FEFF2CF2FEFEFCF8C2F83
:104E20000E9485252CC080912B04882351F048E0F6
:104E300050E067E170E08CE294E00E949E2D1092B9
:104E40002B04C0904706D0904806E0904906F090A9
:104E50004A0680910304882329F0C701B6010E9405
:104E6000331E06C00E94DF176C197D098E099F0949
:104E7000603171058105910510F010927E01DF917E
:104E8000CF91FF90EF90DF90CF9008959C013A95DD
:104E900021153F4130F5BC0166277270AC014427F3
:104EA00054709C012227387094FF0FC090FF02C0FD
:104EB00080E101C080E0672B09F08062452B09F09A
:104EC0008064232B79F080680895892F8170672B87
:104ED00009F08260452B09F08460232B19F088606B
:104EE000089580E00895292F33272115310519F001
:104EF000C90148E001C040E09C0164E03695279577
:104F00006A95E1F72115310511F04C5FC9019C014B
:104F100036952795369527952115310511F04E5F69
:104F2000C9019C0136952795232B09F04F5F842FEB
:104F30000895A6E0B0E0EFE9F7E20C944F2D26E0EB
:104F4000FC01DE01119601900D922A95E1F7FC011A
:104F5000258189819A81222359F0662349F00E9494
:104F6000D311182F682F89819A810E94F11303C0F1
:104F70000E94BE13182F69817A81812F0E94241903
:104F80002696E3E00C946B2DABE1B0E0EAECF7E29F
:104F90000C944F2D4E8B5F8B688F798F8A8F9B8FF0
:104FA00091111092FF03CE010F9627E0DC011D92B4
:104FB0002A95E9F726E0FE017696DC0101900D9234
:104FC0002A95E1F72B89222319F061E00E949927A5
:104FD00087E0FE013F96DE01189601900D928A95BA
:104FE000E1F7CE0108960E94371281112CC087E0AC
:104FF000FE013896DE01119601900D928A95E1F737
:105000006C85662301F12091120330E0C9010196FD
:105010008770992740914B0350E08417950761F101
:105020006D8397E0929FD001939FB00D1124AD5EE8
:10503000BC4FFE01319601900D929A95E1F7809355
:1050400012030E94701117E080914B03909112039C
:105050008917F9F0189FC00111248D5E9C4F0E94A2
:1050600037128823B1F080914B0390E0019687704E
:10507000992780934B03E8CF0E947F14109212036C
:1050800010924B03EBE0F3E087E0DF011D928A957D
:10509000E9F76B96E3E00C946B2D0E947F142FEFE1
:1050A00084E39CE0215080409040E1F700C0000084
:1050B0009AE088E10FB6F894A895809360000FBE3F
:1050C00090936000FFCFCF93DF93EC010E94C31455
:1050D000CE01805E9109089710F0209731F4CE013F
:1050E0000E9446270E94B21405C0CE010E944627A6
:1050F0000E94A114DF91CF910895CF93DF93EC012B
:10510000805E9109089710F0209731F4CE010E943B
:1051100046270E94B91405C0CE010E9446270E946E
:10512000A8148C2F0E94ED14DF91CF910895CF9396
:10513000DF9386E89AE00E94392180E89AE00E9495
:10514000392186ED9AE00E943921809134049091B2
:105150003504009779F083FF03C086EC9AE00CC019
:1051600081FF03C086EB9AE007C082FF03C086EA96
:105170009AE002C086E99AE00E94392186ED9AE021
:105180000E943921C091BE0380910004C82BDC2FFE
:10519000D878C474DD2349F08FEF9AE00E9439215A
:1051A000CC2361F08AEF9AE00CC08CEF9AE00E9469
:1051B0003921CC2359F086EF9AE003C088EF9AE0BA
:1051C00007C00E943921CC23A9F005C084EF9AE0E2
:1051D0000E9439210FC081EF9AE00E943921D1113C
:1051E00066C088EE9AE00E943921CC2381F084EEDB
:1051F0009AE063C08EEE9AE00E943921DD2389F3A4
:105200008BEE9AE00E94392186EE9AE002C082EE8F
:105210009AE00E9439218CED9AE00E943921C091D8
:10522000BE0380910004C82BDC2FD171C272DD2334
:1052300049F085E29BE00E943921CC2361F080E2B5
:105240009BE00CC082E29BE00E943921CC2359F004
:105250008CE19BE003C08EE19BE007C00E943921F6
:10526000CC23A9F005C08AE19BE00E9439210FC040
:1052700087E19BE00E943921D11124C08EE09BE0A0
:105280000E943921CC2381F08AE09BE021C084E197
:105290009BE00E943921DD2389F381E19BE00E949C
:1052A00039218CE09BE01DC088E09BE01AC08BEEAA
:1052B0009AE00E94392186EE9AE00E9439218FED12
:1052C0009AE0ABCF81E19BE00E9439218CE09BE02A
:1052D0000E94392185E09BE00E943921DF91CF9126
:1052E00008950E94392182E09BE0F6CF0E94842439
:1052F0000895A0E0B0E0EFE7F9E20C944A2DF62E15
:10530000472FE82FF0E0711106C0E85DF44F84915B
:10531000782F682F73C0272F30E0E85DF44FE491B9
:10532000FE2F0E2F10E056E0659FC0011124CFEF35
:10533000D0E0BE010E942C2D5BEA5603C001579FAE
:10534000900D11248F0D911D8F0D911D982F990F88
:10535000980F7E01E21AF30AE09ED001E19EB00DA3
:10536000F09EB00D11248B2F499FA0011124452FD1
:1053700055277E01E41AF50AE09EA001E19E500D3A
:10538000F09E500D11246E01C91AD108C29E700101
:10539000C39EF00CD29EF00C11242F2D3327C21B7C
:1053A000D30BC09F9001C19F300DD09F300D1124B1
:1053B000932F6230710591F048F461157105E1F0A9
:1053C00061307105B9F49E2FE52F16C06430710568
:1053D00069F040F06630710579F00CC09E2FEB2F1C
:1053E000832F0AC0EB2F8F2F952F06C09B2F8E2F58
:1053F000E32F02C09B2F852F7E2F692FCDB7DEB7FD
:10540000E8E00C94662DEF92FF920F931F93CF93D9
:10541000DF93182FEB011092BC0084EA8093BC004C
:105420000E946A1E7C018091BC0087FD0DC0CF3FA9
:105430008FEFD807C1F3C7010E944F1EC817D907C5
:1054400090F78EEF9FEF2DC08091B900887F883054
:1054500041F08091B900887F803119F08FEF9FEF84
:1054600020C01093BB0084E88093BC000E946A1E99
:105470008C018091BC0087FD0BC0CF3F8FEFD80718
:10548000C1F3C8010E944F1EC817D90790F7D9CFA2
:105490008091B900887F883111F08034F9F680E07E
:1054A00090E0CDB7DEB7E6E00C94682D1092B9001D
:1054B0008CE08093B80008950F931F93CF93DF93F0
:1054C000EB018093BB0084E88093BC000E946A1EBD
:1054D0008C018091BC0087FD0DC0CF3F8FEFD807B6
:1054E000C1F3C8010E944F1EC817D90790F78EEF6D
:1054F0009FEF0CC02091B900287F81E090E0283216
:1055000011F480E090E0919581959109DF91CF9120
:105510001F910F910895A0E0B0E0E1E9FAE20C9448
:10552000452D782EB62EA72E6A0189010E946A1E8B
:105530004C010431110558F00F3F8FEF180751F05F
:10554000C80164E170E00E942C2DEB0105C0C1E0B0
:10555000D0E002C0C5E0D0E0BE01872D0E94032A42
:105560007C0197FD05C0CB2DDA2DCC0EDD1E12C0BF
:105570000F3F8FEF180781F3C4010E944F1E0817D9
:10558000190750F7F0CFF7FC08C0B80189910E94C5
:105590005C2A7C01CC15DD05B1F784E98093BC0061
:1055A000C701CDB7DEB7EDE00C94612DA0E0B0E00F
:1055B000ECEDFAE20C94452D782EEB016A0189019D
:1055C0000E946A1E4C010431110558F00F3F8FEF05
:1055D000180759F0C80164E170E00E942C2D5B01AE
:1055E00007C0AA24A394B12C03C085E0A82EB12C37
:1055F000B501872D0E94032A7C0197FD03C0CC0EC4
:10560000DD1E14C00F3FEFEF1E0791F3C4010E948F
:105610004F1E0817190760F7F2CFF7FC0AC0FE010A
:105620008491B8010E945C2A7C012196CC15DD058D
:10563000A1F784E98093BC00C701CDB7DEB7EDE0E8
:105640000C94612DA0E0B0E0E8E2FBE20C94442D64
:10565000682E762E5A0169010E946A1E4C0104319F
:10566000110558F00F3F8FEF180751F0C80164E1A2
:1056700070E00E942C2DEB0105C0C1E0D0E002C01B
:10568000C5E0D0E0BE01862D0E94032A7C0197FF71
:105690000BC00F3F8FEF1807A9F3C4010E944F1EE4
:1056A0000817190778F713C0B801872D0E945C2AE4
:1056B0007C01E501CA0CDB1CCC15DD0541F0F7FCD3
:1056C00006C0B80189910E945C2A7C01F5CF84E96B
:1056D0008093BC00C701CDB7DEB7EEE00C94602D1F
:1056E0008EE14A9B02C08150E1F74A9BFECF0895AC
:1056F0005A9880E28A95F1F75A9A0895FC012AE0B7
:105700002A95F1F728E090E080E031E040E14A9509
:10571000F1F7880F4A9B02C08160932700C0000008
:1057200040E14A95F1F7215089F720E12A95F1F7F8
:1057300029B100C0000030E13A95F1F722FB2227A1
:1057400020F992272081920F90830895A1E0B0E084
:10575000ECEAFBE20C944C2D19828C017C01E60EE4
:10576000F11C0E151F0551F00E94702BCE01019601
:105770000E947E2BF80181938F01F3CF81E0998104
:10578000911180E02196E6E00C94682D529A5A9A85
:10579000089552985A9AEA9AE9E6F0E080818F7C5F
:1057A00080830895615091E001C0990F6A95EAF7EE
:1057B00020E031E0992361F0492F482319F05A9AEB
:1057C000232701C05A9840E24A95F1F79695F2CF07
:1057D000222311F05A9A01C05A9880E28A95F1F773
:1057E0005A980895FF920F931F93CF93DF93EC0184
:1057F0008C01060F111DC017D10741F0F9900E94CE
:10580000782B68E08F2D0E94D22BF5CFCDB7DEB775
:10581000E5E00C94692D1F920F920FB60F921124A0
:105820000F931F932F933F934F935F936F937F93A8
:105830008F939F93AF93BF93EF93FF93CF93DF9398
:105840001F92CDB7DEB719820E94702BCE01019650
:105850000E947E2B082F069506950695902F96950B
:105860009570202F2570920F292F2370969596956D
:10587000920F877089135FC0898181115CC00B30E2
:1058800008F059C080E18A95F1F75A9A529A82E05D
:105890008A95F1F700C05A9888E0089F800111248A
:1058A000D801A35DBE4F1696ED91FC9117973097E6
:1058B000A9F06091D2017091D30114962D913C9181
:1058C0001597260F371F11968D919C911297680F8F
:1058D000791F13964C9113978C910995F801E35D0C
:1058E000FE4F6381662351F08091D2019091D301E4
:1058F00024813581820F931F0E94F22B0E94782B06
:1059000080E18A95F1F75A9852985A9A80E18A95DF
:10591000F1F7F801E35DFE4F6081662351F080915D
:10592000D2019091D30121813281820F931F0E9475
:10593000A62B0E94702B0F90DF91CF91FF91EF91DA
:10594000BF91AF919F918F917F916F915F914F9197
:105950003F912F911F910F910F900FBE0F901F90AD
:1059600018950F931F93CF93DF938B3091050CF015
:105970006DC0EC01F894529A5A9885E08A95F1F737
:1059800000009C2F969595702C2F2570920F892FD3
:1059900083709695969523E0CC0FDD1F2A95E1F74D
:1059A000980F8E01092B0E94782B84E08A95F1F7DD
:1059B00000C068E0802F0E94D22B80E18A95F1F729
:1059C00052985A9A4A9902C000C0FCCF87E090E0F2
:1059D0004A9B08C0019721F4529A5A9A789436C08B
:1059E00000C0F6CFFE01E35DFE4F6381662381F0C8
:1059F0008091D2019091D30124813581820F931F30
:105A00000E94A62B811104C0529A5A9A78941FC002
:105A10000E94702B80E28A95F1F75A98529A80E1A1
:105A20008A95F1F7C35DDE4F6881662351F080915E
:105A3000D2019091D30129813A81820F931F0E9454
:105A4000F22B0E94782B789481E001C080E0DF91F6
:105A5000CF911F910F910895AA1BBB1B51E107C065
:105A6000AA1FBB1FA617B70710F0A61BB70B881FEE
:105A7000991F5A95A9F780959095BC01CD0108957D
:105A80002F923F924F925F926F927F928F929F924E
:105A9000AF92BF92CF92DF92EF92FF920F931F933C
:105AA000CF93DF93CDB7DEB7CA1BDB0B0FB6F894ED
:105AB000DEBF0FBECDBF09942A88398848885F842D
:105AC0006E847D848C849B84AA84B984C884DF809E
:105AD000EE80FD800C811B81AA81B981CE0FD11D82
