:100000000C9431050C944E050C944E050C948228EA
:100010000C944E050C944E050C944E050C944E0514
:100020000C944E050C944E050C9448250C942026F7
:100030000C9417170C944E050C944E050C944E0519
:100040000C944E050C944E050C944E050C944E05E4
:100050000C944E050C9424250C944E050C944E05DE
:100060000C944E050C944E050C944E050C944E05C4
:100070000C944E050C944E050C944E050C944E05B4
:100080000C944E050C944E050C944E050C944E05A4
:100090000C944E050C944E050C944E050C944E0594
:1000A0000C944E050C944E050C944E0500AF00AE1A
:1000B0000000000000003E5B4F5B3E003E6B4F6B5C
:1000C0003E001C3E7C3E1C00183C7E3C18001C5729
:1000D0007D571C001C5E7F5E1C0000183C18000051
:1000E000FFE7C3E7FF00001824180000FFE7DBE785
:1000F000FF0030483A060E00262979292600407F65
:1001000005050700407F05253F005A3CE73C5A00A3
:100110007F3E1C1C0800081C1C3E7F0014227F220E
:1001200014005F5F005F5F0006097F017F000066CB
:1001300089956A0060606060600094A2FFA29400EC
:1001400008047E04080010207E20100008082A1CE5
:100150000800081C2A0808001E10101010000C1EB1
:100160000C1E0C0030383E383000060E3E0E0600E5
:1001700000000000000000005F0000000007000712
:100180000000147F147F1400242A7F2A12002313F6
:10019000086462003649562050000008070300003A
:1001A000001C224100000041221C00002A1C7F1C70
:1001B0002A0008083E080800008070300000080887
:1001C0000808080000006060000020100804020019
:1001D0003E5149453E0000427F4000007249494976
:1001E00046002141494D33001814127F1000274565
:1001F000454539003C4A4949310041211109070070
:10020000364949493600464949291E000000140074
:1002100000000040340000000008142241001414C3
:1002200014141400004122140800020159090600A8
:100230003E415D594E007C1211127C007F494949B4
:1002400036003E41414122007F4141413E007F490D
:10025000494941007F09090901003E4141517300AC
:100260007F0808087F0000417F4100002040413F97
:1002700001007F08142241007F40404040007F027F
:100280001C027F007F0408107F003E4141413E0078
:100290007F09090906003E4151215E007F091929A5
:1002A000460026494949320003017F0103003F40CF
:1002B00040403F001F2040201F003F4038403F008B
:1002C0006314081463000304780403006159494D62
:1002D0004300007F4141410002040810200000411A
:1002E00041417F00040201020400404040404000C0
:1002F0000003070800002054547840007F2844443D
:100300003800384444442800384444287F00385496
:100310005454180000087E0902001824241C780098
:100320007F080404780000447D4000002040403DE8
:1003300000007F102844000000417F4000007C0442
:10034000780478007C080404780038444444380079
:100350007C1824241800182424187C007C08040429
:10036000080048545454240004043F4424003C40F2
:1003700040207C001C2040201C003C4030403C00C1
:100380004428102844004C9090907C004464544CC5
:1003900044000008364100000000770000000041E2
:1003A000360800000201020402003C2623263C001D
:1003B000000000000000000000000000000000003D
:1003C000C0E0F0F8F81800C0F0FCFEFFFFFFFFFFF0
:1003D000FFFF7E00000000000000000080C0E0E0A1
:1003E000E0E0E0E0E0E0C0800000000080C0E0E08D
:1003F000E0E0E0E0E0E0C080000000E0E0C0C0E05D
:10040000E0E0E00000E0E0C0C0E0E0E0E0E0C0806C
:100410000000000080C0E0E0E0E0E0E0E0E0C0805C
:100420000000000000000000000000000000E0F0FC
:10043000F0F0E0ECEEF7F37020007C7C7C7E007E38
:100440007E7E7F7F7F000080C0E07E5B4F5BFEC0D2
:100450000000C000DCD7DEDEDED7DC00C00000001C
:10046000000000000000000000000000000000008C
:10047000000000000000000000F8FCFEFFE000FFAC
:10048000FFFFFFFFFF80FFFFFFFFFFFFFFFFFF1FDB
:100490000701000000000000000000FFFFFF8100D6
:1004A000000000000081C3C3C30000FFFFFF810004
:1004B000000000000081FFFFFF0000FFFFFF0100C0
:1004C0000000000000FFFFFF010000000001FFFF2F
:1004D000FF0000FFFFFF9D1C1C1C1C1C1C9DDFDF80
:1004E000DF000000000000000000000000000F1FFF
:1004F0003F7F7F7F7F7F3F1E0C001F1F1F3F003FFE
:100500003F3F7F7F7F00307B7F7830202030787FB7
:100510003B0003000F7F0F0F0F7F0F000300000051
:1005200000000000000000000000000000000000CB
:10053000000000000000000000030F1F3F3F3F3F8E
:100540001F1F3F3F7F7F7F3F3F1F3F7F7F7F7F7C1E
:100550007878381C0F000000000000000103070736
:10056000070707070707030100000000010307074B
:100570000707070707070301000000070707000038
:100580000000000000070707000000000000070748
:100590000700000001030707070707070707030114
:1005A000000000000000000000000000000000004B
:1005B000000000000000000000000000000000003B
:1005C000000000000000000000000000000000002B
:1005D000000000000000000000000000000000001B
:1005E000000000000000000000000000000000000B
:1005F00005010980A101850319012AB7001501260B
:10060000B700950175108100C0050C0901A1018595
:100610000419012AA002150126A002950175108176
:1006200000C005010906A1018506050719E029E7B3
:10063000150025019508750181020507190029EFAC
:100640001500250195F0750181020508190129059C
:10065000950575019102950175039101C005010988
:1006600006A101050719E029E71500250195087580
:100670000181029501750881010507190029FF15FF
:100680000026FF0095067508810005081901290557
:1006900015002501950575019102950175039101DC
:1006A000C009023B00020100A0FA09040000010396
:1006B0000101000921110100012244000705810305
:1006C00008000109040100010300000009211101D3
:1006D0000001226D000705820320000112010002C3
:1006E00000000008534601000100010200010C0354
:1006F00043006F0072006E0065000000100366008A
:100700006F006F007300740061006E00000004034E
:1007100009040001010101010101010102020202BB
:10072000020202020203030303030303030404049B
:100730000404040405050505050606060606070764
:1007400007070708080808090909090A0A0A0B0B1C
:100750000B0C0C0C0D0D0D0E0E0E0F0F0F101011BB
:100760001111121213131414151516161717181841
:1007700019191A1A1B1B1C1D1D1E1E1F20202122A9
:1007800022232424252626272829292A2B2C2D2DEF
:100790002E2F30313232333435363738393A3B3C0C
:1007A0003D3E3F404142434445464748494A4C4DFF
:1007B0004E4F50515354555658595A5B5D5E5F61C8
:1007C0006264656668696B6C6D6F7072737577785B
:1007D0007A7B7D7E8082838587888A8C8E8F9193B9
:1007E0009596989A9C9EA0A2A3A5A7A9ABADAFB1E0
:1007F000B3B5B7BABCBEC0C2C4C6C9CBCDCFD1D4C5
:10080000D6D8DBDDDFE2E4E7E9EBEEF0F3F5F8FA6A
:10081000FDFF00DA0281FFD9F1DB20A4A62EAF0094
:10082000A0C0D30000A1C8D30000AED580A81F404F
:100830008D142000808182838485868788898A8BB5
:100840008C8D8E8F9091929394A0A1A2A3A4A5A623
:10085000A7A8A9AAABACADAEAFB0B1B2B3B4C0C19A
:10086000C2C3C4C5C6C7C8C9CACBCCCDCECFD0D1F0
:10087000D2D3D4003A002C206B007800556E64650A
:10088000660041646A757374005261697365004C57
:100890006F7765720044656661756C74004C6179B0
:1008A00065723A2000290014001A0009001300059F
:1008B000002B0004001500160017000A00E0001DC0
:1008C000001B0006000700190000000000000021C6
:1008D0005200572C002A0033001C0018000F000D96
:1008E00000340012000C00080011001000E2003873
:1008F00000370036000B000E00000000000000E38F
:100900000022522800400041004200430000000045
:10091000003D003E003F004400000000003A003B64
:10092000003C004500000000000000000000000145
:100930000000000000000027002600250024002EF3
:100940000000002E022300220021002D00000025BF
:100950000220001F001E002D020000000000000009
:10096000002352000035021E021F02200221022233
:100970000200000000000000002602270200000024
:1009800000000000002F02300200000000000023E1
:1009900052000000004C000000000031022402233D
:1009A0000235004F0052005100500000000000319D
:1009B00000000030002F00000000000000000000D8
:1009C0000001000000007C000000000000000000AA
:1009D0000020782378277829780000A9002178243E
:1009E0007828782A780000AA0000000000000001A2
:1009F00000000000004600000000000000000000B1
:100A00000000000000000000000000A8000000003E
:100A100000000000000000000000000000000000D6
:100A20000001000000202020206162636465666789
:100A300068696A6B6C6D6E6F7071727374757677BE
:100A400078797A3132333435363738393052454255
:100A5000545F2D3D5B5D5C233B27602C2E2F2020B7
:100A6000200011241FBECFEFDAE0DEBFCDBF12E0C1
:100A7000A0E0B1E0EEEAF5E502C005900D92A838DD
:100A8000B107D9F726E0A8E8B2E001C01D92A23C68
:100A9000B207E1F70E949F200C948D2A0C9400006D
:100AA0009C01FB019A9581159F4120F5832F817050
:100AB000B32FB270AA27732F74706627532F587004
:100AC000442734FF0DC08295807FAB2B09F08062F4
:100AD000672B09F08064452B09F08068099508951B
:100AE000AB2B09F08260672B09F08460452BB1F3D2
:100AF0008860F4CF80E0F2CF292F30E048E09111F8
:100B000002C09C0140E0C90164E0969587956A9512
:100B1000E1F7009711F04C5F9C01C901969587950C
:100B200096958795009711F04E5F9C01C9019695A7
:100B30008795840F089590937A0680937906089597
:100B400090937C0680937B06089521E030E002C0FC
:100B5000220F331F8A95E2F780917B0690917C06E5
:100B6000822B932B0E94A005089521E030E002C063
:100B7000220F331F8A95E2F72095309580917B06EE
:100B800090917C06822393230E94A00508959830BB
:100B900090F5863080F5E82FF0E086E0989FE00D34
:100BA000F11D11248E2F877041E001C0440F8A95FA
:100BB000EAF783E0F695E7958A95E1F7EE0FFF1FD8
:100BC000EE0FFF1FE55BF94F20E030E070E0519140
:100BD000DF01CB01022E02C0969587950A94E2F7B9
:100BE000817081958527842385278E932F5F3F4FC2
:100BF0002430310561F70895983078F5863068F52E
:100C0000E82FF0E086E0989FE00DF11D11249E2F63
:100C1000977083E0F695E7958A95E1F7EE0FFF1F51
:100C2000EE0FFF1FE55BF94F40E050E080E02191BF
:100C300030E0092E02C0369527950A94E2F721701C
:100C40003327042E01C0220F0A94EAF7822B4F5F4C
:100C50005F4F4430510559F7089580E00895809121
:100C6000820690918106981301C008958F5F877066
:100C7000FACF90917D068095892380937D06282F59
:100C8000277021110DC0891759F090917F0692FFAE
:100C900007C08695869586950E94B50510927D06BB
:100CA00008958091760690918006892B5091770661
:100CB000511591F090915501911521F090917E067A
:100CC00097FD0BC096E02CE832E040E0915048F4EC
:100CD000411110927706852B08959EE124E932E0B8
:100CE000F4CFF90161919F01611581F34F5FEECF60
:100CF000982F9095809176068923809376060895A3
:100D00007830B8F46630A8F48430B0F4E62FF0E020
:100D100096E0799FE00DF11D112490E3899FE00D8D
:100D2000F11D1124EE0FFF1FEB55F74F85919591A3
:100D3000089580E090E0089581E0FCCF9C01803E22
:100D4000910509F448C0D8F48133910509F47DC0B8
:100D500048F48932910509F46DC08A9709F47CC082
:100D6000C90108958933910551F18238910539F10E
:100D7000C597B1F780917E0685FFF2CF29C0843EEA
:100D8000910509F447C048F4823E910599F1833EEC
:100D90009105A9F121EE30E0E3CF863E910509F4FB
:100DA00044C0873E9105E1F680917E0683FD61C0D7
:100DB00090917F0691FF2BC024EE30E0D1CF80913F
:100DC0007E068370811152C080917F0683FFC8CF59
:100DD00029E230E0C5CF80917E0680FD33C090913E
:100DE0007F0690FFBDCF23EE30E084FFB9CF20E037
:100DF00030E0B6CF80917E0682FDF5CFB1CF8091F5
:100E00007E0682FD30C090917F0690FD2FC084FF4A
:100E1000A7CFEDCF80917F0681FFA2CF80917E0684
:100E200027EE30E084FDE3CF9BCF80917E0683FDEB
:100E3000F7CF96CF80917E0685FD1EC080917F06FC
:100E400083FF8ECF29E330E08BCF80917E0686FF33
:100E500087CF2AE230E084CF80917E0686FF80CF64
:100E600021E330E07DCF22EE30E07ACF20EE30E09B
:100E700077CF26EE30E074CF25E330E071CF90914C
:100E80007E0692FF10C041E0282F2471243009F023
:100E900040E031E0282F2871283009F030E0431776
:100EA00011F02CE0822793FF10C041E0282F24711D
:100EB000243109F040E031E0282F2871283109F071
:100EC00030E0431711F02CE0822730917F0630FF8D
:100ED00010C051E0282F2171213009F050E041E08D
:100EE000282F2871283009F040E0541711F029E02C
:100EF000822731FF10C041E0282F2171213109F0F4
:100F000040E031E0282F2871283109F030E0431704
:100F100011F029E0822794FD877E08951F93CF93D7
:100F2000DF930E949E06EC01811522E5920708F0EE
:100F300055C0811540E5940708F0D1C0803E910569
:100F400020F58D3C910508F0A4C0883A910570F415
:100F5000853A910508F09AC081309105D1F1049746
:100F6000813A9105B0F1C0E0D0E033C0885A9109D0
:100F70004B97C8F7C85AD0E0CC0FDD1FCF5ADD4FD2
:100F80000990D881C02DD46424C0811550E4950700
:100F9000C0F4C11580E2D80708F0B7C0C83ED1053B
:100FA000C0F0CE019A9581159F41E8F68D2F0E94E1
:100FB0003F07182FCE0199270E949E06EC01D12BE6
:100FC00008C099270E949E06CC27DF70C82BD92B1A
:100FD000D06ACE01DF91CF911F910895803842E50C
:100FE0009407C8F5803652E5950708F05BC0C03419
:100FF00082E5D807D0F4C03292E5D90708F04BC09B
:101000008C2F8695869520E2829FC0011124C370A3
:1010100021E030E0A90102C0440F551FCA95E2F754
:10102000EA01C82BD92BDD68D4CF8C2F8695869505
:10103000877050E2859FC0011124C37021E030E029
:10104000A90102C0440F551FCA95E2F7EA01C82B57
:10105000D92BDC68BECF803C52E5950758F48F71E0
:10106000C03AD245A0F590E0982F8827EC01C46FD4
:10107000D06AAFCF805C9245809708F074CFDC2FA8
:10108000CC27CC27DF71C06FD06AA3CFA497D064E0
:10109000A0CFD0659ECFCF71D0E0DC2FCC27C16F21
:1010A000D06A97CF86958695877020E2829FC0018F
:1010B0001124C37021E030E0A90102C0440F551F84
:1010C000CA95E2F7EA01C82BD92BDA6882CF0E94D1
:1010D0003F07C82FD0E0DC2FCC27D0627ACF8F71AA
:1010E0000E943F0793E0CC0FDD1F9A95E1F7CC27D4
:1010F000DF70282F30E084FF04C050E1859F90010D
:101100001124C22BD32BD06964CF8D2F8F710E94F5
:101110003F07182FCE0199270E949E06EC01D12B84
:10112000DCCFA0E0B0E0E7E9F8E00C94BA298C014C
:10113000E0907B06F0907C068091790690917A068B
:10114000E82AF92ACFE0D0E0CC24C394D12CC60100
:101150000C2E02C0880F991F0A94E2F78E219F215E
:10116000892B49F4219798F7B12C8B2DCDB7DEB799
:10117000E9E00C94D629BC2EB8018C2F0E94800681
:101180000E948E07019771F3F0CF0F931F93CF93B7
:10119000FC01858100811181811591F0611581F03B
:1011A000C8010E949108C82F682FC8010E94C70576
:1011B000B8018C2F0E948006CF911F910F91089546
:1011C000C8010E94FC05C82FF3CFCF93DF93D82F1F
:1011D000C92F0E9491086D2F7C2F0E9480060E94CB
:1011E0008E07DF91CF910895FC0184818115A1F0D4
:1011F000808191810E94E508282F92959F709630FA
:1012000099F060F4925F9F70923030F4203FB1F01B
:1012100038F481E0283E38F080E008959A5FF3CFFB
:1012200081E0243FC9F7089591E0213F09F090E063
:1012300081E0283E08F080E0892B089581E0089540
:1012400080E00895F894E82FE295EF70F0E041A176
:101250008F7021E030E0B90102C0660F771F8A95D8
:10126000E2F7CB01962F9095942391A392A1892B1D
:1012700082A378940895A0E0B0E0E1E4F9E00C9452
:10128000BC29372FE82FF0E0EE5EF84F71110AC04D
:10129000E4918E2F2E2F6E2F722FCDB7DEB7E7E0A1
:1012A0000C94D829062F10E0E72EF12CD4902D2D88
:1012B00086E0689FE0011124EFEFF0E0CE01BF016E
:1012C0000E949D29000F111F45E5469FC001479FC1
:1012D000900D1124081B190B402F440F400F8F0154
:1012E0000E191F09D09ED001D19EB00D11248B2F55
:1012F000349F80011124012F11277F01E01AF10A88
:101300008701D09E7001D19EF00C11248F01041B27
:101310001109A801349F8001359F100D1124012F60
:101320001127E01BF10BDE9EA001DF9E500D112462
:10133000E52F63307105C1F0CC3FD34058F46130E4
:101340007105B1F06230710509F0A5CFED2D2B2F9D
:10135000852FA1CF6430710571F06630710509F4F5
:101360009ACFEB2F8F2D97CF2B2F8D2DEF2D93CF46
:10137000ED2D2F2D90CFEB2F8D2D252F8CCF0E9473
:10138000E10A0895FF920F931F93CF93DF93182FD5
:10139000062FF42EC0E0D0E02F2D402F612FCE017C
:1013A0000E94BF092196C633D105B1F7CDB7DEB78C
:1013B000E5E00C94DA299BE0899F802D1124980F99
:1013C000973308F096E320911A06211104C08B315F
:1013D00028F48BE108959C3108F09BE10895A0E08A
:1013E000B0E0E5EFF9E00C94BC29182F80910801DA
:1013F00081132CC090916E0693702091070130E00C
:1014000081E09217130609F480E080930601809131
:10141000730690910501981739F08093050140E01B
:1014200060E080E00E94C209113091F0123009F4AE
:1014300055C0111109C080910601811529F040E0C5
:1014400060E080E00E94C20920E01FC081E0DDCFA3
:10145000809104010E94DB09C82F092F60916F065B
:1014600070917006809171060E943B09F62EE72E5E
:10147000D82ED0E00C1709F000F580911A0621E073
:10148000811509F462C00B31F8F6809104018F5F79
:101490008093040121110CC082E080936701809148
:1014A0000601811105C0111103C083E0809367011B
:1014B000CDB7DEB7E7E00C94D829FE01E95FFD4F18
:1014C0008081909105018923811531F02D2D4F2DBB
:1014D0006E2DCE010E94BF092196CCCF80910401D0
:1014E0000E94DB09092F209172062695269531E08E
:1014F000230F08F42FEF4091890350918A0360E095
:1015000070E0429F612D529F600D711D1124F62ED7
:10151000C82FD0E0C01708F0B0CFFE01E95FFD4F43
:101520008081909105018923811569F07091700681
:101530006F2D809171060E943B09462F672F282F3F
:10154000CE010E94BF092196E5CF06339DCFCF93F0
:10155000C82F811591F08091E20581110EC00E9483
:10156000EF091092080180916E0683708093070145
:101570000E94440E83E080936701C093E205CF91FF
:101580000895EEE6F6E024813AE0230F08F42FEF09
:10159000248380916D06816080936D060895EEE648
:1015A000F6E024813AE0231B08F420E024838091B4
:1015B0006D06816080936D060895539A109284039E
:1015C0000895CF93DF93DC0180911A06811120C02A
:1015D000AB31B10504F15B97FD01EE0FFF1FEF0189
:1015E000CA0FDB1FCE51DD4F8981861306C088816B
:1015F000841303C08A81821771F081E08093840391
:10160000EA0FFB1FEE51FD4F61834083228303C02D
:10161000AB31B1050CF3DF91CF910895FA0181153B
:1016200011F009950895FB01FCCFFA01309709F0FC
:101630000995089580911906811559F0E0914106A8
:10164000F0914206309729F00190F081E02D099544
:10165000089580E00895A3E0B0E0E1E3FBE00C949E
:10166000C1299C018091E0029091E10282179307C9
:10167000A1F03093E1022093E002E0914106F09165
:101680004206309751F083E089833B832A830084AC
:10169000F185E02DCE01019609952396E2E00C94A8
:1016A000DD29A3E0B0E0E7E5FBE00C94C1299C0153
:1016B0008091DE029091DF0282179307A1F03093B0
:1016C000DF022093DE02E0914106F091420630975E
:1016D00051F084E089833B832A830084F185E02DE7
:1016E000CE01019609952396E2E00C94DD299091B4
:1016F0005501911112C0ACE8B2E0EFEF90E02D91EE
:10170000821751F0EF3F19F4211101C0E92F9F5FBB
:101710009630A9F7EF3FC9F4089590917E0697FFA0
:10172000EACFE82FE695E695E695803FA8F7F0E04A
:10173000EE56FD4F877021E030E001C0220F8A9500
:10174000EAF78281822B828308950E2E000CFF0B14
:10175000E657FD4FF8CF90915501911521F09091EA
:101760007E0697FD0CC0ECE8F2E09191891302C06F
:10177000DF011E9252E0E239F507B9F70895E82F2C
:10178000E695E695E695803FC8F7F0E0EE56FD4F0A
:10179000877021E030E0A90102C0440F551F8A95EF
:1017A000E2F7CA01809592818923828308952FB739
:1017B000F8946091DA027091DB028091DC029091E2
:1017C000DD022FBF0895CF92DF92EF92FF928091BA
:1017D0001906811559F00E94D70B6B017C01C701D6
:1017E000B601FF90EF90DF90CF9008950E94D70B45
:1017F000C0901B06D0901C06E0901D06F0901E06BF
:10180000C60ED71EE81EF91EEACF0F931F938B0159
:101810009C014FB7F8946091DA027091DB028091DD
:10182000DC029091DD024FBF601B710B820B930BAA
:101830001F910F91089587E797E790930108809390
:10184000000888E19AE00FB6F894A89580936000AC
:101850000FBE90936000FFCF8091D9020895089544
:10186000FC019B018091CF029091D00286179707CF
:1018700040F0672B29F48091E8008E778093E80090
:10188000C90140E0009741F4411106C08091E80091
:1018900082FF2FC080E00895209199032115A9F1BE
:1018A0002530A9F12091E80023FD2DC02091E8000A
:1018B00022FDECCF2091E80020FFE4CF3091F3002F
:1018C0002091F200009719F02830310558F041E0DE
:1018D0002830310509F040E02091E8002E77209370
:1018E000E800D0CF41914093F10001972F5F3F4F27
:1018F000E9CF80919903811541F0853041F08091C5
:10190000E80083FFC3CF81E0089582E0089583E07B
:1019100008958091C90287FF13C08091E80082FF7B
:1019200006C08091E8008B778093E800089580914D
:1019300099038111F2CF0895809199038115D9F30C
:101940008091E80080FFF8CF8091E8008E77ECCF9F
:101950002091E4003091E50095E6A9012091EC008A
:10196000822F817020FF06C08091E80080FF06C0B2
:1019700080E008952091E80022FD1AC0809199032B
:10198000811589F0853089F08091EB0085FD0FC0CD
:101990002091E4003091E50042175307F9F29A953F
:1019A000E1F684E0089582E0089583E0089581E0FF
:1019B0000895E8EDF0E080818E7F80831092E20050
:1019C0001092DA001092E100A0EEB0E08C918160FC
:1019D0008C9380818F77808319BCA7EDB0E08C91C8
:1019E0008E7F8C9380818F7E80831092C8020895B1
:1019F00090916E069370911571F080936F066093CD
:101A00007006493708F048E74093710680916D06EB
:101A1000816080936D060895EEE6F6E0818190E0A6
:101A20004381628108960E94F80C0895EEE6F6E084
:101A30008181438162818850990B0E94F80C08953E
:101A4000EEE6F6E0628128E0620F08F46FEF818134
:101A5000438190E00E94F80C0895EEE6F6E0628182
:101A600028E0621B08F460E08181438190E00E94DD
:101A7000F80C0895EEE6F6E0438128E0420F08F402
:101A80004FEF8181628190E00E94F80C0895EEE6AC
:101A9000F6E0438128E0421B08F440E08181628146
:101AA00090E00E94F80C0895FC01AC014C5F5F4F80
:101AB0008FEF61E39191892728E030E0982F990F0B
:101AC00087FF09C0892F862721503040B9F7E417D6
:101AD000F50781F70895892FF7CF90916E069370DF
:101AE000911591F0833008F082E0880F880F909173
:101AF0006E069370892B80936E0610926701809119
:101B00006D06816080936D06089580916E068695BE
:101B100086958F5F833008F081E00E946D0D0895F7
:101B200080916E06869586958A9509F482E00E94DA
:101B30006D0D0895982F9093E900891771F07091B9
:101B4000EC002091ED005091F00021FD09C09F5F55
:101B5000973089F78093E9000895762F242F50E07D
:101B60003091EB003E7F3093EB003091ED003D7FF4
:101B70003093ED003091EB0031603093EB007093C7
:101B8000EC002093ED005093F0002091EE0027FD33
:101B9000DECF0895A0E0B0E0E0EDFDE00C94BB29BD
:101BA000C8EDD0E088818F7E8883E7EDF0E080810A
:101BB0008160808384E082BF81E08093C802888155
:101BC0008E7F888302EE10E0F80110821092DA0016
:101BD00081EEC82ED12CF601108288818F77888300
:101BE00088818068888388818F7D888319BC109262
:101BF00099031092C702109298031092C60290EEB9
:101C0000E92EF12CF70180818B7F808388818160B0
:101C1000888342E060E080E00E949A0DF6018081B6
:101C20008E7F8083F80180818160808380818860DD
:101C30008083F70180818E7F8083888180618883A3
:101C4000CDB7DEB7E8E00C94D729E09182069091F9
:101C5000810627E0E91302C080E00895AE2FB0E0CE
:101C60002E9FF0011124ED57F94F3181361306C034
:101C70003081381303C03581341304C0FD0131961F
:101C8000E770E8CF81E0089580918403811539F1F0
:101C90003BB1377F2BB128604FB7F89482EE92E0CA
:101CA000FC010196508168E02BB9000000C057FF8D
:101CB0003BB9550F000000C000C000C03BB900C0D8
:101CC0006A9591F753E08438950751F74FBF8FE538
:101CD00094E00197F1F700C000001092840308958A
:101CE0000F931F93CF93DF938B01EA019091990398
:101CF000943059F58093E9008FEF9091E80095FDBD
:101D000006C095ED9A95F1F700008A95B1F780919C
:101D1000E80085FF1AC00E94A80C811111C08091B3
:101D2000E80085FD06C08091E8008E778093E8008A
:101D3000F2CFF80181918F018093F100219779F71B
:101D40008091E8008E778093E800DF91CF911F911A
:101D50000F910895CF93DF93D82FC92F48E050E01B
:101D6000682F792F81E00E94700E88E0ED2FFC2F04
:101D7000A1EDB2E001900D928A95E1F7DF91CF914C
:101D80000895BC0140E250E082E00E94700E089588
:101D9000BC0143E050E082E00E94700E0895A0E094
:101DA000B0E0E5EDFEE00C94B929182F092FB62E0E
:101DB000A72E7A018091BC029AE0C92ED12C8A30DC
:101DC00018F0CC24C394D12CC1E0D0E06B2D7A2D37
:101DD000812F902FF7010995811116C02196CC16FD
:101DE000DD0694F0CC9FC001CD9F900D900D112485
:101DF00020E030E045E34A95F1F700002F5F3F4FC8
:101E000028173907B9F7E2CFCDB7DEB7EAE00C946F
:101E1000D52990917F0692FB222720F9281779F087
:101E200080FB92F990937F0660917E0670917F0609
:101E300084E090E00E94872A82E00E94390608959B
:101E400080915501811559F180917E0687FF27C049
:101E50000E9451068093930240E250E061E276E0F6
:101E600082E992E00E94252A892BC1F080E2E2E912
:101E7000F2E0A1E2B6E001900D928A95E1F7E091DF
:101E80004106F0914206309749F086E08093920235
:101E90000480F581E02D82E992E0099508950E9481
:101EA000510680938A0248E050E063E476E08AE8D5
:101EB00092E00E94252A892B89F388E0EAE8F2E083
:101EC000A3E4B6E001900D928A95E1F7E091410616
:101ED000F0914206309711F30280F381E02D8AE8F9
:101EE00092E0DBCF811539F090917606892B8093B3
:101EF00076060E94200F0895811539F09091800692
:101F0000892B809380060E94200F0895811521F06F
:101F10000E9478060E94200F0895811541F0809557
:101F2000909180068923809380060E94200F089557
:101F3000CF93C82F8115D9F08CEF8C0F813AA8F57B
:101F400080915501811521F080917E0687FD11C099
:101F5000ECE8F2E082E992E02191C21701F18E17DC
:101F60009F07D1F78C2F0E94770B0E94200FCF91F3
:101F70000895EC2FE695E695E695F0E0EE56FD4FD8
:101F8000828190E04C2F477021E030E002C0220FA8
:101F9000331F4A95E2F782239323892B19F38C2F61
:101FA0000E94AB0B0E94200FDDCF80E28C0F8830A7
:101FB00068F4C77081E090E001C0880FCA95EAF725
:101FC000C0917606C82BC0937606CFCF8BE58C0FD9
:101FD000833038F42C2F2452330BC9010E942B0B71
:101FE000C6CFC85ACB3118F6EC2FF0E0EE0FFF1F2A
:101FF000EF5AFD4F808191810E94510BB8CFCF9352
:10200000DF93EC01805E9109089720F06CE77FE098
:10201000209711F462E77FE0CE010E9450058C2FDB
:102020000E94980FDF91CF910895CF93DF93EC0139
:10203000FB018A81823039F4828193810E94FF0FF3
:102040008D8182608D83DF91CF910895FB01808126
:1020500091810E94FF0F0895811539F19CEF980F2F
:10206000913A28F40E94AB0B0E94200F089590E251
:10207000980F983050F4877091E001C0990F8A95BD
:10208000EAF7892F0E947806EFCF9BE5980F9330EF
:1020900028F480E090E00E942B0B0895885A8B3141
:1020A00020F480E090E00E94510B0895CF93DF93DD
:1020B000EC010E942C10CE01805E9109089720F05F
:1020C0006DE87FE0209711F466E87FE0CE010E9482
:1020D0005005DF91CF910895FB01DC0112968C91A0
:1020E000813029F4808191810E94561008958230B8
:1020F000E9F782819381F8CF10927606809155019D
:102100008115C1F080917E0687FF14C0E4E9F2E0FA
:102110008EE1DF011D928A95E9F780E090E00E9450
:102120002B0B80E090E00E94510B109280060E94E1
:10213000200F0895ECE8F2E086E0EBCF0E947C10DF
:102140002FEF84E39CE0215080409040E1F700C0F5
:10215000000088E19AE00FB6F894A895809360009B
:102160000FBE90936000FFCFAAE2B0E0EAEBF0E18F
:102170000C94C02989EC92E0FC0101962091F100B9
:10218000208322E0813D9207B9F78091CA0289300D
:1021900009F456C0C8F4823009F4B2C0833009F49F
:1021A00081C0813071F18091E80083FFE6C08091A9
:1021B000C9029091CA029A3008F0DFC0E92FF0E01E
:1021C000E157F54D0C94162A8A3009F488C08B30FB
:1021D00051F78091C902813231F78091CD029091FF
:1021E000CE02892B01F78091E800877F8093E80079
:1021F0000E94890C8091CB02809355010E947C1033
:10220000D2CF8091C902813A71F68091E800877F30
:102210008093E8008091CD029091CE02892B61F0ED
:1022200060E080E090E070E00E94300C8091E80077
:102230008B778093E800B7CF68E081ED92E0F3CF31
:102240008091C902813209F0AECF8091CD02909188
:10225000CE02029708F0A7CF8091E800877F809395
:10226000E8008091E80082FF18C09091F30080910F
:10227000F200029731F48091F100813011F0863044
:1022800021F48091F1008093D9028091E8008B774E
:102290008093E8000E94890C86CF80919903811178
:1022A000E0CF81CF8091C902813A09F07CCF809143
:1022B000CD029091CE02892B09F075CF8091E80074
:1022C000877F8093E8008091E80080FFFCCF8091B9
:1022D00055018093F1008091E8008E77D9CF8091ED
:1022E000C902813209F05FCF8091E800877F809337
:1022F000E8000E94890C8091CC028093C50253CFE4
:102300008091C902813A09F04ECF8091E800877F21
:102310008093E8008091E80080FFFCCF8091C502A7
:10232000D8CF803889F0823841F58091CD028F7006
:10233000873018F58093E9008091EB0085FB8827B2
:1023400080F91092E90006C080919803880F90915F
:10235000C602892B9091E800977F9093E8008093C4
:10236000F1001092F1008091E8008E7723C0811176
:1023700016C08091CB02813011F18091E80083FF7B
:102380000AC08091E800877F8093E8008091EB008D
:1023900080628093EB00AA96E3E00C94DC29823003
:1023A00061F78091CB02811589F01092E90080914C
:1023B000E800877F8093E8000E94890CDECF81E0EF
:1023C000933009F080E080939803EFCF8091CD02A5
:1023D0008F702FEF280F263080F68093E900209130
:1023E000EB0020FFE2CF933031F48091EB0080626C
:1023F0008093EB00DACF9091EB0090619093EB002B
:1024000021E030E0A90102C0440F551F8A95E2F790
:102410004093EA001092EA008091EB008860E8CFD8
:102420008111ABCF1091CB021F778091E3008078B0
:10243000812B8093E3008091E800877F8093E80000
:102440000E94890C8091E80080FFFCCF8091E3001E
:1024500080688093E30083E0111101C082E08093E3
:1024600099038BCF8058823008F087CF2091CB0220
:102470003091CC022C3D53E0350799F583E08A83F7
:102480008AE289834FB7F894DE01139620E03EE09C
:1024900051E2E32FF0E050935700849120FF03C0F6
:1024A00082958F703F5F8F708A30C8F0895C90E0B2
:1024B0008D939D932F5F243161F74FBF8091E8008A
:1024C000877F8093E8006AE270E0CE0101960E9467
:1024D000300C8091E8008B778093E8004ECF805DD0
:1024E000E6CF832F99278330910529F160F481305D
:1024F000910509F475C0029709F03FCF8BE390E096
:10250000E1EAF6E02CC02091CD023091CE0281327A
:10251000910509F459C0829709F02FCF2115310593
:1025200009F468C02130310509F027CF8DE690E02D
:10253000E0EFF5E014C0C90199272130A9F18230FC
:102540009105D1F1892B09F018CFEEE0F7E0E49185
:102550008E2F90E0EEE0F7E0009709F40ECF209187
:10256000E800277F2093E8002091CF023091D0022D
:102570008217930708F49C0140E02115310509F00A
:102580003EC041113CC08091E80082FDA2CF809105
:102590009903811509F49DCF853009F49ACF809174
:1025A000E80083FFF0CF95CFECEFF6E0E4918E2FBB
:1025B00090E0ECEFF6E0D0CFEEEEF6E0E4918E2F77
:1025C00090E0EEEEF6E0C8CF2115310571F0213034
:1025D000310509F0D2CE89E090E0ECECF6E0BFCF17
:1025E00082E190E0ECEDF6E0BACF89E090E0E3EB39
:1025F000F6E0B5CF84E490E0EDE5F6E0B0CF809171
:102600009903811509F465CF853009F462CF809173
:10261000E80083FD5ECF8091E80082FDB4CF809119
:10262000E80080FFAACF9091F3008091F20021157D
:10263000310519F08830910550F041E0089709F014
:1026400040E08091E8008E778093E80096CF449137
:102650004093F1003196215031090196E8CF80383E
:1026600009F08BCE8091E800877F8093E80080910D
:10267000C7028093F10077CE81117FCE1091CB02FB
:10268000123008F07ACE8091E800877F8093E800CE
:102690001093C7020E94890C111581F084E0809389
:1026A000990342E061EC81E00E949A0D42E261EC04
:1026B00082E00E949A0D809199035FCE8091E300A1
:1026C00087FDECCF81E0EBCFCF93DF93EC014A8520
:1026D0005B856E857F850E94150B9B81909580910F
:1026E00080068923809380068C810E9478060E9450
:1026F000200F86E0FE0111928A95E9F7DF91CF91D4
:102700000895CF93DF93EC018D8181FD17C0826026
:102710008D83809180069B81892B80938006809198
:1027200076069C81892B809376060E94200F48852F
:1027300059856E857F85CE010E94150B1092680623
:10274000109267068D8180FD03C0CE010E94641344
:10275000DF91CF910895A4E0B0E0E1EBF3E10C94B8
:10276000C0296091EF057091F0058091F10590917D
:10277000F2050E94050C11E0643671058105910592
:1027800078F10E94E30BDC01CB010296A11DB11D83
:1027900089839A83AB83BC83809136019091370102
:1027A00081509A4F20913501422F50E0253010F092
:1027B00044E050E0BE016F5F7F4F0E94322A83E009
:1027C00090E00E942929182F811551F00E94D70B03
:1027D0006093EF057093F0058093F1059093F205F7
:1027E000812F2496E3E00C94DC29A0E0B0E0EBEF2D
:1027F000F3E10C94B929C82F7B01A42EB22ED32F5C
:102800006801FB0160817181828193810E94050CC6
:10281000643671058105910510F4A11429F10C2F7E
:102820000C2E000C110B88E0C802F0011124E35EAD
:10283000FE4F8181928181509A4F2081422F50E03A
:10284000C216D10408F4A6016B2D7D2F0E94322AF6
:10285000C8010E942929811541F00E94D70BF70178
:10286000608371838283938381E0CDB7DEB7EAE032
:102870000C94D529A9E0B0E0E0E4F4E10C94BF2980
:1028800088E0EEE6F6E08E010F5F1F4FD801019061
:102890000D928A95E1F78091E205898749E050E041
:1028A00060E176E0C8010E94252A41E09801892B69
:1028B00009F440E009E010E063EE75E086E00E9474
:1028C000F5132996E4E00C94DB290F931F93CF9323
:1028D000DF93D82FC92F44E050E064E076E00E94F7
:1028E000252A41E0892B09F440E004E010E02D2F77
:1028F0003C2F63EF75E082E00E94F513DF91CF91EA
:102900001F910F9108950F931F9341E020910C06A2
:1029100030910D0680917B0690917C06281739072F
:1029200009F440E002E010E02BE736E06BEE75E0E2
:1029300084E00E94F5138115B1F041E020910E066C
:1029400030910F068091790690917A062817390701
:1029500009F440E002E010E029E736E067EE75E0B8
:1029600085E00E94F5131F910F910895EF92FF9259
:102970001F93CF93DF9300D000D00F92CDB7DEB777
:102980007B0180E090E00E942929182F811509F42D
:1029900060C080912001482F50E0811511F041E086
:1029A00050E0609121017091220161507A4FCE0177
:1029B00005960E94322A6091FB057091FC0580917A
:1029C000FD059091FE050E94050C64367105810598
:1029D000910538F480E096E00E94540D9D8189179E
:1029E000C1F181E090E00E942929811509F43FC0DE
:1029F00080912801482F50E0853010F044E050E0ED
:102A00006091290170912A0161507A4FCE0101969F
:102A10000E94322A80E096E00E94540D9D81891325
:102A200026C00E94D70B6093FB057093FC05809332
:102A3000FD059093FE0589819A81AB81BC818093CD
:102A4000F7059093F805A093F905B093FA0581E096
:102A50000FC08091000690910106A0910206B091EE
:102A6000030689839A83AB83BC831111E4CF80E092
:102A70004091F7055091F8056091F9057091FA05BC
:102A8000F70140835183628373830F900F900F90FF
:102A90000F900F90DF91CF911F91FF90EF900895CD
:102AA000A0E0B0E0E6E5F5E10C94B7290E94E30B65
:102AB00060938503709386038093870390938803C4
:102AC0002091E205C0E0211109C020916E06C22FBD
:102AD000C370C11519F0C22FC695C6952091670124
:102AE000223009F460C080F4211116C01092040154
:102AF0006093890370938A0380938B0390938C0374
:102B000081E08093670103C0233009F457C0CDB73B
:102B1000DEB7ECE00C94D3298C2F0E94EF09C1158D
:102B2000B1F38091040181500E94DB09C82FF92E76
:102B30000E941A0BD0E081FF04C08E01F01609F04C
:102B4000B8F4FC1621F318F320917B0630917C0633
:102B50008091790690917A06822B932B0E947C05B6
:102B60008230E1F0833099F08130D1F02196E9CFC5
:102B7000F801E95FFD4F808182FF06C020E04FEF42
:102B800060E0C8010E94BF090F5F1F4FD7CF20E050
:102B900040E060E0CE010E94BF09E8CF2FEFF8CF00
:102BA00020E04FEFF6CFC093080180916E0683704E
:102BB000809307010E94440E83E0A3CF80916D06AD
:102BC000811551F048E050E067E170E08EE696E054
:102BD0000E94592A10926D068090890390908A0372
:102BE000A0908B03B0908C0380911906811581F021
:102BF000C501B4010E94050C6B017C0180E1C8167F
:102C0000D104E104F10408F482CF109267017FCF70
:102C10000E94E30B6B017C01C818D908EA08FB0885
:102C2000EDCFAB0124E630E0BC0188E70E944527E8
:102C30009C0181E0232B09F080E008958091E0055C
:102C4000811569F08091DD05811549F062E070E041
:102C50008EEA90E00E94111681111092DD05089510
:102C60008091E0058115F9F00E94D70BDC01CB01C2
:102C7000805A9541AF4FBF4F8093D9059093DA05A5
:102C8000A093DB05B093DC058091DD0581110BC0BD
:102C900062E070E08CEA90E00E941116811519F054
:102CA00081E08093DD050895CF93DF93682F81E065
:102CB0006A3019F06D3031F480E00E94D416DF9153
:102CC000CF9108958091AB039091AC0326E0FC0175
:102CD000AFEBB2E001900D922A95E1F7603E08F467
:102CE00058C026E0FC0111922A95E9F7C091AB0388
:102CF000D091AC0346E050E0BE018FEB92E00E9421
:102D0000252A9E01255D3340892B41F1C90145E00B
:102D1000969587954A95E1F741E050E0BA0102C0E7
:102D2000660F771F8A95E2F7CB016091D705709106
:102D3000D805862B972BB9016B5F7F4FE5E0769521
:102D40006795EA95E1F702C0440F551F6A95E2F7CF
:102D5000842B952B9093D8058093D7052A5F3F4FFE
:102D60004091AD03642F70E0C9010E949D29481B6A
:102D7000463010F4240F311D211572E0370710F092
:102D800020E030E02B523C4F3093AC032093AB0358
:102D900096CFF6E06F9FB001112460557F4F46E05B
:102DA00050E00E941C2AA2CFCF93382FE091AB03B2
:102DB000F091AC03E55DF3402091AD03622F70E02C
:102DC000CF010E949D29281B822F311561F066E0FA
:102DD0000E94E829C82FC15010F4CF91089580E2D5
:102DE0000E945416F8CF8E0F9F2F911D811522E05F
:102DF000920710F080E090E08B529C4F9093AC03D0
:102E00008093AB03EACFCF93DF93EC01FE01849173
:102E1000811103C0DF91CF9108950E94541621962D
:102E2000F5CF0E94031781E00E94D41608951F92E7
:102E30001FB61F9211248F939F93AF93BF938091DE
:102E40009703811113C08091DA029091DB02A09167
:102E5000DC02B091DD024196A11DB11D8093DA0222
:102E60009093DB02A093DC02B093DD02BF91AF919F
:102E70009F918F911F901FBE1F9018952FB7F894A8
:102E80008091DA029091DB02A091DC02B091DD0228
:102E90002FBF08959C014FB7F8948091DA0290916A
:102EA000DB02A091DC02B091DD024FBF821B930BCD
:102EB0000895FF920F931F93CF93DF93C62FD42FC4
:102EC000122F8115A9F060936B060E943E17909314
:102ED000BE028093BD02C77081E001C0880FCA9511
:102EE000EAF70E94720FCDB7DEB7E5E00C94DA295D
:102EF00080916B06681333C08091BD029091BE0231
:102F00000E944A17883C910550F500E20D0FCD173D
:102F1000A9F0C770FF24F3948F2D01C0880FCA95C4
:102F2000EAF70E94860F083048F48D2F877001C0A1
:102F3000FF0C8A95EAF78F2D0E94720F812F0E9455
:102F4000980F812F0E942C10083068F6D77081E00E
:102F500001C0880FDA95EAF70E94860FC4CFC770C8
:102F600081E001C0880FCA95EAF7F6CFA0E0B0E093
:102F7000ECEBF7E10C94BB297C01FC018481811509
:102F800009F404C161E0C7010E94C508EC01F70122
:102F90008581811519F180916706909168060097E7
:102FA000E9F0C817D907D1F0992724E0880F991FB5
:102FB0002A95E1F7FC01E45AFE4F2081246020832A
:102FC000895A9E4FFC01D183C0830E9481131092C5
:102FD000800661E0C7010E94C508EC01F701858108
:102FE000811511F191819093660690819093650609
:102FF00090E290935601D0936406C09363069E01BD
:1030000030522115304208F06BC0F70196819031A3
:1030100008F447C0FE01FF27ED33F10528F4EB5D0E
:10302000F54FE491E09356019E013755211531404B
:1030300008F060C0FE01FF2794E0EE0FFF1F9A9595
:10304000E1F78F01095A1E4FE45AFE4F908180FB31
:1030500090F99083811509F468C00E943E179093FF
:103060006A0680936906F80182818F5F828380916E
:10307000800690917606892B8383809177068483DE
:103080004681578166857785C8010E94150BF80136
:10309000858181FD47C09C2F8D2F9093670680937B
:1030A0006806F7018581811509F458C410926B06F2
:1030B000CE019057839708F03AC484E090E00E94D4
:1030C000532A90937F0680937E06FE01E150F047DD
:1030D000E232F10508F076C0E756F54D0C94162A59
:1030E0009E0130542115304178F4F70196819031DA
:1030F00008F090CFFE01E851FC47E730F10588F673
:10310000E554F54D0C94162A9E013A9521153F4140
:1031100008F480CF9E01205A32452032310508F252
:10312000FE017ACF90E080E0B8CFF8014485558564
:1031300066857785C8010E94150BF801858181FF9E
:10314000B0CFC8010E946413809167069091680611
:10315000C817D90709F0A5CF109268061092670624
:10316000A0CF26E241EE61EE0E94591780917D06C4
:103170008770811559F0F7018581811539F08091AB
:103180007F0682FF03C082E00E943906CDB7DEB71A
:10319000E8E00C94D72927E245EE65EEE5CF26E27C
:1031A00041EE60EEE1CF27E245EE64EEDDCF26E2B0
:1031B00041EE62EED9CF27E245EE66EED5CF28E2AA
:1031C00041E0EBCF80917E06816080937E06609126
:1031D0007E0670917F0684E090E00E94872A0E941C
:1031E0007C10C4CF80917F06886080937F06EFCFEC
:1031F00080917E068260E9CF80917E068460E5CF73
:1032000080917E068860E1CF80917F068160EDCF5E
:1032100080917F068260E9CF80917E068061D5CF64
:1032200080917E068062D1CF80917E068064CDCF72
:103230000E947C1080917E068068C7CF80917E06B8
:103240008C60C3CF80917F068360CFCF80917E0654
:103250008E7FBBCF80917F06877FC7CF80917E0610
:103260008D7FB3CF80917E068B7FAFCF80917E061E
:10327000877FABCF80917F068E7FB7CF80917F060F
:103280008D7FB3CF80917E068F7E9FCF80917E060B
:103290008F7D9BCF80917E068F7B97CF0E947C1085
:1032A00080917E068F7791CF80917E06837F8DCF30
:1032B00080917F068C7F99CF80917E06992782FF2F
:1032C000939590FB82F990FB83F97FCF80917F06E5
:1032D000982F909590FB80F990FB81F986CF909183
:1032E0007E06892F8F7B96FF80646FCF0E947C10B3
:1032F00090917E06892F97FB87F9805866CF61E011
:103300008EE090E00E94692A62CF60E0F9CF909150
:103310007E06892F8F7E94FF806157CF90917E0625
:10332000892F8E7F90FF816050CF90917F06892FEB
:10333000877F93FF886059CF89E20BC389E219C365
:10334000CA35FCE7DF0709F056C081E0D6C080919E
:1033500076068272FE01E052F847E531F10508F089
:103360005AC0EE53F54D0C94162A80916E0691E0EA
:10337000892780936E061092670180916D068160A7
:1033800080936D06F3CE40E95DE065E87DE00E9444
:103390000E0BECCE45E85DE060E97DE0F8CF46E15C
:1033A0005DE06CE07DE0F3CF4CE05DE066E17DE068
:1033B000EECF4DE25DE060E27DE0E9CF40E25DE02E
:1033C0006DE27DE0E4CF47E45DE06AE37DE0DFCFDE
:1033D0004AE35DE067E47DE0DACF4FEC5AE061EC70
:1033E0007AE0D5CF41EC5AE06FEC7AE0D0CF81E0C3
:1033F0000E946D0DBBCE08F072C0C1303CE7D30710
:1034000009F491C0C3308CE7D80709F486C0C11510
:10341000DC4709F475C0F7018581008111818115B0
:1034200009F485C0C8010E949108C82F682FC801FF
:103430000E94C705B8018C2F0E9480060E948E074B
:10344000D82FC92FF701C580068102950F70809192
:103450007D068770811501F1DC2CC114F1F0892FF4
:10346000807F803461F080E28D0F8830A8F0892F52
:10347000807E803221F4D23078F0011569F080919D
:103480007F0682FF09C082E00E94390680917D0696
:103490008770DD24D3948111D12C8C2F82958F706D
:1034A000883009F436C108F066C0843008F044C0A2
:1034B0001C2F1F70823008F46FC0C07FC03211F023
:1034C0001295107FD11509F49DC0D13009F4E6C0E2
:1034D000C11409F4F0C0011509F4B2C072C0CB35B3
:1034E000ECE7DE0711F180917F06002482FF039450
:1034F000802DCC35DC4709F08ECF0E94090F8BCF91
:103500000E947C102FEF34E38CE02150304080404B
:10351000E1F700C000000E941B0C6FEF7FEF80E01E
:1035200090E00E94872A0E949E1080E0E6CFC801AA
:103530000E94FC05C82F7ECF843009F4CDC0D11481
:10354000A9F080917D0680FD11C0F7011582869556
:10355000869586950E94A505C7010E94B6178091A1
:103560007D068695869586950E94B50560E0C70123
:103570000E94C5080BCE893009F457C18A5F8F704D
:103580008230E8F6D23F09F061C18C2F8F71C110F3
:103590005AC10E94A505F2C0C03110F01295107FEB
:1035A000C114B9F0111569F080E28D0F883010F068
:1035B000D11109C080917606812B809376060E94F6
:1035C000200F8D2F2FC080918006812B8093800645
:1035D000F6CF8D2F0E942C10111509F4B0CF80E288
:1035E0008D0F883010F0D11104C0812F0E94780611
:1035F00006C01095809180068123809380060E94EA
:10360000200F9DCF80917F0682FD16C0C11469F006
:10361000111539F080917606812B809376060E94F1
:10362000200F80E00E94980F8ACF80E00E942C102B
:10363000111509F484CFD9CFC114A1F0011104C030
:10364000812F0E94720F7BCF013009F078CF8091DB
:103650007706912F9823191709F471CF812B809346
:1036600077066DCF01116BCF812F0E94860F90914D
:103670007706812F8923811529F0812F8095892351
:103680008093770680917806912F9823911509F4FD
:1036900056CF109518231093780651CFC11421F0FE
:1036A000063008F04CCFCCCF053008F048CF812F42
:1036B0000E94860F44CF0115D1F3D93349F4FFEFAF
:1036C00027EE33E0F15020403040E1F700C0000029
:1036D0008D2F0E942C1033CF8C2F8695869583706A
:1036E000811569F0813009F02ACF8D2F9C2F9370BE
:1036F000C11002C080E090E00E94510B20CF8D2FBE
:103700009C2F9370C11002C080E090E00E942B0BB0
:1037100016CF8C2F8370811142C0C1102FC04D2F46
:10372000429546954770440F440F2D2F2F7030E07F
:10373000042E02C0220F331F0A94E2F780E090E0CB
:10374000D4FF09C08FE090E002C0880F991F4A950E
:10375000E2F780959095C695C695C370C230B1F0DA
:10376000C33089F04091790650917A06C13049F012
:10377000822B932B842395230E949B050E941A0B76
:10378000DECE242B352B822B932BF6CF822B932B43
:103790002091790630917A0682279327EDCFC114C4
:1037A00091F1C0FFEBCF4D2F429546954770440FE6
:1037B000440F2D2F2F7030E0042E02C0220F331F34
:1037C0000A94E2F780E090E0D4FF09C08FE090E037
:1037D00002C0880F991F4A95E2F780959095C6958B
:1037E000C695C370C230C1F0C33099F040917B06DA
:1037F00050917C06C13059F0822B932B8423952362
:103800000E94A005BBCF823008F4B8CFCCCF242BC8
:10381000352B822B932BF4CF822B932B20917B067D
:1038200030917C0682279327EBCFCF70C11439F0FB
:103830008C2F0E94A5058D2F0E94720F9FCF8D2F78
:103840000E94860F8C2F0E94B50598CF70F4D03F50
:10385000C9F0D13F91F0C11409F455C0011509F424
:103860004FC08D2F0E94980F89CFD33F19F1D43FBD
:1038700091F790917F0692FD2BC08C2F8F71C11410
:1038800011F387CEC114A1F0053008F077CFCF71C6
:1038900081E090E0FC0102C0EE0FFF1FCA95E2F745
:1038A000EF0180917B0690917C068E279D27A8CF03
:1038B0000630EBCF80E090E0C11409F4A1CFCF71C6
:1038C00081E090E002C0880F991FCA95E2F798CF77
:1038D000C11461F08C2F8F7192FF5BCE982F990FDE
:1038E000990F990F936090937D0653CE81E00E94CB
:1038F0003906023008F442CF82E00E9439063ECFFA
:103900008C2F8F7146CE011579F0D93349F4FFEF32
:1039100027EE33E0F15020403040E1F700C00000D6
:103920008D2F0E942C102ACF8C2F8F718CCFC631F7
:10393000FCE7DF0709F004CD809176068A7A91E0F2
:10394000811101C090E090936C06811509F4F4CCCC
:1039500085E30E94770B0E94200F08CCC6312CE72C
:10396000D20709F0F4CC80916C06811509F4E6CCFD
:1039700085E30E94AB0BEFCF8091C106803178F4D4
:103980008091C006811559F0E09182062091810650
:103990003091BC064091BB0657E02E1301C008953C
:1039A0006E2F70E05E9FF0011124DF01AD57B94F1B
:1039B00014968C911497811561F111968C91119741
:1039C000831327C08C91841324C015968C9115976E
:1039D00081111FC012968D919C91A091BD06B0914E
:1039E000BE068A1B9B0B883C910598F48091C1060A
:1039F0008F7080618093C106E757F94F80818F7087
:103A0000806180838BEB96E00E94B6170E942F06A0
:103A10000895FB013196E770C0CFADE0B0E0E3E17F
:103A2000FDE10C94B6298C0186E0F801DE011896C0
:103A300001900D928A95E1F7F801F580C4808BEB37
:103A4000882E86E0982E7090BF06711020C0C11499
:103A5000D9F0F11409F41CC1C8010E94F4088115C1
:103A600009F416C187E0F801D40101900D928A95FE
:103A7000E1F7F1E0CF1206C08091BB069091BC0641
:103A80000E94E5080E94BC1CFF24F39454C0E0800F
:103A9000A280B380D090C0068091BD069091BE06F2
:103AA0009501281B390BD11409F4BAC0283C310503
:103AB00008F090C0C11441F39091BC06C180809180
:103AC000C106803108F058C0C91214C09091BB06DD
:103AD0009E1110C0F1104AC08F7080618093C106A2
:103AE0008BEB96E00E94B6178091C106F8018683A1
:103AF000F12C21C0F1103AC040E06C2D8E2D0E94B7
:103B0000250E40E06C2D8E2D0E94250EF82E811181
:103B1000EFCF888599850E94E508292F22952F707F
:103B2000903470F49F702230A0F09115B1F0F8013C
:103B30009681903190F48F2D2D96EDE00C94D22942
:103B40002A5F2F70223068F0C8010E94B617FD2C42
:103B5000F2CF911511F0811571F3805E883058F322
:103B6000F3CF803F40F3815F8330F9CF8091C1066E
:103B700081608093C106BCCFC91207C09091BB067B
:103B80009E1103C0F11409F46CC0C8010E94F4082E
:103B9000811509F47DC0F11409F47AC08091C10641
:103BA000803278F02091BB063091BC063A8329839D
:103BB000BC82AB827D821E828F83CE0101960E94E1
:103BC000B61787E0F801ABEBB6E001900D928A954D
:103BD000E1F758CF8091C106803150F48BEB96E02D
:103BE0000E94B61787E0F40111928A95E9F780CF19
:103BF000C11409F449CF2091BC0691812913C5CF86
:103C00009091BB069E11C1CFF110BFCF8683C80132
:103C10000E94B61787E0F40111928A95E9F734CF34
:103C2000283C3105F8F6C11409F42ECFF11481F1C6
:103C30009091BC068181981321C08091BB068E11A2
:103C40001DC08091C10680FD10C0803170F0868358
:103C5000807F803F39F08681982F907F905F8F70B2
:103C6000892B8683C8010E94B61787E0F801ABEB69
:103C7000B6E001900D928A95E1F706CFC8010E9447
:103C8000F40881119ECF8091C10681608093C106A6
:103C9000C8010E94B617F8CEABE1B0E0E2E5FEE164
:103CA0000C94BF294E8B5F8B688F798F8A8F192F69
:103CB0009B8F9111109280061D8A86E0FE017696F8
:103CC000DE011F9601900D928A95E1F70A8D01158C
:103CD00039F00B8B1C8B61E0CE010F960E94C5085A
:103CE0000B8B1C8B87E0FE013F96DE01189601903E
:103CF0000D928A95E1F7CE0108960E940D1D811163
:103D000028C0209181063091820687E0FE01389616
:103D1000DE01119601900D928A95E1F78C8581154F
:103D2000C1F0822F90E00196877099273817190605
:103D3000D9F097E0929FD0011124AD57B94FFE0101
:103D4000319601900D929A95E1F7809381060E9439
:103D50002F0617E08091820690918106891312C088
:103D60006B96E4E00C94DB290E947C101092810693
:103D70001092820687E0EBEBF6E0DF011D928A9558
:103D8000E9F7E7CF189FC00111248D57994F0E9482
:103D90000D1D811529F38091820690E001968770B0
:103DA000992780938206D6CFA6E0B0E0EAEDFEE147
:103DB0000C94BF290E943E178C0180911F069091A0
:103DC00020068017910779F019821A820E943E1707
:103DD000BC0149815A8180E090E00E944C1E109302
:103DE000200600931F062696E4E00C94DB29ACE045
:103DF000B0E0EDEFFEE10C94B429FE01319688E0CD
:103E0000DF011D928A95E9F78DE3E82E82E0F82E16
:103E10008F013F01AA24A394B12C27E4822E22E033
:103E2000922EF70181917F018F3F09F43EC0F894F3
:103E3000E82FE295EF70F0E021A18F70A50102C09C
:103E4000440F551F8A95E2F7CA01922F982B91A330
:103E500092A18095892382A3789400C0E1E4F2E0E6
:103E600031E0512C21912F3F79F0A22FA295AF7014
:103E7000A05EB0E08C9190E02F7002C09595879580
:103E80002A95E2F780FF92C080E0582A330F8E1601
:103E90009F0641F7F70182918F3F11F00E9422099E
:103EA00050EA5A95F1F7D8015C920F5F1F4FB1E4C9
:103EB000EB16B2E0FB0609F0B4CF48E050E0B301E6
:103EC0008DE893E00E94252A6C01892B41F088E05F
:103ED000F301ADE8B3E001900D928A95E1F700910E
:103EE000960310E006561C4FC114D10409F460C0BB
:103EF00081E08093BB020E943E179093BA028093A8
:103F0000B90280911906811509F4A9C07E01E9E082
:103F1000EE0EF11C84E0D7011D928A95E9F780919D
:103F2000BC028A3008F066C046EB54E1B701C80114
:103F30000E94CF0E811509F480C045E654E1B70117
:103F4000C8010E94CF0E811509F477C04BEA53E1F6
:103F5000B701C8010E94CF0E811509F46EC043E875
:103F600054E1B701C8010E94CF0E811509F465C064
:103F70004AE354E1B701C8010E94CF0E811509F44C
:103F80005CC01092BC028091950390E044E050E048
:103F9000B70186569C4F0E94252A21E02093B80243
:103FA000892BE9F52C96EFE00C94D029832F6DCF67
:103FB0008091BB02811509F4A4CF8091B902909140
:103FC000BA020E944A17059708F49BCF44E050E0DC
:103FD0006DE873E0C8010E94252A892B41F084E036
:103FE000EDE8F3E0D80101900D928A95E1F7109287
:103FF000BB0287CF8091B6029091B7020E944A1708
:10400000843F914008F090CF8091B802811551F221
:1040100084E0F70111928A95E9F71092B802E091D5
:104020009503F0E0E656FC4F89859A85AB85BC8503
:1040300080839183A283B383B5CF8091BC028F3FED
:1040400039F40E943E179093B7028093B602DCCFFA
:104050008F5F8093BC028A3008F495CFF2CFE09056
:104060009503F12CA70146565C4F7A01F801808137
:104070009181A281B3818093000690930106A09361
:104080000206B093030680E096E00E94540D8093F0
:10409000FF058091040690910506A0910606B09157
:1040A0000706F70180839183A283B383C09008063B
:1040B000D0900906E0900A06F0900B068091B202BB
:1040C0009091B302A091B402B091B502C816D9067E
:1040D000EA06FB06B1F0C092B202D092B302E092BF
:1040E000B402F092B5020E94D70BC61AD70AE80AAA
:1040F000F90AC0921B06D0921C06E0921D06F092AF
:104100001E0680910C0690910D0690937C0680937C
:104110007B0680910E0690910F0690937A0680930D
:10412000790688E0E0E1F6E0AEE6B6E001900D92B7
:104130008A95E1F7809118060E94A70A33CFCDB780
:10414000DEB72A970FB6F894DEBF0FBECDBF85B796
:10415000806885BF85B7806885BF84B7877F84BF47
:104160000FB6F894A89580916000886180936000F4
:10417000109260000FBE80E890E00FB6F894809334
:104180006100909361000FBE80E299E090938902F4
:10419000809388020E94D90C0E94CA0D8091E2008F
:1041A00084608093E200789480919903811599F05E
:1041B0008091E9001091EC008F70179511271795E9
:1041C000182B1092E9008091E80083FD0E94B41042
:1041D0001F701093E90082E084BD93E095BD9AEFD3
:1041E00097BD80936E0010921B0610921C061092D1
:1041F0001D0610921E068091D80080618093D80021
:104200002AE12A95F1F700C08091D900182F11708A
:1042100080FD04C00E94D90C1092990310931906D6
:1042200010931A061093090111110E943B288091E6
:1042300009018091090191E08927880F880F8093F7
:10424000960394E0981B9093950384E90E942209B9
:1042500086E60E94220987E90E94220986EC0E94D4
:10426000220901E412E0E7E4EE2EE2E0FE2ED8019E
:104270008D918D018F3F11F00E942209E016F10609
:10428000B1F788E0EAE9F3E0DF01282F1D922A95D3
:10429000E9F7EDE8F3E0DF011D928A95E9F780E0A8
:1042A00090E00E94532A853E9E4F09F461C065EE5E
:1042B0007EEF80E090E00E94872A60E082E090E05C
:1042C0000E94692A81E090E090937A0680937906B3
:1042D00061E083E090E00E94692A60E074E184E09C
:1042E00090E00E94872A60E086E090E00E94692AC0
:1042F00060E087E090E00E94692A40E050E0BA0167
:1043000088E090E00E947B2A60E083E290E00E94D7
:10431000692A60E08CE090E00E94692A60E08DE00C
:1043200090E00E94692A19821A821B821C821D82D7
:104330001E821F82188648E050E067E170E0CE01DF
:1043400001960E94592A40E050E0BA018FE190E0C6
:104350000E947B2A40E050E0BA018FE090E00E948A
:104360007B2A40E050E0BA0183E190E00E947B2A82
:1043700082E090E00E944B2A8093A20384E090E0C8
:104380000E94532A90937F0680937E060E94F71E18
:10439000EFEFF6E721E0E150F0402040E1F700C008
:1043A00000000E94F71EE0911A0611E0E127EE0FCF
:1043B000EE0FF0E0E656FC4F808181FF08C06FEF02
:1043C0007FEF80E090E00E94872A0E941B0C83E030
:1043D00090E00E944B2A90E00E949B050E94DD0A1B
:1043E00010936D0648E050E067E170E08EE696E0DD
:1043F0000E943B2A10926D0680916E068430F8F47C
:1044000085E080936E068091680190916901A0918A
:104410006A0180936F0690937006A09371068FE7F0
:10442000809372068FEF8093730648E050E067E157
:1044300070E08EE696E00E94592A10926D068091F7
:10444000190691E08927880F8093D50580E880932D
:10445000AD030E94C0266BE070E089E298E00E9404
:104460001116811509F43FC08091D50565E070E013
:1044700081FDA9C084E298E00E941116811599F18E
:104480006DE070E082E198E00E941116811559F10B
:104490000E94D70BDC01CB01805A9541AF4FBF4F33
:1044A0008093D9059093DA05A093DB05B093DC05E2
:1044B000E5EDF3E080E092E0DF019C011D922150E8
:1044C0003040E1F7F093AC03E093AB038FEF9FEF45
:1044D0009093D8058093D70581E08093E005809381
:1044E000DD051092D60580911906811102C00E9447
:1044F0003E288AE091E090934206809341067AE05C
:10450000872E912CA12CB12C80919903853061F4D8
:1045100080919903853009F459C00E947C100E9453
:104520001A0B80E00E94A70A0E94F71E03EA13E01C
:104530006AE9E62E63E0F62ED701F80191918D919C
:104540002BEA33E02E173F0709F498C09817B1F310
:1045500040901906D12CD701CD907D01F8015190E2
:104560008F015C1439F15C24712C66246394862DD0
:1045700085218115C1F04114B1F07982DA820E945F
:104580003E179C838B83F1E0FD8391E0862D8C2187
:10459000811101C090E09E8349815A816B817C81A9
:1045A0008D810E944C1E7394660C26E07212DFCF40
:1045B000F801C292D39438E0D312CDCF0E94E30B1E
:1045C000FF24F39460C08FE198E056CF8091990367
:1045D000843059F10E94501581E00E94A70A0E9480
:1045E0001E161092970388E190E0A0E40FB6F894AD
:1045F000A895809360000FBEA093600083B7817F71
:10460000846083BF83B7816083BF7894889583B7C4
:104610008E7F83BF0FB6F894A89580916000886163
:1046200080936000109260000FBE80919803811506
:1046300009F46ECF0E94F71EEAE9F3E0819181113F
:1046400005C0B3E0E23AFB07C9F762CF80E189BD5C
:1046500082E189BD09B400FEFDCF8091D8008F7D35
:104660008093D8008091E00082608093E000809188
:10467000E00081FDFCCF0E947C104ACF981368CFE8
:104680000E94D41EF12C80911906811509F1009128
:1046900067061091680601151105D1F08091690631
:1046A00090916A060E944A17893C910588F0C801DA
:1046B000992754E0880F991F5A95E1F7FC01E45AB5
:1046C000FE4F208122FD04C0895A9E4F0E94811313
:1046D0000E9450158091E005811509F48CC08091ED
:1046E000DE059091DF050E944A17C29708F463C067
:1046F0000E943E179093DF058093DE0585ED93E0E1
:104700009093AC038093AB0380911906811509F453
:10471000C2C08DE998E00E94031780917B069091BA
:104720007C060E947C05823009F47CC008F072C0CF
:10473000811175C085E998E00E9411178091660685
:10474000805D0E9454168AE798E00E9403178091CA
:104750006506805D0E94541686E798E00E94031764
:104760004090630650906406809114019091150169
:104770004816590609F05CC08091B403803209F0F4
:1047800057C0EEEAF3E08F0181918032E1F3F80146
:1047900001900020E9F79F012150310969010C15B2
:1047A0001D0508F472C084E798E00E940317809109
:1047B00056010E9454168091D7059091D805892BF7
:1047C00009F06EC08091DD058115A9F00E94D70B1C
:1047D0000091D9051091DA052091DB053091DC05B7
:1047E000601B710B820B930B6F3F7F4F8F4F9F4767
:1047F00010F40E941E16F1100E9430160E941A0B2F
:104800009091E105891709F47FCE8093E1050E941C
:10481000D70B7ACE833049F08CE798E08DCF8FE8C4
:1048200098E08ACF89E898E087CF82E898E084CF43
:10483000509215014092140180E28093B403612CE0
:10484000712C1092B30343EBC42E43E0D42E00E04E
:1048500010E0C301B201A50194010E94F429605D3A
:10486000603341F40115110529F0452846284728F1
:1048700009F460E2D6016E936D0129013A010F5FE0
:104880001F4F0530110529F77CCFD8018D918D017F
:104890000E94541684CF84E398E00E9403178BCFC4
:1048A0008091E005811509F48DCF8091D6058111A5
:1048B00089CF0E9430162091D7053091D805211557
:1048C000310509F47FCF10E041E050E0812F90E006
:1048D0002A01012E02C0440C551C0A94E2F7B201D1
:1048E00062237323672B11F41F5FF0CF2091D5054E
:1048F00020FF97C0912F990F990F990F37E0390F2B
:1049000080E023E09093180180931B0130931901FC
:1049100020931C0124E630E047E050E066E171E0BE
:1049200088E70E94F626892B09F04CCFB0E21B9F46
:10493000A00111248091D50580FF7FC0E5EBF3E055
:1049400080E2DF011D928A95E9F7EBE4F2E0FA8755
:10495000E98767E472E0E985FA85A191FA87E9873A
:10496000FB018191BF01840F952F911D9C012B525A
:104970003C4F1901EA2FF0E0EB54FC4F80E090E04F
:1049800027E0622E681AEE24E394082E01C0EE0C94
:104990000A94EAF7610100E0D6011D916D011E2124
:1049A000262D201B277030E0B12F022E01C0BB0F37
:1049B0000A94EAF73195219531092770332701C010
:1049C00016952A95EAF71B2B2081212B20830F5F58
:1049D000083011F7019631968830910589F6EFE499
:1049E000F2E029853A85E217F30709F0B4CF04E62F
:1049F00010E020E230E045EB53E060E488E70E94FD
:104A00009027892B09F0DECE409450948091D705F1
:104A10009091D805842195219093D8058093D7054E
:104A2000D1CE9695879596958795282F912F92951B
:104A3000990F90763FE1390F65CF4B525C4F04E6FA
:104A400010E020E230E0D9CF78941F921FB61F9279
:104A500011248F939F93AF93BF938091DA0290912B
:104A6000DB02A091DC02B091DD020196A11DB11D17
:104A70008093DA029093DB02A093DC02B093DD0214
:104A8000BF91AF919F918F911F901FBE1F9018955E
:104A90001F920F920FB60F9211242F933F934F93B3
:104AA0005F936F937F938F939F93AF93BF93EF9396
:104AB000FF938091E10082FF09C08091E20082FFB4
:104AC00005C08091E1008B7F8093E1008091DA0046
:104AD00080FF24C08091D80080FF20C08091DA0040
:104AE0008E7F8093DA008091D90080FF9BC080E1A7
:104AF00089BD82E189BD09B400FEFDCF81E08093CC
:104B000099038091C802811109C00E94D90C0E94AA
:104B1000CA0D8091E20084608093E2008091E10000
:104B200080FF17C08091E20080FF13C08091E200F7
:104B30008E7F8093E2008091E20080618093E200AA
:104B40008091D80080628093D80019BC85E0809362
:104B500099038091E10084FF29C08091E20084FFE5
:104B600025C080E189BD82E189BD09B400FEFDCF89
:104B70008091D8008F7D8093D8008091E1008F7E56
:104B80008093E1008091E2008F7E8093E20080912B
:104B9000E20081608093E2008091C702811509F4F0
:104BA00047C084E080939903809199038091E1004C
:104BB00083FF27C08091E20083FF23C08091E10042
:104BC000877F8093E10082E0809399031092C7026F
:104BD0008091E1008E7F8093E1008091E2008E7FE2
:104BE0008093E2008091E20080618093E20042E0E5
:104BF00060E080E00E949A0D8091F00088608093D0
:104C0000F000FF91EF91BF91AF919F918F917F91B4
:104C10006F915F914F913F912F910F900FBE0F9029
:104C20001F90189519BC109299031092C80276CF64
:104C30008091E30087FF02C083E0B4CF81E0B2CF70
:104C40001F920F920FB60F921124EF92FF920F93C3
:104C50001F932F933F934F935F936F937F938F9304
:104C60009F93AF93BF93CF93EF93FF9309EE10E021
:104C7000F8018081C091EC008F70C795CC27C79553
:104C8000C82B108280EFE82EF12CF7018081877FFE
:104C9000808378940E94B410F8011082F70180811B
:104CA00088608083CF70F801C083FF91EF91CF912E
:104CB000BF91AF919F918F917F916F915F914F9134
:104CC0003F912F911F910F91FF90EF900F900FBE8A
:104CD0000F901F901895FF920F931F93CF93DF9320
:104CE000182FEB011092BC0084EA8093BC000E9454
:104CF0003E17082FF92E8091BC0087FF28C08091B5
:104D0000B900887F883029F08091B900887F803190
:104D1000A1F51093BB0084E88093BC000E943E176D
:104D2000182F092F8091BC0087FF1FC02091B90068
:104D3000287F80E090E0283199F081E090E02034F5
:104D400011F480E090E091958195910909C0802F40
:104D50009F2D0E944A17C817D90768F68EEF9FEF5C
:104D6000CDB7DEB7E5E00C94DA29812F902F0E94B1
:104D70004A17C817D907B0F6F1CF8FEF9FEFF0CFE2
:104D80001092B9008CE08093B80008950F931F93A0
:104D9000CF93DF93EB018093BB0084E88093BC004A
:104DA0000E943E17182F092F8091BC0087FF11C069
:104DB0002091B900287F81E090E0283211F480E052
:104DC00090E0919581959109DF91CF911F910F917D
:104DD0000895CF3FDC0741F3812F902F0E944A179F
:104DE000C817D90708F78EEF9FEFEECFA0E0B0E02D
:104DF000ECEFF6E20C94B629782EB62EA72E6A01B7
:104E0000E9010E943E174C01C431D10528F1CF3F82
:104E1000DC0731F1CE0164E170E00E949D29F62E9D
:104E2000E72E6F2D7E2D872D0E946B268C01892BFE
:104E3000D1F4EB2CFA2CCE0CDF1CEC14FD0419F091
:104E400001151105D1F084E98093BC00C801CDB7EC
:104E5000DEB7EDE00C94D229FF24F394E12CE1CFEE
:104E600085E0F82EFBCFCF3FDC07D9F2C4010E94CA
:104E70004A17C817D907A8F6DCCFBE01F701819100
:104E80007F010E94C6268C01D8CFA0E0B0E0EBE401
:104E9000F7E20C94B629782EB62EA72E6A01890166
:104EA0000E943E174C010431110518F10F3F100705
:104EB00019F1C80164E170E00E949D29EB01BE0177
:104EC000872D0E946B267C01892BC1F4CB2DDA2D16
:104ED000CC0EDD1ECC15DD0519F0E114F104C1F096
:104EE00084E98093BC00C701CDB7DEB7EDE00C9438
:104EF000D229C1E0D0E0E3CFC5E0FCCF0F3F1007DF
:104F0000F1F2C4010E944A1708171907C0F6DECF54
:104F1000FE018491B8010E94C6267C012196DACF59
:104F2000A0E0B0E0E6E9F7E20C94B529682E962EF1
:104F30005A01690178010E943E17782E892E0431AA
:104F4000110530F10F3F100731F1C80164E170E045
:104F50000E949D29162F072F612F702F862D0E94EA
:104F60006B26EC01892BC9F0FFEFEF16FF06A1F3CA
:104F7000872D982D0E944A17E816F90668F784E9EC
:104F80008093BC00CE01CDB7DEB7EEE00C94D12902
:104F900011E000E0E1CF15E0FCCFB701892D0E94C0
:104FA000C626EC018501CA0CDB1C0C151D0539F366
:104FB000209729F7B701F80181918F010E94C62639
:104FC000EC01F3CF8EE14A9B02C08A95E1F74A9B40
:104FD000FECF08955A9880E28A95F1F75A9A08957B
:104FE000FC013BE03A95F1F798E020E080E031E009
:104FF00040E14A95F1F7880F4A9B02C08160232760
:1050000042E04A95F1F7000040E14A95F1F79A95A0
:1050100079F790E19A95F1F799B132E03A95F1F785
:10502000000040E14A95F1F792FB992790F9922709
:105030002081920F90830895A1E0B0E0E2E2F8E2CF
:105040000C94BD2919828C017C01E60EF11C0E9492
:10505000E227CE0101960E94F027F80181938F018B
:10506000EE15FF05A1F781E09981911180E021966D
:10507000E6E00C94D929529A5A9A089552985A9A6D
:10508000EA9AE9E6F0E080818F7C808308956150A0
:10509000770B91E001C0990F6A95EAF7692F90E0CC
:1050A00021E0611108C0911599F05A9A80E28A9521
:1050B000F1F75A980895362F3823311539F05A9A56
:1050C000922730E23A95F1F76695EBCF5A98F9CFEF
:1050D0005A98ECCFFF920F931F93CF93DF93EC017D
:1050E0008C01060F111DF9900E94EA2768E08F2DB0
:1050F0000E944728C017D107B1F7CDB7DEB7E5E06A
:105100000C94DA291F920F920FB60F9211240F936D
:105110001F932F933F934F935F936F937F938F933F
:105120009F93AF93BF93EF93FF93CF93DF930F9230
:10513000CDB7DEB719820E94E227CE0101960E9408
:10514000F027082F069506950695982F929595704D
:10515000202F2570920F292F237096959695920FE8
:10516000982797708981892B811509F05CC00830D8
:1051700008F059C080E18A95F1F75A9A529A82E074
:105180008A95F1F700C05A9888E0089F80011124A1
:10519000D801A35EBE4F1696ED91FC9117973097FC
:1051A000A9F060914F027091500214962D913C919C
:1051B0001597260F371F11968D919C911297680FA6
:1051C000791F13964C9113978C910995F801E35E22
:1051D000FE4F6381611551F020914F0230915002D2
:1051E00084819581820F931F0E946A280E94EA277A
:1051F00080E18A95F1F75A9852985A9A80E18A95F7
:10520000F1F7F801E35EFE4F6081611551F02091E6
:105210004F023091500281819281820F931F0E9430
:105220001C280E94E2270F90DF91CF91FF91EF9110
:10523000BF91AF919F918F917F916F915F914F91AE
:105240003F912F911F910F910F900FBE0F901F90C4
:1052500018950F931F93CF93DF938C0108970CF051
:1052600064C0F894529A5A9885E08A95F1F7000044
:10527000C02FC695C570802F8570C80F8C2F837086
:10528000C695C69593E0000F111F9A95E1F7C80FD8
:10529000C8018C2BEC010E94EA2700C068E08C2F2B
:1052A0000E94472890E19A95F1F752985A9A4A9BA2
:1052B00035C087E090E04A9933C0F801E35EFE4FC5
:1052C0006381611561F020914F0230915002848119
:1052D0009581820F931F0E941C28811519F10E944D
:1052E000E22780E28A95F1F75A98529A90E19A95CE
:1052F000F1F7F801E35EFE4F6081611551F02091F6
:105300004F023091500281819281820F931F0E943F
:105310006A280E94EA27789481E008C000C0C7CFBD
:10532000019749F4529A5A9A789480E0DF91CF918C
:105330001F910F91089500C0BECFAA1BBB1B51E166
:1053400007C0AA1FBB1FA617B70710F0A61BB70BF5
:10535000881F991F5A95A9F780959095BC01CD019A
:1053600008952F923F924F925F926F927F928F9209
:105370009F92AF92BF92CF92DF92EF92FF920F93E4
:105380001F93CF93DF93CDB7DEB7CA1BDB0B0FB6EE
:10539000F894DEBF0FBECDBF09942A8839884888AB
:1053A0005F846E847D848C849B84AA84B984C88441
:1053B000DF80EE80FD800C811B81AA81B981CE0F38
:1053C000D11D0FB6F894DEBF0FBECDBFED0108951D
:1053D000992778E0880F991F961708F0961B881F69
:1053E0007A95C9F780950895A1E21A2EAA1BBB1BD6
:1053F000FD010DC0AA1FBB1FEE1FFF1FA217B307A1
:10540000E407F50720F0A21BB30BE40BF50B661FB6
:10541000771F881F991F1A9469F76095709580957A
:1054200090959B01AC01BD01CF010895EE0FFF1FC8
:105430000590F491E02D0994FB01DC0102C0059078
:105440000D9241505040D8F70895FB01DC0104C093
:105450008D910190801921F441505040C8F7881B6C
:10546000990B0895FB01DC0102C001900D9241509F
:105470005040D8F70895DC01CB01FC01F999FECF2B
:1054800006C0F2BDE1BDF89A319600B40D924150CC
:105490005040B8F70895F999FECF92BD81BDF89AB2
:1054A000992780B50895A8E1B0E042E050E00C945F
:1054B0003D2ADC01A40FB51F4150504048F0CB01FC
:1054C000840F951F2E910E946A2A41505040D0F7B8
:1054D0000895262FF999FECF92BD81BDF89A0197C4
:1054E00000B4021639F01FBA20BD0FB6F894FA9A2C
:1054F000F99A0FBE08950396272F0E946A2A0E94E8
:10550000692A252F0E946A2A242F0C946A2A019660
:10551000272F0E946A2A0C94692AF894FFCF9111D0
:10552000B711BD11B711BD1110123212BD112F13D9
:105530003C1326198E192E19F818FC183219001967
:10554000361942190C1987191019461914194A19D4
:105550006F1918194E1976191E1954195C19041966
:105560003A1908193E192219581966197F1985190F
:10557000F2182A199519CF18D318B118CB18D718C3
:10558000DB18DF18B519C319CA19CF19D419D919DD
:10559000DE19E319E819ED19F219F719B618B6185A
:0E55A000B618B618B618B618B618B618B6185B
:1055AE00E100390000FF00FFFF012C0CAA0EC10E16
:1055BE002F0CC80EFF000021007F22000300000008
:1055CE0001000000000000000401000000040500BE
:1055DE0000000000000409000000000000020D00A1
:1055EE000000000000020F00000000000009110082
:1055FE000000000000012000000000000015102631
:10560E00106C10000000010300FF78181712110A29
:10561E0009191613100B081A15140F0C07FFFFFFAC
:10562E000E0D0633322D2C252434312E2B26233508
:10563E00302F2A2722FFFFFF2928215510320D1067
:10564E00141026323055345F3F55275515550444F6
:10565E000244134425503A3C373223320D32002196
:10566E000321142125102A10181007000700180016
:10567E00298B10AE0DD014D026AE308B34813F8BDB
:10568E00278B158B049C029C139C25903AA437AE55
:10569E0023AE0DAE00BF03BF14BF25D02AD018D045
:1056AE0007E007E018E029020202020202010404E8
:1056BE0004040404010104040404040404040401A5
:1056CE0001010202020202020104040404040401A4
:1056DE000104040404040404040401010194669703
:1056EE00C6F4F5F6F731330008101818100800FF4D
:1056FE0005E200E900EA00B500B600B700CD008370
:10570E0001CC008A01920194012102230224022578
:10571E0002260227022A02B300B4006F0070009F17
:08572E0001CB019F02A0020063
:00000001FF
