:100000000C9414060C9431060C9431060C94D82BE5
:100010000C9431060C9431060C9431060C94310684
:100020000C9431060C9431060C94A51C0C94601BA6
:100030000C94431E0C9431060C9431060C9431063A
:100040000C9431060C9431060C9431060C94310654
:100050000C9431060C94DA1D0C9431060C94310684
:100060000C9431060C9431060C9431060C94310634
:100070000C9431060C9431060C9431060C94310624
:100080000C9431060C9431060C9431060C94310614
:100090000C9431060C9431060C9431060C94310604
:1000A0000C9431060C9431060C9431063B07410741
:1000B0002C07320747074D075307AD072108B5073F
:1000C0007F078307B9078607BC07C707910717088B
:1000D0009507CB079907CF07F9079D07D3070308B3
:1000E000A307D907E3078A07C0078D07C307A80737
:1000F000DE07EF070F0811087B07B1072A0814096C
:10010000140943094309BF09F50AF50AF50ADD098F
:100110006B0A7C0A7C0A1D0B2B0B300B350B3A0B40
:100120003F0B440B490B4E0B530B580B5F0B530803
:1001300053085308530853085308530853085308E7
:100140008622AD222F24AD222F24F52218232F241E
:10015000F5230824202020206162636465666768B7
:10016000696A6B6C6D6E6F70717273747576777887
:10017000797A313233343536373839305245425452
:100180005F2D3D5B5D5C233B27602C2E2F202020C4
:10019000202020206162636465666768696A6B6C11
:1001A0006D6E6F707172737475767778797A31329B
:1001B000333435363738393014131B1A162D3D5B5E
:1001C0005D5C233B27602C2E2F80202020202020C8
:1001D00020202020202050532020202010202020CC
:1001E000202020202020202020202020202020200F
:1001F00020202020202020202020202020202020FF
:1002000020202020202020202020202020202020EE
:1002100020202020202020202020202020202020DE
:1002200020202020202020202020202020202020CE
:1002300020202020202020202020202020202020BE
:1002400020202020202020202020202020202020AE
:10025000202020202020202020202020202020209E
:10026000202020202020202020202020202020208E
:1002700043534143202020202020202020202020E4
:10028000202020202020202020202020202020008E
:10029000DA0281FFD9F1DB20A4A62EAF00A0C0D3E3
:1002A0000000A1C8D30000AED580A81F408D142047
:1002B00000290014001A000900130005002B000497
:1002C000001500160017000A00E0001D001B0006C4
:1002D0000007001900000000000000215200572C08
:1002E000002A0033001C0018000F000D003400121B
:1002F000000C00080011001000E200380037003642
:10030000000B000E00000000000000E30022522855
:10031000004000410042004300000000003D003E5C
:10032000003F004400000000003A003B003C004554
:1003300000000000000000000000000100E10000DB
:10034000002A002E022600250024002E000000278F
:10035000002300220021002D000000250220001FA4
:10036000001E002D020000000000000000235200CB
:100370000035021E021F022002210222020000009C
:10038000002F0026022F020000E0000000300027AE
:1003900002300200000000000000002352000000B4
:1003A000004C000000000031022402230235004FFF
:1003B0000052005100500000000000310000000019
:1003C000000000000000000000000000000100002C
:1003D00000007C00000000000000000000207823E6
:1003E00078277829780000A9002178247828782AAD
:1003F000780000AA000000000000000100000000DA
:1004000000460000000000000000000000000000A6
:1004100000000000000000A8000000000000000034
:1004200000000000000000000000000000010000CB
:100430000000AF00AE05010906A1018501050719FD
:10044000E029E715002501950875018102950175E0
:100450000881010507190029FF150026FF009506F0
:100460007508810005081901290515002501950564
:1004700075019102950175039101C005010980A1E3
:1004800001850319012AB700150126B700950175EA
:10049000108100C0050C0901A101850419012AA0E1
:1004A00002150126A002950175108100C005010901
:1004B00006A1018506050719E029E7150025019524
:1004C00008750181020507190029EF15002501951E
:1004D000F07501810205081901290595057501913D
:1004E00002950175039101C009022200010100A0DB
:1004F000FA090400000103010100092111010001B2
:1005000022B3000705810320000112010002000050
:100510000008534601000100010200010C034300E2
:100520006F0072006E0065000000100366006F002F
:100530006F007300740061006E0000000403090482
:100540000000000000003E5B4F5B3E003E6B4F6BC7
:100550003E001C3E7C3E1C00183C7E3C18001C5794
:100560007D571C001C5E7F5E1C0000183C180000BC
:10057000FFE7C3E7FF00001824180000FFE7DBE7F0
:10058000FF0030483A060E00262979292600407FD0
:1005900005050700407F05253F005A3CE73C5A000F
:1005A0007F3E1C1C0800081C1C3E7F0014227F227A
:1005B00014005F5F005F5F0006097F017F00006637
:1005C00089956A0060606060600094A2FFA2940058
:1005D00008047E04080010207E20100008082A1C51
:1005E0000800081C2A0808001E10101010000C1E1D
:1005F0000C1E0C0030383E383000060E3E0E060051
:1006000000000000000000005F000000000700077D
:100610000000147F147F1400242A7F2A1200231361
:1006200008646200364956205000000807030000A5
:10063000001C224100000041221C00002A1C7F1CDB
:100640002A0008083E0808000080703000000808F2
:100650000808080000006060000020100804020084
:100660003E5149453E0000427F40000072494949E1
:1006700046002141494D33001814127F10002745D0
:10068000454539003C4A49493100412111090700DB
:10069000364949493600464949291E0000001400E0
:1006A000000000403400000000081422410014142F
:1006B0001414140000412214080002015909060014
:1006C0003E415D594E007C1211127C007F49494920
:1006D00036003E41414122007F4141413E007F4979
:1006E000494941007F09090901003E414151730018
:1006F0007F0808087F0000417F4100002040413F03
:1007000001007F08142241007F40404040007F02EA
:100710001C027F007F0408107F003E4141413E00E3
:100720007F09090906003E4151215E007F09192910
:10073000460026494949320003017F0103003F403A
:1007400040403F001F2040201F003F4038403F00F6
:100750006314081463000304780403006159494DCD
:100760004300007F41414100020408102000004185
:1007700041417F000402010204004040404040002B
:100780000003070800002054547840007F284444A8
:100790003800384444442800384444287F00385402
:1007A0005454180000087E0902001824241C780004
:1007B0007F080404780000447D4000002040403D54
:1007C00000007F102844000000417F4000007C04AE
:1007D000780478007C0804047800384444443800E5
:1007E0007C1824241800182424187C007C08040495
:1007F000080048545454240004043F4424003C405E
:1008000040207C001C2040201C003C4030403C002C
:100810004428102844004C9090907C004464544C30
:10082000440000083641000000007700000000414D
:10083000360800000201020402003C2623263C0088
:100840000000000000000000C0E0F0F8F81800C050
:10085000F0FCFEFFFFFFFFFFFFFF7E00000000F83F
:10086000042252E2424242E2522222224282020206
:1008700022220204F80000F804020282422242828C
:10088000020202824222122242820204F80000F88E
:10089000FCDEAE1EBEBEBE1EAEDEDEDEBE7EFEFEDA
:1008A000DEDEFEFCF80000F8FCFEFE7EBEDEBE7E54
:1008B000FEFE00000000000080804040202010105C
:1008C000080810102020404080808080C0C0E0E0F8
:1008D000F0F0F8F8F0F0E0E0C0C0808080804040A8
:1008E00020201010080810102020404080808080B8
:1008F00040C060A050B058A850B060A040C08080F8
:1009000000F8FCFEFFE000FFFFFFFFFFFF80FFFF9E
:10091000FFFFFFFFFFFFFF1F070100000000001F98
:1009200020444A47424242474A44404040404142B4
:10093000444440201F00001F2040414040404040B0
:10094000414041414F4848484F4141201F00001F4E
:100950003F7B75787D7D7D78757B7F7F7F7F7E7D1A
:100960007B7B7F3F1F00001F3F7F7E7F7F7F7F7FDE
:100970007E7F00000000000088885D5D3E3E7C7C3C
:10098000F8F87C7C3E3E5D5D888888885555232339
:1009900047478F8F47472323555588888888D5D563
:1009A000E2E2C4C48888C4C4E2E2D5D588888888D5
:1009B0005DD56BB66DD6ADDA6DD66BB65DD5888874
:1009C00000030F1F3F3F3F3F1F1F3F3F7F7F7F3F82
:1009D0003F1F3F7F7F7F7F7C7878381C0F0004F8B3
:1009E0000000F804201F00001F20FCF80000F8049D
:1009F0003F1F00001F2004F80000F8FC201F00002B
:100A00001F3FFCF80000F8FC3F1F00001F3FFE7E68
:100A1000BEDEEEDEBE7EFEFCF8007E7E707777776F
:100A2000707E7E3F1F0000000000000000000000FC
:100A300000000000000000000000010102020404A8
:100A40000808040402020101000000000101020282
:100A5000040408080404020201010000000001016E
:100A6000030307070F0F070703030101000000003E
:100A70000101030205060D0A05060302010100003B
:100A8000636F726E65008081828384A0A1A2A3A49B
:100A9000C0C1C2C3C400209495962020B4B5B6202E
:100AA00020D4D5D62000209798992020B7B8B92017
:100AB00020D7D8D92000209A9B9C2020BABBBC20EC
:100AC00020DADBDC2000209D9E9F2020BDBEBF20C1
:100AD00020DDDEDF2000202020202000A7A800AF9E
:100AE000B000C600CA00C800A5A600ADAE00878849
:100AF000008F9000C500C900C700CB008586008D1F
:100B00008E00ABAC00CFD000C600CA00C800A9AAB6
:100B100000B1B2008B8C00CDCE00C500C900C7006B
:100B2000CB00898A009192000001010101010101BD
:100B30000101020202020202020202030303030392
:100B40000303030404040404040405050505050661
:100B5000060606060707070707080808080909091F
:100B6000090A0A0A0B0B0B0C0C0C0D0D0D0E0E0EC8
:100B70000F0F0F1010111111121213131414151559
:100B800016161717181819191A1A1B1B1C1D1D1ECB
:100B90001E1F20202122222324242526262728291F
:100BA000292A2B2C2D2D2E2F30313232333435364D
:100BB0003738393A3B3C3D3E3F404142434445464D
:100BC0004748494A4C4D4E4F505153545556585929
:100BD0005A5B5D5E5F616264656668696B6C6D6FD0
:100BE0007072737577787A7B7D7E80828385878843
:100BF0008A8C8E8F91939596989A9C9EA0A2A3A57D
:100C0000A7A9ABADAFB1B3B5B7BABCBEC0C2C4C67D
:100C1000C9CBCDCFD1D4D6D8DBDDDFE2E4E7E9EB39
:100C2000EEF0F3F5F8FAFDFF11241FBECFEFDAE086
:100C3000DEBFCDBF12E0A0E0B1E0E2E9FBE502C01B
:100C400005900D92AE39B107D9F726E0AEE9B2E0D2
:100C500001C01D92A23EB207E1F70E94BD0B0C94A9
:100C6000C72D0C9400008F929F92AF92BF92EF928B
:100C7000FF920F931F93CF93DF93FC0124812223D4
:100C800009F470C57C0161E00E946627EC01F70160
:100C90008581882319F18091F4039091F5030097E1
:100CA000E9F0C817D907D1F0992734E0880F991FC8
:100CB0003A95E1F7FC01E65EFE4F20812460208337
:100CC0008B5E9E4FFC01D183C0830E944F1F109208
:100CD000F20361E0C7010E946627EC01F7018581FC
:100CE0008823C9F181818093C50280818093C402E9
:100CF00080E280932501D093C302C093C202CE014B
:100D000090528115904228F4F7018681807F79F412
:100D1000E4C4CE0190548115904120F4F7018681FE
:100D2000807F29F4CE019A9581159F4118F4FE0128
:100D3000FF2707C0CE01805A9245809708F4CDC4A2
:100D4000FE01ED33F10508F0C8C4EC5AFE4FE49102
:100D5000E0932501C2C4C230D10509F4F9C4C330FF
:100D6000D10529F0C130D10549F481E0F2C483E016
:100D70000E94BC19F70185818111B8C4CE01975535
:100D80008F3F910511F008F05CC05E01BB24C501E6
:100D900024E0880F991F2A95E1F78C010B5E1E4F06
:100DA000F7012581AC01465E5E4F5A01FA01808150
:100DB00020FB80F98083F7018581882341F10E941F
:100DC000371E9093C1028093C002F80182818F5F29
:100DD00082839091F2038091F303892B8383809126
:100DE000300384834681578166857785C8010E94D8
:100DF000301FF501808181FF03C090E080E002C0D8
:100E00009C2F8D2F9093F4038093F5031AC0F80163
:100E10004485558566857785C8010E94301FF50198
:100E2000808181FF0EC0C8010E94361F8091F403AB
:100E30009091F503C817D90721F41092F503109289
:100E4000F4034E01FE01E851FC47E730F10588F557
:100E5000EA5AFF4F0C94AB2D06E221EE41EE6AE117
:100E60007CE705C007E225EE45EE6BE17CE7C701B4
:100E70000E94791F18C106E221EE40EE68E17CE78E
:100E8000F6CF07E225EE44EE69E17CE7F0CF06E21B
:100E900021EE42EE6CE17CE7EACF07E225EE46EE7A
:100EA0006DE17CE7E4CF08E221E045EE6EE17CE70E
:100EB000DECFF7018581882309F453C11092F10335
:100EC000CE019057839708F0DBC084E090E00E9449
:100ED000652D909300048093FF03FE01E150F047DD
:100EE000E232F10520F4E35AFF4F0C94AB2D8091D0
:100EF000FF038160ACC0809100048860B4C0809121
:100F0000FF038260A4C08091FF0320C08091FF0393
:100F100088609DC0809100041EC0809100048260A2
:100F2000A2C08091FF03806192C08091FF03806224
:100F30008EC08091FF0380648AC00E94111A809144
:100F4000FF03806884C08091FF03886084607FC055
:100F5000809100048260816086C08091FF038E7F53
:100F600076C080910004877F7EC08091FF038D7FD3
:100F70006EC08091FF0320C08091FF03877F67C010
:100F8000809100041EC0809100048D7F6CC0809110
:100F9000FF038F7E5CC08091FF038F7D58C08091DE
:100FA000FF038F7B54C00E94111A8091FF038F773B
:100FB0004EC08091FF03877F8B7F49C080910004E2
:100FC0008D7F8E7F50C08091FF0382FB222720F906
:100FD00091E0922790FB82F990FB83F938C08091D1
:100FE0000004982F909591708E7F892B90FB81F94A
:100FF0003AC08091FF0386FB222720F991E09227D7
:1010000090FB86F924C00E94111A8091FF0387FB90
:10101000222720F991E0922790FB87F918C061E020
:1010200001C060E08EE090E00E947B2D1EC08091A8
:10103000FF0384FB222720F991E0922790FB84F99B
:1010400006C08091FF03982F909590FB80F98093C4
:10105000FF030BC08091000483FB222720F991E05D
:10106000922790FB83F9809300046091FF037091B5
:10107000000484E090E00E94992D0E94111A13C090
:10108000C631FCE7DF0709F58091F3038A7A91E026
:1010900009F490E09093A0028111C9C289E20E94F4
:1010A0009A1E0E94AD1680919403877009F45AC36A
:1010B000F7018581882309F455C38091000482FFDC
:1010C00051C382E00E94CE194DC3C330FCE7DF0755
:1010D00099F140F4C1154CE7D40791F0C130DC47D9
:1010E00089F14DC0CB358CE7D807B9F1CC359CE7F9
:1010F000D90759F1CA35DC4709F041C081E02EC05B
:101100000E94111AFFEF24E34CE0F15020404040D0
:10111000E1F700C0000087E797E79093010880930C
:1011200000089AE088E10FB6F894A89580936000D3
:101130000FBE90936000FFCF6FEF7FEF80E090E0F5
:101140000E94992D0E941A28AECF8091000482FB44
:10115000882780F991E0892701C080E00E94E51985
:101160000EC0C631DC4709F4AEC28091F30382722F
:10117000F401E052F847E531F10508F45AC2F701ED
:101180008581C081D181882349F0CE010E946517F5
:10119000182F682FCE010E94831904C0CE010E942F
:1011A0005019182FBE01812F0E9432130E944F1335
:1011B000D82FC92F982EF7011581068102950F703F
:1011C00080919403877001F11123F1F0892F807FC2
:1011D000803469F080E28D0F8830B0F0892F807EF6
:1011E000803229F4F1E0FD1778F4002369F0809152
:1011F000000482FF09C082E00E94CE19809194030E
:101200008770BB24B3948111B12CAC2EA2948FE0D3
:10121000A8228A2D90E08C30910508F0E6C1FC01EF
:10122000E158FF4F0C94AB2D8C2F807FCF7088231B
:1012300011F0C295C07F1123B9F0CC2309F4C3C1CA
:1012400080E28D0F883010F0911006C09091F3036A
:10125000C92BC093F30305C09091F203C92BC0932F
:10126000F2030E94AD16AFC18D2F0E94551ACC23F8
:1012700009F4BBC1D05E8C2FD83068F1992059F1A8
:101280000E949F162AC08C2F807FCF70803211F071
:10129000C295C07F992029F021E0921609F44CC034
:1012A00055C08091000482FD1BC0112369F0CC233E
:1012B00039F09091F303C92BC093F3030E94AD164C
:1012C00080E00E947F1A91C180E00E94551ACC23D1
:1012D00009F48BC18C2F0E94A6160E94AD1685C101
:1012E000112381F00023B1F1013009F07EC190910A
:1012F00030038C2F8923C81709F477C1C92BC093F9
:10130000300373C1011171C18C2F0E94441A809166
:1013100030039C2F982329F09C2F9095892380934C
:101320003003209131038C2F822309F45EC1C095D4
:101330002C232093310359C1112321F0063008F0EA
:1013400054C108C0053008F050C115C0112331F058
:10135000011139C18C2F0E944B1A47C1002359F04B
:10136000D93309F03FC14FEF57EE83E04150504071
:101370008040E1F735C18C2F0E94441A36C18C2F72
:1013800086958695837019F0813061F02EC1112306
:1013900021F08D2F9C2F937002C080E090E00E947E
:1013A000F71E29C1112321F08D2F9C2F937002C0AD
:1013B00080E090E00E94D21E1EC18C2F837009F045
:1013C00041C0111116C12D2F229526952770220F8D
:1013D000220F8D2F8F7090E0022E02C0880F991F70
:1013E0000A94E2F7D4FF0BC04FE050E002C0440F74
:1013F000551F2A95E2F79A012095309502C020E00A
:1014000030E0C695C695C370C23099F068F440913B
:10141000380650913906C13029F0822B932B842352
:10142000952304C0842B952B822B932B0E940C1A9E
:10143000E0C0822B932B2091380630913906822709
:101440009327F4CF112319F08C2F817001C086955A
:10145000882309F4CEC02D2F229526952770220FC0
:10146000220F8D2F8F7090E0022E02C0880F991FDF
:101470000A94E2F7D4FF0BC04FE050E002C0440FE3
:10148000551F2A95E2F79A012095309502C020E079
:1014900030E0C695C695C370C23079F0B8F440917B
:1014A000270450912804C13029F0822B932B8423E8
:1014B00095230EC0842B952B09C0822B932B209152
:1014C0002704309128048227932702C0822B932B74
:1014D0000E94B7198EC0CF70112339F08C2F0E9453
:1014E000FC198D2F0E944B1A84C08D2F0E94441A24
:1014F0008C2F0E94BC197DC08D2F92EF991689F117
:10150000991538F0E0EF9E1659F0F1EF9F1621F192
:1015100056C023EF921661F144EF9416C9F04FC004
:10152000112391F0053008F060C0CF7181E090E0A8
:1015300002C0880F991FCA95E2F7209127043091C5
:1015400028048227932721C0063008F04EC0EDCF33
:101550008091000482FD1CC0112329F08C2F8F7113
:1015600022C01123D9F38C2F8F710E94BC193DC06A
:10157000112349F0CF7181E090E002C0880F991FDC
:10158000CA95E2F702C080E090E00E94B7192DC032
:10159000112361F08C2F8F7158E0859F90011124E9
:1015A0002360209394030E94FC191FC081E00E94D5
:1015B000CE190230D0F082E00E94CE1916C011235D
:1015C00021F0002359F28D2F7CCE002361F2893364
:1015D00049F48FEF97EEE3E081509040E040E1F76F
:1015E00000C000008D2F0E94551A88EF8A0D8430AC
:1015F00010F40E941C1FBB20A9F08091940380FD71
:1016000011C0F70115828695869586950E94FC1972
:10161000C7010E943306809194038695869586952E
:101620000E94BC1960E0C7010E9466279BC085E349
:1016300036CDE557FF4F0C94AB2D90911F0481E000
:10164000892780931F041092760180911E04816087
:1016500080931E0428CD44E255E26EE275E22CC070
:101660004EE255E264E275E227C040E155E26AE1EC
:1016700075E222C04AE155E260E175E21DC046EF25
:1016800054E263E075E218C043E055E266EF74E2AD
:1016900013C04CED54E269EE74E20EC049EE54E220
:1016A0006CED74E209C041E854E26FE874E204C0F2
:1016B0004FE854E261E874E20E948020F4CC81E0BB
:1016C0000E942421F0CC8091A002811104C089E203
:1016D0000E946C1EE6CC85E3FBCFC230D105A1F1A0
:1016E000C330D105D9F1C130D10561F10E94371E57
:1016F000CE019A9581159F4418F4FE01FF2708C07A
:10170000CF3FD10509F010F4FE0102C0E0E0F0E0A7
:101710008091030180930401809102018093030171
:101720008091010180930201809100018093010169
:10173000EF3FF10509F422CBE057FE4FE491E0932F
:1017400000011CCB81E001C082E00E94FC1903C0B3
:1017500082E00E94BC190E941421A5CC83E00E9463
:10176000FC1908CBDF91CF911F910F91FF90EF9063
:10177000BF90AF909F908F900895AAE0B0E0E3EC07
:10178000FBE00C940D2D85B7806885BF85B7806818
:1017900085BF84B7877F84BF0FB6F894A8958091E2
:1017A0006000886180936000109260000FBE90E03E
:1017B00080E80FB6F89480936100909361000FBEAB
:1017C0008AEA9FE090939F0280939E020E94A41B4E
:1017D0000E944A1C8091E20084608093E200789429
:1017E00080911D048823A1F01091E9001F70909151
:1017F000EC00892F817090FD80E8182B1092E90091
:101800008091E80083FD0E94A5211F701093E900DC
:1018100082E084BD93E095BD9AEF97BD80936E0002
:101820001092A1021092A2021092A3021092A4029E
:101830008091D80080618093D8002AE12A95F1F741
:1018400000C08091D900182F117080FD04C00E9443
:10185000A41B10921D041093F6031093F70310932A
:101860000A0111110E94932B80910A0180910A01B3
:10187000811102C094E001C090E09093AE0284E038
:10188000891B8093AD020FE711E0B3E8EB2EB1E0C6
:10189000FB2ED8018D918D018F3F11F00E94C11256
:1018A000E016F106B1F703E811E0F80181918F012C
:1018B0008F3F11F00E94C112F1E009381F07A9F70C
:1018C00088E0EFEAF2E0DF01282F1D922A95E9F780
:1018D000E5EAF2E0DF011D928A95E9F780E090E009
:1018E0000E94652D853E9E4F09F461C065EE7EEF36
:1018F00080E090E00E94992D60E082E090E00E94FC
:101900007B2D81E090E0909339068093380661E06A
:1019100083E090E00E947B2D60E074E184E090E041
:101920000E94992D60E086E090E00E947B2D60E0AF
:1019300087E090E00E947B2D40E050E0BA0188E013
:1019400090E00E948D2D60E083E290E00E947B2D6C
:1019500060E08CE090E00E947B2D60E08DE090E004
:101960000E947B2D19821A821B821C821D821E827C
:101970001F82188648E050E067E170E0CE010196D2
:101980000E946B2D40E050E0BA018FE190E00E9490
:101990008D2D40E050E0BA018FE090E00E948D2D47
:1019A00040E050E0BA0183E190E00E948D2D82E09A
:1019B00090E00E945D2D8093B70284E090E00E9449
:1019C000652D909300048093FF0383E090E00E94D4
:1019D0005D2D90E00E940C1A0E947D2481E080938E
:1019E0001E0448E050E067E170E08FE194E00E945F
:1019F0004D2D10921E0480911F048C7FF9F485E018
:101A000080931F0480917C0190917D01A0917E01C3
:101A10008093200490932104A09322048FE7809365
:101A200023048FEF8093240448E050E067E170E0E6
:101A30008FE194E00E946B2D10921E0483E080934E
:101A4000E60280E2809329040E94232A6BE070E082
:101A500086EA92E00E943320882309F443C08091F3
:101A6000E60265E070E081FD3AC081EA92E00E9402
:101A700033208823B9F16DE070E08FE892E00E9496
:101A80003320882379F10E942B1EDC01CB01805A80
:101A90009541AF4FBF4F8093E9039093EA03A09322
:101AA000EB03B093EC03ECE2F4E080E092E0DF01C2
:101AB0009C011D9221503040E1F7F0933306E093F2
:101AC00032068FEF9FEF90932B0480932A0481E0DE
:101AD0008093EE038093ED031092E70203C08CE93C
:101AE00092E0C5CF8091F603811102C00E94962B2F
:101AF0008BE091E09093FC038093FB03F8E12F2EA1
:101B0000312C44244394512C80911D04853009F0DC
:101B100057C000E112E180911D04853009F04AC0F0
:101B200080911D04843009F434C00E9440200E943A
:101B3000602680913E06811105C00E945F2580E0ED
:101B40000E94522531E030933E060E9440201092C0
:101B5000010480E40FB6F894A895209260000FBEAF
:101B60008093600083B7817F846083BF83B7816087
:101B700083BF7894889583B78E7F83BF0FB6F89420
:101B8000A895809160008861809360001092600049
:101B90000FBE80911304882309F4BDCF0E946C14FA
:101BA000EFEAF2E081918111BFC192E0E73BF907D2
:101BB000C9F7B1CF0E94111A0E941C1F10923E0655
:101BC0000E946C1408EB12E0EFEAEE2EE2E0FE2E2B
:101BD000D701F80191918D91892720EC32E02E17E1
:101BE0003F0719F08823B1F306C0811104C00E9499
:101BF000EA1AD12C38C08090F603D12CD7019D90E1
:101C00007D01F801A080A92421F1C12CBB24B3944B
:101C10008B2D8A21B9F08820A9F0C982DA820E942E
:101C2000371E9C838B83F1E0FD8391E08B2D89210E
:101C300009F490E09E8349815A816B817C818D817A
:101C40000E949127C394BB0C26E0C212E1CFD801B9
:101C50009C92D3940F5F1F4FB8E0DB12CFCF0E944E
:101C6000D812DD24D3948091F603882319F1809152
:101C7000F4039091F503892BE9F08091C0029091D3
:101C8000C1020E941C1E893C9105A0F08091F403C2
:101C90009091F503992774E0880F991F7A95E1F7E1
:101CA000FC01E65EFE4F208122FD04C08B5E9E4F4C
:101CB0000E944F1F0E9460268091EE03882309F442
:101CC00024C18091E8029091E9020E941C1EC297F3
:101CD000A8F00E94371E9093E9028093E8028CE2FC
:101CE00094E090933306809332068091F603882324
:101CF00019F00E94642802C00E94642880912A047E
:101D000090912B04892B31F48091ED03882309F401
:101D1000FCC0E4C08091EE038823B1F38091E70218
:101D20008111F2CF0E945A2020912A0430912B0475
:101D30002115310549F380E0082F10E07201082ECB
:101D400002C0EE0CFF1C0A94E2F7A70142235323C2
:101D5000452B11F48F5FF0CF9091E602980165E07A
:101D6000220F331F6A95E1F790FF13C055E03695B7
:101D700027955A95E1F7220F220F220F2093280171
:101D800010922B01295F2093290183E080932C017D
:101D900011C0220F232F221F330B31958295880FFC
:101DA00080768093280120932B01815E8093290106
:101DB00020932C0124E630E047E050E066E271E039
:101DC00088E70E94582A892B09F09ECF8091E6026D
:101DD00080FF64C080E2E6ECF2E0DF011D928A95AC
:101DE000E9F7A80135E0440F551F3A95E1F7EDE812
:101DF000F1E0FA87E98709E811E0A985BA858D91B4
:101E0000BA87A987F80191918F01BA01690F711DF5
:101E1000645D7B4F90E08A539D4FFC0127E0922E3A
:101E20009F01281B390B742C01C0770C2A95EAF707
:101E30005B01812CD501CD905D01C720292D28198A
:101E40002770622E022E000C330BBC2D01C0BB0F7D
:101E50006A94EAF76B2E3195219531092770332763
:101E600001C0C6942A95EAF76C28C0806C2860826D
:101E7000839428E08212DECF9A9431963FEF93123A
:101E8000CFCF89859A858159914009F0B6CF04E674
:101E900010E020E230E046EC52E00CC0A80185E002
:101EA000440F551F8A95E1F7445D5B4F04E610E04F
:101EB00020E230E060E488E70E94EF2A892B09F0F5
:101EC00023CFE094F09480912A0490912B04E8228F
:101ED000F922F0922B04E0922A0416CF0E942B1EC6
:101EE0000091E9031091EA032091EB033091EC0398
:101EF000DC01CB01801B910BA20BB30B8F3F9F4FDB
:101F0000AF4FBF4710F40E944020D1100E945A20CA
:101F10000E941C1F9091EA02891709F4F5CD809365
:101F2000EA020E942B1EF0CD09BD19BD09B400FEC6
:101F3000FDCF8091D8008F7D8093D8008091E00004
:101F400082608093E0008091E00081FDFCCF0E94E0
:101F5000111AE1CD80E008959091FF0392FF10C027
:101F600041E0282F2471243009F040E031E0282F8F
:101F70002871283009F030E0431711F02CE0822757
:101F800093FF10C041E0282F2471243109F040E074
:101F900031E0282F2871283109F030E0431711F083
:101FA0002CE082273091000430FF10C051E0282F30
:101FB0002171213009F050E041E0282F28712830AC
:101FC00009F040E0541711F029E0822731FF10C0DA
:101FD00041E0282F2171213109F040E031E0282F24
:101FE0002871283109F030E0431711F029E08227E9
:101FF00094FD877E08958238910569F1B0F48133AC
:10200000910509F475C048F48932910509F467C057
:102010008A32910509F471C008958533910509F458
:1020200059C089339105B9F00895833E910589F12E
:1020300038F4803E9105D1F0823E910529F1089552
:10204000863E9105C9F1873E9105D9F1843E9105FF
:1020500009F06CC027C02091FF0320FD57C021FD6F
:1020600055C02091000423FD5BC008958091FF03BB
:1020700080FD48C08091000480FF48C08091FF032C
:1020800084FD46C083EE51C08091FF0382FF3CC0B7
:10209000F5CF8091FF0382FD37C08091000480FD61
:1020A00035C0ECCF8091000481FF36C08091FF03E2
:1020B00084FD2EC087EE39C08091FF0383FF2AC0C4
:1020C000F5CF8091FF0383FD25C08091000481FD41
:1020D00023C0ECCF8091FF0385FD22C01FC08091FB
:1020E000FF0385FD1BC08091000483FF19C00AC057
:1020F0008091FF0386FD16C017C08091FF0386FD07
:1021000013C010C089E311C082EE0FC080EE0DC075
:1021100080E00BC086EE09C084EE07C085E305C0F1
:1021200089E203C08AE201C081E390E00895A0E063
:10213000B0E0EDE9F0E10C94152D7C015B016A0142
:1021400080913A038A3018F001E010E002C00AE002
:1021500010E0C1E0D0E0B501C701F6010995811199
:1021600015C021960C171D0794F0CC9F9001CD9FB0
:10217000300D300D112480E090E045E34A95F1F7F1
:102180000000019682179307C1F7E5CF81E0CDB734
:10219000DEB7EAE00C94312DA0E0B0E0E2EDF0E132
:1021A0000C94182D7901C82F880FDD0B41155105AE
:1021B000A9F0FE0193E0EE0FFF1F9A95E1F7E35DB2
:1021C000FE4F818192818B509D4F208130E04217DC
:1021D000530708F49A01A9010E94BE2DCE010E9466
:1021E0007E2CD82E8823D1F001151105B9F083E09B
:1021F000CC0FDD1F8A95E1F7FE01E35DFE4F4381C1
:1022000050E00417150708F4A801C35DDE4F6C8188
:102210007D816B507D4FC7010E94BE2D8D2DCDB7A6
:10222000DEB7E7E00C94342DA4E0B0E0EAE1F1E1A0
:102230000C941B2D60913203709133038091340311
:10224000909135030E94001E41E0643671058105BE
:10225000910508F440E03091F30339836436710549
:102260008105910520F420910703231341E090910B
:10227000F2039A83411106C041E02091080329131B
:1022800001C040E0909130039B83411106C041E0C2
:1022900020910903291301C040E0909131039C83F0
:1022A000411106C080910A03891302C011E019C0D0
:1022B00000E010E020E030E044E050E0BE016F5F5D
:1022C0007F4F87E00E94CC10182F882351F00E9486
:1022D0002B1E6093320370933303809334039093E7
:1022E0003503812F2496E4E00C94372DA5E0B0E06F
:1022F000ECE7F1E10C94192D7B0101E010E09E0167
:102300002B5F3F4F40E050E060E070E080E00E94D3
:10231000CC10182F8823C1F1609118037091190314
:1023200080911A0390911B030E94001E6436710570
:102330008105910538F486EF92E00E943D219D8150
:10234000891711F104E010E09E012F5F3F4F40E03C
:1023500050E060E070E081E00E94CC10182F86EF22
:1023600092E00E943D2191E02D81281390E01923F5
:1023700029F10E942B1E6093180370931903809318
:102380001A0390931B030CC08091F6029091F70200
:10239000A091F802B091F90289839A83AB83BC8340
:1023A000112361F089819A81AB81BC8180931403F0
:1023B00090931503A0931603B09317038091140311
:1023C00090911503A0911603B0911703F701808334
:1023D0009183A283B383812F2596E6E00C94352D5B
:1023E000A0E0B0E0E6EFF1E10C94152DC82F7B01E1
:1023F000D42F69015801FB01608171818281938131
:102400000E94001E643671058105910510F4DD23DC
:10241000A1F000E010E020E030E0A501B6018C2F33
:102420000E94CC10C82F882349F00E942B1EF70170
:10243000608371838283938301C0C1E08C2FCDB709
:10244000DEB7EAE00C94312D0F931F9341E0209109
:1024500002033091030380912704909128042817E8
:10246000390709F440E002E010E027E234E068E2D6
:1024700073E084E00E94F0118823B1F041E02091E4
:10248000040330910503809138069091390628178E
:10249000390709F440E002E010E028E336E064E2A6
:1024A00073E085E00E94F0111F910F910895CF9283
:1024B000DF92FF920F931F93CF93DF93F82E6B0160
:1024C000EA01A801B901CE010E94B12D41E0892B9A
:1024D00009F440E09E01B6018F2D0E94F011DF91BA
:1024E000CF911F910F91FF90DF90CF900895A9E0B9
:1024F000B0E0EDE7F2E10C941B2D88E0EFE1F4E0B1
:10250000DE01119601900D928A95E1F780913E06C9
:10251000898709E010E02BE033E0AE014F5F5F4FA9
:1025200066E373E088E00E9457122996E4E00C9479
:10253000372DA1E0B0E0EFE9F2E10C941B2D0E94F1
:102540001C1F898301E010E026E033E0AE014F5FFD
:102550005F4F6CE273E086E00E9457122196E4E040
:102560000C94372D0F931F9304E010E02AEF32E014
:10257000AC016CE173E082E00E9457121F910F9151
:102580000895F894E82FE295EF70F0E031A1282F3C
:102590002F7081E090E001C0880F2A95EAF7982F0C
:1025A0009095932391A392A1892B82A37894089567
:1025B0000F931F938091F603882319F00E942B1E1E
:1025C0000EC00E942B1E0091A1021091A202209128
:1025D000A3023091A402600F711F821F931F1F91ED
:1025E0000F910895A4E0B0E0E8EFF2E10C941B2D08
:1025F0006091200370912103809122039091230325
:102600000E94001E643671058105910528F10E9423
:10261000D812DC01CB010296A11DB11D89839A83DA
:10262000AB83BC8300E010E020E030E044E050E009
:10263000BE016F5F7F4F83E00E94CC10182F88236C
:1026400061F00E942B1E60932003709321038093FE
:1026500022039093230301C011E0812F2496E4E02C
:102660000C94372D7830B0F46630A0F48430A0F4A8
:1026700090E3899FF001112486E0789FE00DF11D21
:102680001124E60FF11DEE0FFF1FEF54FD4F859152
:102690009491089580E001C081E090E008951F9337
:1026A000CF93DF930E94FB0FEC01C11580E5D807A3
:1026B000E8F5C11590E4D90708F0A8C0C03ED105DF
:1026C00030F5CD3CD10508F094C0C83AD10578F476
:1026D000C53AD10508F083C0C130D10509F47CC0EA
:1026E00008F4F2C0C430D10508F0F1C0EDC0C33C1D
:1026F000D10508F0E9C0C85AD0E0CC0FDD1FCC5698
:10270000DE4F0990D881C02DCE019464E1C0C1157F
:1027100080E2D80708F0CBC0C11591E0D90708F0D6
:102720006BC0C83ED10508F4D2C0CEC0C03682E529
:10273000D80728F5C03492E5D90708F079C0C0322F
:1027400082E5D80708F06CC0C11592E5D90708F4F6
:1027500081C04C2F4695469580E2489FA0011124E8
:10276000C37021E030E0C90102C0880F991FCA95EB
:10277000E2F7EA01C82BD92BCE019D68A9C0C03A67
:1027800082E5D807B8F48C2F8F71C03892E5D9074D
:1027900008F07BC08695869590E2899F9001112470
:1027A000C37081E090E002C0880F991FCA95E2F7DC
:1027B0009A6868C0C03C82E5D80708F46DC0C03E86
:1027C00092E5D90708F080C0CF71DD27DC2FCC2738
:1027D000CE01806F906A7CC081E090E079C0C55ADC
:1027E000D0E0CF56DE4F8881C82FD0E0CE01906474
:1027F0006FC0CE0190656CC08D2F0E94AC0F182F5A
:10280000CE0199270E94FB0F1F715CC0CE01992752
:102810000E94FB0FCC27DF70D06A8C2B9D2B58C0F9
:10282000CF71D0E0DC2FCC27CE01816F906A50C0F1
:102830008C2F8F718695869590E2899F9001112447
:10284000C37081E090E002C0880F991FCA95E2F73B
:102850009C6818C08C2F8F710E94AC0F95E0D695A4
:10286000C7959A95E1F7CF70D0E0DC2FCC27282FC1
:1028700030E084FF05C084E0220F331F8A95E1F722
:10288000D069CE01822B932B23C090E0D82FCC2788
:10289000CE01846F906A1CC08C2F8F710E94AC0F88
:1028A0008F7190E0D82FCC27CE01906211C08D2F70
:1028B0008F710E94AC0F182FCE0199270E94FB0F39
:1028C0001F719062912B04C080E090E001C0CE01A6
:1028D000DF91CF911F910895ACE0B0E0E2E7F4E121
:1028E0000C94102DAE014F5F5F4F7A0188E0DA0142
:1028F0001D928A95E9F70FE711E06A0183E8682ED7
:1029000081E0782EAA24A394B12C29E8822E21E01C
:10291000922EF80180818F3F09F440C0F894E82F8F
:10292000E295EF70F0E021A18F70A50102C0440F85
:10293000551F8A95E2F7CA01922F982B91A392A175
:102940008095892382A3789400C0E3E8F1E0512CBC
:1029500031E021912F3F89F0A22FA295AF70B0E016
:1029600090968C9190E02F7002C0959587952A954E
:10297000E2F780FD02C0832F01C080E0582A330FA8
:102980008E169F0631F7D8018C918F3F11F00E946F
:10299000C112B0EABA95F1F7F60150820F5F1F4FEE
:1029A000FFEFCF1ADF0A6016710609F0B2CF48E0D8
:1029B00050E0B70185EA92E00E94B12D892B99F091
:1029C00088E0F701A5EAB2E001900D928A95E1F75F
:1029D00081E08093ED020E94371E9093EC02809379
:1029E000EB02F12C27C08091ED028823D1F30091F6
:1029F000AE028091EB029091EC020E941C1E0597A2
:102A000080F310E001551D4F44E050E065EA72E0AC
:102A1000C8010E94B12D892B09F449C184E0E5EA7F
:102A2000F2E0D80101900D928A95E1F7FF24F3942A
:102A30001092ED028091F603E091AE02882309F432
:102A40008DC019861A861B861C860E2F10E0015534
:102A50001D4F80913A038A3060F446E751E1BE0190
:102A6000675F7F4FC8010E949710882309F447C011
:102A70000AC08091EE029091EF020E941C1E843FDA
:102A8000914058F74EC042EB52E1BE01675F7F4F65
:102A9000C8010E949710882391F142EF52E1BE01D4
:102AA000675F7F4FC8010E949710882341F144E27D
:102AB00052E1BE01675F7F4FC8010E9497108823D3
:102AC000F1F049E952E1BE01675F7F4FC8010E9402
:102AD00097108823A1F044E151E1BE01675F7F4F69
:102AE000C8010E949710882351F047E752E1BE01C8
:102AF000675F7F4FC8010E9497108111C3C080910A
:102B00003A038F3F19F08F5F80933A0380913A0325
:102B10008A3008F4B9C00E94371E9093EF02809368
:102B2000EE028091F402882309F4A6C0FE013996D2
:102B300084E0DF011D928A95E9F71092F402E0919A
:102B4000AD02F0E0E155FD4F89859A85AB85BC85E6
:102B500080839183A283B38381E08FC00091AD0213
:102B600010E001551D4FF0E0E155FD4F84E0A6EF68
:102B7000B2E001900D928A95E1F786EF92E00E9413
:102B80003D218093F50284E0EAEFF2E0D801019064
:102B90000D928A95E1F78090FE029090FF02A0903E
:102BA0000003B09001038091F0029091F102A09196
:102BB000F202B091F30288169906AA06BB06B1F09C
:102BC0008092F0029092F102A092F202B092F3028F
:102BD0000E942B1E861A970AA80AB90A8092A1029F
:102BE0009092A202A092A302B092A402809102034A
:102BF0009091030390932804809327048091040309
:102C000090910503909339068093380680910603CE
:102C10008093F803209108039091090380910A039F
:102C2000309107033093F3032093F20320910004C3
:102C300022FF05C0209130039213909330039091AE
:102C4000310389138093310388E0EBE0F3E0AFE1D7
:102C5000B4E001900D928A95E1F7109113031123CE
:102C600049F080913E06811105C00E945F2580E0F9
:102C70000E94522510933E0680E08F292C96EFE0AB
:102C80000C942C2D10923A038091AD0290E044E018
:102C900050E0BE01675F7F4F81559D4F0E94B12D6F
:102CA00021E02093F402892B09F049CFE5CFF12CE4
:102CB000BFCE9091F3038091F203892B9091300362
:102CC0009923E1F0892B90917501992341F090911E
:102CD000FF0397FF04C09EE12BEC33E003C096E0B6
:102CE00023EC33E0F90120E0915028F031913323B7
:102CF000D9F32F5FF9CF211110923003089520915D
:102D0000930390915A0357E02917A9F030E0529F9E
:102D1000F001539FF00D1124E55AFC4F7181761399
:102D200006C07081781303C07581741306C02F5FCD
:102D30003F4F2770E9CF80E0089581E008958095A6
:102D40009091F20389238093F203089580959091E6
:102D5000F30389238093F3030895809175018823F9
:102D600051F18091FF0387FF26C00E94591680937E
:102D7000CA0340E250E065E973E089EC93E00E9409
:102D8000B12D892BF1F180E2E9ECF3E0A5E9B3E0A4
:102D900001900D928A95E1F7E091FB03F091FC031D
:102DA000309779F186E08093C9030480F581E02DA6
:102DB00089EC93E025C00E9459168093C10349E035
:102DC00050E065EB73E080EC93E00E94B12D892B1D
:102DD000C1F089E0E0ECF3E0A5EBB3E001900D92E7
:102DE0008A95E1F7E091FB03F091FC03309749F0FD
:102DF00081E08093C0030280F381E02D80EC93E0BA
:102E0000099508958091930390915A03891719F0B9
:102E10008F5F8770FBCF0895CF93DF938091590325
:102E200082958F7009F04EC080915803882309F471
:102E300049C08091930340915A035091540360918B
:102E40005303C0915503D091560377E08417D1F115
:102E500090E0789FF001799FF00D1124DF01A55AD1
:102E6000BC4F14962C911497222349F111962C9162
:102E70001197251324C02C91261321C015962C914F
:102E8000159721111CC012962D913C9113972C1B64
:102E90003D0B283C310598F4809159038F70806177
:102EA00080935903EF59FC4F80818F70806180833C
:102EB00083E593E00E9433060E94021703C0019647
:102EC0008770C4CFDF91CF910895A0E0B0E0EBE62A
:102ED000F7E10C94162D7C01009127041091280431
:102EE0008091380690913906082B192BCFE0D0E05D
:102EF000CC24C394D12CC6010C2E02C0880F991F7C
:102F00000A94E2F780239123892B21F4219798F7E3
:102F1000B12C09C0BC2EB7018C2F0E9432130E9425
:102F20004F13019799F38B2DCDB7DEB7E9E00C94E1
:102F3000322DCF93DF93EC010E946517BE010E94F2
:102F400032130E944F13DF91CF910895FC01248129
:102F50002223D9F0808191810E94991792959F70C8
:102F6000963079F010F4925001C09A50923068F483
:102F7000803F69F018F4883E40F409C0843F29F48A
:102F800006C0883E20F0813F11F080E0089581E086
:102F90000895A4E1B0E0EFECF7E10C94132D8C015F
:102FA00086E0F801DE011F9601900D928A95E1F707
:102FB000F8018481E58093E5892E93E0992E909124
:102FC0005703911120C0882309F463C1EE2009F44E
:102FD00042C0C8010E94A617F82E8823E1F187E0BD
:102FE000F801D40101900D928A95E1F78091570381
:102FF000813031F480915303909154030E949917CA
:103000000E940C1748C1F801D080C180A280B38013
:10301000F09058032091550330915603FF2009F496
:10302000E7C0A501421B530B483C510508F09DC069
:10303000882309F430C180915903282F207F909173
:103040005403222361F09C1509F460C0C8010E945A
:10305000A617811163C0C8010E9433061AC19C11D2
:1030600013C0909153039D110FC0E1100DC08F70DC
:1030700080618093590383E593E00E943306809139
:103080005903F801868303C1E1103AC040E06C2D7A
:103090008D2D0E947F1640E06C2D8D2D0E947F1695
:1030A000E82E8111F4C0DF86C88A8F8598890E9436
:1030B0009917292F22952F70243020F49F702230E9
:1030C00028F009C02A50223080F014C0992349F01A
:1030D000811107C013C0992321F0F8019681907FD8
:1030E00069F0805E883030F409C0803F38F0815F3D
:1030F000833020F0C8010E943306EF2CFE2CCBC099
:1031000080915903816080935903C1C0909153030A
:103110009D119CCFE1109ACFF80198C0EE2009F4E0
:103120009ACF20915903822F82958F7090E0029759
:103130008CF0809153039091540399878887BB86C4
:10314000AA86809157038C871D862E87CE0108960C
:103150000E94330687E0F801A3E5B3E001900D92E9
:103160008A95E1F70E940C1794C090915903292F7A
:10317000207F51F483E593E00E94330687E0F40159
:1031800011928A95E9F783C0882309F484C080915D
:1031900054038C110CC0809153038D1108C0E110B1
:1031A00006C0F8019683C8010E9433066AC0C801B0
:1031B0000E94A617882309F44ECFEE2009F44BCFC6
:1031C00020915903822F82958F7090E0029714F21C
:1031D00080915303909154039A838983BC82AB827C
:1031E000809157038D831E822F83CE010196B0CF2D
:1031F000A21AB30AF8ECAF16B10408F042C0882353
:1032000009F447C0FE2CEE2009F425CF8091540329
:103210008C1129C0809153038D1125C090915903C1
:1032200090FD18C0892F82958F70282F30E02115CE
:10323000310581F0F80196832F30310541F08F5F21
:10324000982F9295907F86818F70892B8683C801F5
:103250000E94330687E0F801A3E5B3E001900D92E8
:103260008A95E1F718C0C8010E94A617811172CF94
:1032700080915903816080935903C8010E943306ED
:103280000AC087E0F40111928A95E9F704C0F12C95
:1032900002C0FF24F3948F2D6496ECE00C942F2D44
:1032A000983078F5863068F5E82FF0E086E0989F52
:1032B000E00DF11D11249E2F977083E0F695E795A0
:1032C0008A95E1F7EE0FFF1FEE0FFF1FE55CFC4F45
:1032D00040E050E080E0219130E0092E02C03695B8
:1032E00027950A94E2F721703327042E01C0220F9C
:1032F0000A94EAF7822B4F5F5F4F4430510559F72C
:10330000089580E00895983088F5863078F5E82FA4
:10331000F0E086E0989FE00DF11D11248E2F87705C
:1033200051E001C0550F8A95EAF783E0F695E795DD
:103330008A95E1F7EE0FFF1FEE0FFF1FE55CFC4FD4
:1033400020E030E070E04081CB01022E02C0969573
:1033500087950A94E2F781708195842785238427D5
:1033600081932F5F3F4F2430310569F70895909383
:10337000280480932704089521E030E002C0220F42
:10338000331F8A95E2F7209530958091270490911C
:103390002804822393230E94B719089590919403DF
:1033A0008095892380939403282F277069F49817B8
:1033B00059F09091000492FF07C0869586958695F6
:1033C0000E94BC191092940308959091000492FBFE
:1033D000222720F9281779F080FB92F990930004B6
:1033E0006091FF037091000484E090E00E94992DA9
:1033F00082E00E94CE19089521E030E002C0220F41
:10340000331F8A95E2F78091270490912804822B3C
:10341000932B0E94B719089590933906809338062C
:1034200008951092F30380917501882341F08091F3
:10343000FF0387FF04C08EE1EBECF3E003C086E0FE
:10344000E3ECF3E0DF011D928A95E9F780E090E07C
:103450000E94F71E80E090E00E94D21E1092F203BC
:103460000E94AD160895882321F00E949F160E94A5
:10347000AD160895882339F09091F203892B80933B
:10348000F2030E94AD160895882321F00E94A6162B
:103490000E94AD160895882339F09091F303892B8B
:1034A0008093F3030E94AD160895882339F19CEFB1
:1034B000980F913A18F40E946C1E0DC090E2980F7C
:1034C000983060F4877091E001C0990F8A95EAF70F
:1034D000892F0E94A6160E94AD1608959BE5980FAD
:1034E000933028F480E090E00E94F71E0895885AF7
:1034F0008B3120F480E090E00E94D21E0895CF939B
:10350000882309F465C0C82F8CEF8C0F813AA0F591
:10351000809175018823E1F08091FF0387FF18C037
:10352000EC2FE695E695E695F0E0E753FC4F8281B7
:10353000282F30E04C2F477081E090E002C0880FC8
:10354000991F4A95E2F782239323892B61F410C0D7
:10355000E3ECF3E089EC93E02191C21721F08E17A0
:103560009F07D1F705C08C2F0E946C1E0E94AD16DC
:103570008C2F0E949A1E10C080E28C0F883078F445
:10358000C77081E090E001C0880FCA95EAF790917A
:10359000F303892B8093F3030E94AD1619C0EBE56A
:1035A000EC0FE33040F4F0E0EF56FE4F808190E006
:1035B0000E94F71E0DC0C85ACB3150F4EC2FF0E03A
:1035C000EE0FFF1FEC56FE4F808191810E94D21EAC
:1035D000CF910895A6E0B0E0E0EFFAE10C941B2D46
:1035E0000E94371E8C018091BE039091BF03081783
:1035F000190781F019821A820E94371E682F4981AB
:103600005A81792F80E090E00E9491271093BF03A8
:103610000093BE032696E4E00C94372D0895809124
:103620000804089563E070E00E946721089560E255
:1036300070E00E9467210895CF93DF93EC018091A1
:103640007501811105C068E070E0CE01019603C0EC
:1036500069E070E0CE010E94672189E0FE01A9E0E7
:10366000B4E001900D928A95E1F7DF91CF91089532
:10367000FC018281813021F4FB018081918105C0B0
:10368000823029F4FB01828193810E9430280895C1
:10369000FB01808191810E944A280895CF93DF9396
:1036A000FC012281223049F4FB01EC0182819381EB
:1036B0000E944A288D8182608D83DF91CF91089589
:1036C0001F920F920FB60F9211242F933F934F9397
:1036D0005F936F937F938F939F93AF93BF93CF939A
:1036E000DF93EF93FF93C091E900CF708091EC00DE
:1036F000D82FD17080FDD0E81092E9008091F000C1
:10370000877F8093F00078940E94A5211092E900B1
:103710008091F00088608093F000CD2BCF70C09333
:10372000E900FF91EF91DF91CF91BF91AF919F9110
:103730008F917F916F915F914F913F912F910F905A
:103740000FBE0F901F901895E8EDF0E080818E7FFE
:1037500080831092E2001092DA001092E100A0EE55
:10376000B0E08C9181608C9380818F77808319BCCD
:10377000A7EDB0E08C918E7F8C9380818F7E8083CB
:103780001092060408952091E4003091E50095E63A
:103790004091EC00842F817040FF23C08091E800AD
:1037A00080FD1DC080911D04882399F0853099F01B
:1037B0008091EB0085FD11C04091E4005091E5003F
:1037C0002417350729F3915011F09A01E1CF84E0D5
:1037D000089582E0089583E0089581E0089580E0EF
:1037E00008954091E80042FFDDCF089580911504CF
:1037F00087FF11C08091E80082FD05C080911D0403
:103800008111F8CF11C08091E8008B770BC08091B7
:103810001D04882349F08091E80080FFF8CF809153
:10382000E8008E778093E8000895982F973068F528
:103830009093E900981739F07091EC002091ED0019
:103840005091F00003C0242F762F50E021FD02C0DC
:103850009F5FECCF3091EB003E7F3093EB003091D7
:10386000ED003D7F3093ED003091EB0031603093FF
:10387000EB007093EC002093ED005093F00020914A
:10388000EE0027FDE5CF80E008958F708093E9007A
:1038900081E00895A0E0B0E0E0E5FCE10C94172D94
:1038A000C8EDD0E088818F7E8883E7EDF0E08081ED
:1038B0008160808384E082BF81E0809306048881F8
:1038C0008E7F888302EE10E0F80110821092DA00F9
:1038D00081EEC82ED12CF601108288818F778883E3
:1038E00088818068888388818F7D888319BC109245
:1038F0001D0410921404109213041092120490EEFE
:10390000E92EF12CF70180818B7F80838881816093
:10391000888342E060E080E00E94151CF60180810F
:103920008E7F8083F80180818160808380818860C0
:103930008083F70180818E7F808388818061888386
:10394000CDB7DEB7E8E00C94332D1F920F920FB67F
:103950000F9211242F933F934F935F936F937F9315
:103960008F939F93AF93BF93EF93FF938091E10069
:1039700082FF09C08091E20082FF05C08091E100D2
:103980008B7F8093E1008091DA0080FF2AC08091D4
:10399000D80080FF26C08091DA008E7F8093DA0005
:1039A0008091D90080FF18C080E189BD82E189BD86
:1039B00009B400FEFDCF81E080931D0480910604D0
:1039C00081110FC00E94A41B0E944A1C8091E2003A
:1039D00084608093E20005C019BC10921D0410920F
:1039E00006048091E10080FF17C08091E20080FF13
:1039F00013C08091E2008E7F8093E2008091E2000C
:103A000080618093E2008091D80080628093D8002A
:103A100019BC85E080931D048091E10084FF30C0D3
:103A20008091E20084FF2CC080E189BD82E189BDE4
:103A300009B400FEFDCF8091D8008F7D8093D8001F
:103A40008091E1008F7E8093E1008091E2008F7E83
:103A50008093E2008091E20081608093E200809197
:103A60001404882311F084E007C08091E30087FDEF
:103A700002C081E001C083E080931D0480911D0499
:103A80008091E10083FF27C08091E20083FF23C083
:103A90008091E100877F8093E10082E080931D04A4
:103AA000109214048091E1008E7F8093E100809158
:103AB000E2008E7F8093E2008091E200806180933B
:103AC000E20042E060E080E00E94151C8091F0007E
:103AD00088608093F000FF91EF91BF91AF919F912B
:103AE0008F917F916F915F914F913F912F910F90A7
:103AF0000FBE0F901F90189520911B0430911C044D
:103B00002617370748F06115710539F42091E80050
:103B10002E772093E80001C0B901FC0120E0611577
:103B2000710579F180911D048823F1F18530F1F15F
:103B30008091E80083FD3CC08091E80082FD2EC0AA
:103B40008091E80080FFEBCF2091F3008091F2009C
:103B500090E0922B6115710551F08830910538F491
:103B600021912093F100615071090196F3CF21E07A
:103B7000089709F020E08091E8008E778093E800B4
:103B8000CECF2111CFCF0AC080911D04882361F0D0
:103B9000853061F08091E80083FD0AC08091E800E3
:103BA00082FFF2CF80E0089582E0089583E00895D7
:103BB00081E0089578941F920F920FB60F9211240E
:103BC0008F939F93AF93BF938091020490910304CE
:103BD000A0910404B09105040196A11DB11D80932C
:103BE000020490930304A0930404B0930504BF91CE
:103BF000AF919F918F910F900FBE0F901F901895CE
:103C0000CF92DF92EF92FF922FB7F894C090020408
:103C1000D0900304E0900404F09005042FBFA701A6
:103C20009601261B370B480B590BCA01B901FF90AF
:103C3000EF90DF90CF9008959C014FB7F89480915A
:103C4000020490910304A0910404B09105044FBFB5
:103C5000821B930B08952FB7F89460910204709122
:103C6000030480910404909105042FBF08952FB799
:103C7000F8948091020490910304A0910404B091FF
:103C800005042FBF08951F920F920FB60F921124B3
:103C90008F939F93AF93BF9380910104811113C0C1
:103CA0008091020490910304A0910404B091050452
:103CB0004196A11DB11D8093020490930304A0932B
:103CC0000404B0930504BF91AF919F918F910F9021
:103CD0000FBE0F901F90189590917501992321F0B8
:103CE0009091FF0397FD03C0E0ECF3E01DC0E82FC7
:103CF000E695E695E695EE31E0F4F0E0E753FC4F0B
:103D0000877021E030E0A90102C0440F551F8A9559
:103D1000E2F7CA01809592818923828308953196C2
:103D200053E0E63CF50729F093818913F8CF13821D
:103D3000F6CF0895909175019923D9F09091FF03E2
:103D400097FF17C0E82FE695E695E695EE3148F522
:103D5000F0E0E753FC4F877021E030E0A90102C09A
:103D6000440F551F8A95E2F7CA019281892B8283FD
:103D70000895A3ECB3E0EFEF90E02D91821789F066
:103D8000EF3F19F4211101C0E92F9F5F9630A9F789
:103D9000EF3F39F00E2E000CFF0BE054FC4F8383F5
:103DA00008950895A3E0B0E0E8EDFEE10C941D2D28
:103DB0002091FD033091FE0328173907A1F090935D
:103DC000FE038093FD03E091FB03F091FC03309729
:103DD00051F024E029839B838A830084F185E02DC0
:103DE000CE01019609952396E2E00C94392DA3E0CB
:103DF000B0E0EDEFFEE10C941D2D2091F903309120
:103E0000FA0328173907A1F09093FA038093F90376
:103E1000E091FB03F091FC03309751F023E02983FC
:103E20009B838A830084F185E02DCE01019609955C
:103E30002396E2E00C94392D8091F603811103C0A2
:103E40008091F8030895E091FB03F091FC03309713
:103E500029F00190F081E02D0995089580E0089502
:103E60004115510511F0FA0109950895CF93DF939B
:103E7000EC014A855B856E857F850E94301F8B81B2
:103E80000E949F168C810E94A6160E94AD1686E0A5
:103E9000FE0111928A95E9F7DF91CF910895CF93B2
:103EA000DF93EC018D8181FD17C082608D8390913D
:103EB000F2038B81892B8093F2039091F3038C8121
:103EC000892B8093F3030E94AD16488559856E8532
:103ED0007F85CE010E94301F1092F5031092F403EB
:103EE0008D8180FD03C0CE010E94361FDF91CF91EE
:103EF0000895FF920F931F93CF93DF93C42FD22F78
:103F0000F02EFC0185818823B1F04093F1030E94DB
:103F1000371E9093F0038093EF0380E28C0F88307C
:103F200008F06CC0C77081E001C0880FCA95EAF73D
:103F30000E944B1A63C08091F103481353C08091D3
:103F4000EF039091F0030E941C1E883C910508F03D
:103F500049C0CD1729F180E28C0F883040F4C7703A
:103F600081E001C0880FCA95EAF70E94441A80E2F6
:103F70008D0F883048F481E09D2F977001C0880F25
:103F80009A95EAF70E944B1AF9E3FF1619F000E040
:103F900010E002C000E510E08F2D0E947F1A08C0DB
:103FA00099E30913F4CF89E30E947F1A00E510E03A
:103FB0000115110549F08FE99FE00197F1F700C065
:103FC000000001501109F4CF8F2D0E94551A80E294
:103FD0008D0F883098F4D77081E001C0880FDA9592
:103FE000EAF70AC080E28C0F883040F4C77081E0A5
:103FF00001C0880FCA95EAF70E94441ACDB7DEB710
:10400000E5E00C94362DCF93E82F209132063091C5
:1040100033062C52344040912904642F70E0C901CA
:104020000E94F92C481B842FEE2351F066E00E9479
:104030009F2DC82FC150A8F080E20E948720FACFA0
:10404000A901480F511D4115524018F080E020E0B1
:1040500030E0280F311D245D3B4F30933306209311
:104060003206CF910895AB0124E630E0BC0188E729
:104070000E94A32A21E0892B09F020E0822F0895D5
:104080008091EE039091ED03882389F0992369F0E4
:1040900062E070E083E394E00E943320811103C06A
:1040A0008091ED0308951092ED039091ED0381E06E
:1040B000892708958091EE038823F9F00E942B1E32
:1040C000DC01CB01805A9541AF4FBF4F8093E9038C
:1040D0009093EA03A093EB03B093EC038091ED037C
:1040E00081110BC062E070E081E394E00E94332014
:1040F000882319F081E08093ED038091ED0308950A
:10410000882311F0FA0101C0FB0109950895CF93AE
:10411000DF93682F8A3011F481E003C08D3021F4E1
:1041200080E00E9403206FC0809132069091330698
:1041300026E0FC01ACE2B6E001900D922A95E1F791
:10414000603E30F026E0FC0111922A95E9F70AC0A2
:10415000F6E06F9FB0011124605C7A4F46E050E0BA
:104160000E94442DC0913206D091330646E050E0C3
:10417000BE018CE296E00E94B12D892B49F19E018F
:104180002C523440A90185E0569547958A95E1F770
:1041900081E090E0BC0102C0660F771F4A95E2F70C
:1041A00040912A0450912B04462B572B2B5F3F4FF5
:1041B00065E0369527956A95E1F702C0880F991F4B
:1041C0002A95E2F7842B952B90932B0480932A0455
:1041D0009E012652344040912904642F70E0C901A9
:1041E0000E94F92C481B463010F4240F311D211574
:1041F00082E0380710F020E030E0245D3B4F309340
:10420000330620933206DF91CF910895CF93DF9349
:10421000EC01FE018491882321F00E9487202196E1
:10422000F8CFDF91CF9108958091270490912804D1
:104230009C01267033272630310511F4886001C0B7
:10424000877F0E94B719089590911F049370A1F081
:10425000811102C0946007C0833010F0986003C0E1
:10426000880F880F982B90931F04109276018091ED
:104270001E04816080931E040895FC01AC014C5F14
:104280005F4F8FEF91E32191822728E030E087FF95
:1042900003C0880F892701C0880F21503109B9F761
:1042A000E417F50781F7089590911F04937071F05A
:1042B0008093200460932104493708F048E7409335
:1042C000220480911E04816080931E0408950F9340
:1042D0001F93CF93DF938C01EB0180911D048430F9
:1042E00079F581E08093E9008FEF9091E8008150AB
:1042F00095FD06C095ED9A95F1F700008111F5CF77
:104300008091E80085FF1CC00E94C31B882361F0D8
:104310008091E8008E778093E80012C0F8018191C7
:104320008F018093F1002197209791F38091E8000D
:1043300085FDF4CF8091E8008E778093E800E4CF8C
:10434000DF91CF911F910F910895AAE2B0E0EBEABF
:10435000F1E20C941C2DE5E1F4E08DE194E0209174
:10436000F10021938E179F07D1F7809116048330B7
:1043700009F461C030F4813071F0823009F49BC0DF
:10438000B2C08A3009F487C08B3009F46CC0893020
:1043900009F0A9C020C080911504813A09F0A3C09A
:1043A0008091E800877F8093E800809119049091C4
:1043B0001A04892B21F469E089E094E003C060E0ED
:1043C00080E090E070E00E947C1D8091E8008B7797
:1043D0008093E80088C080911504813209F083C081
:1043E0008091190490911A04892B09F07CC0809166
:1043F000E800877F8093E8008091E80082FD05C097
:1044000080911D048111F8CF6EC02091F30080913E
:10441000F20090E0922B029731F48091F10081300C
:1044200011F0863021F48091F1008093080480918E
:10443000E8008B7754C080911504813A09F053C08D
:104440008091190490911A04892B09F04CC0809135
:10445000E800877F8093E8008091E80080FFFCCF30
:104460008091750137C0809115048132E1F580910A
:10447000190490911A04892BB1F58091E800877F87
:104480008093E8000E94F61B8091170480937501C9
:104490000E94111A28C080911504813221F5809163
:1044A000E800877F8093E8000E94F61B8091180443
:1044B0008093070418C080911504813AA1F480917B
:1044C000E800877F8093E8008091E80080FFFCCFC0
:1044D000809107048093F1008091E8008E778093AB
:1044E000E8000E94F61B8091E80083FFB8C180912C
:1044F000150490911604492F50E04A30510508F0F8
:10450000AEC1FA01E056FF4F0C94AB2D803821F07C
:10451000823809F0A4C108C080911204909113045C
:10452000992389F082600FC0809119048F708730C1
:1045300008F095C18093E9008091EB0085FB882706
:1045400080F91092E9009091E800977F9093E8003D
:104550008093F1001092F10053C1282F2D7F09F0B4
:104560007EC1882319F0823061F079C180911704EF
:10457000813009F074C1933009F080E08093130416
:104580002EC08091170481112AC0809119048F7068
:104590002FEF280F263008F062C18093E9002091A8
:1045A000EB0020FF1CC0933021F48091EB0080626F
:1045B00014C09091EB0090619093EB0021E030E00B
:1045C000A90102C0440F551F8A95E2F74093EA0003
:1045D0001092EA008091EB0088608093EB001092CB
:1045E000E9008091E800877F0EC1811138C11091E8
:1045F00017041F778091E3008078812B8093E3007C
:104600008091E800877F8093E8000E94F61B8091EC
:10461000E80080FFFCCF8091E30080688093E30096
:10462000111102C082E001C083E080931D0417C114
:104630008058823008F013C18091170490911804BB
:104640008C3D53E0950779F583E08A838AE289837C
:104650004FB7F894DE01139620E03EE051E2E32FDD
:10466000F0E050935700E49120FF03C0E295EF7013
:104670003F5FEF708E2F90E0EA3010F0C79601C0D8
:10468000C0968D939D932F5F243149F74FBF809142
:10469000E800877F8093E8006AE270E0CE0101962F
:1046A0000E947C1D9CC04091190450911A04292F2E
:1046B000332723303105A9F068F42130310509F49E
:1046C000DDC02230310509F0CAC082E290E0E8EE98
:1046D000F4E032C02132310521F12232310529F1D5
:1046E000BEC0992781309105A1F058F0029709F0DA
:1046F000B6C0ECE1F5E0E4918E2F90E0ECE1F5E05E
:1047000018C0ECE3F5E0E4918E2F90E0ECE3F5E0E7
:1047100010C0EAE2F5E0E4918E2F90E0EAE2F5E0E5
:1047200008C0452B09F4AFC09AC0452B09F4B0C0AE
:1047300096C0009709F493C02091E800277F20934A
:10474000E80020911B0430911C048217930708F4A1
:104750009C0140E02115310589F180911D048823D9
:1047600009F43DC08530D9F18091E80083FD37C060
:104770008091E80082FD2FC08091E80080FFEACFA1
:104780004091F3008091F20090E0942B21153105C7
:1047900059F08830910540F444914093F1003196EE
:1047A000215031090196F2CF41E0089709F040E02D
:1047B0008091E8008E778093E800CCCF4111CDCF77
:1047C0000AC080911D04882351F0853041F080910A
:1047D000E80083FD04C08091E80082FFF2CF809161
:1047E000E8008B778093E8003AC08038C1F580916B
:1047F000E800877F8093E800809114048093F100A3
:104800008091E8008E778093E8000E94F61B27C015
:10481000811125C08091170490911804992702975F
:10482000F4F48091E800877F8093E80010911704EA
:10483000109314040E94F61B112359F084E0809316
:104840001D0442E261EC81E00E94151C80911D0470
:1048500006C08091E30087FDF1CF81E0F0CF809129
:10486000E80083FF1AC08091E800877F8093E8000A
:104870008091EB0080628093EB000FC082E190E0BA
:10488000EAE0F5E059CF89E090E0EAEFF4E054CFB8
:1048900083EB90E0E5E3F4E04FCFAA96E3E00C94DD
:1048A000382D3091F703311105C08B31910524F17A
:1048B0004B9703C08B319105FCF4FC01EE0FFF1FF9
:1048C000DF01A80FB91FA05CB94F11963C91119759
:1048D000361307C03C91341304C012963C91321732
:1048E00059F031E030933F068E0F9F1FFC01E05CD2
:1048F000F94F6183408322830895539A10923F06B3
:104900000895EFE1F4E024813AE0231B08F420E06D
:10491000248380911E04816080931E040895EFE13A
:10492000F4E024813AE0230F08F42FEF24838091F0
:104930001E04816080931E0408959BE0899F802D52
:104940001124980F973308F096E32091F703222360
:1049500021F09C3128F09BE108958B3108F48BE124
:10496000089580913F06882331F18BB1877F9BB1F9
:1049700098602FB7F894E0E4F6E036E0E23EF30703
:1049800089F0319148E09BB9000000C037FF8BB936
:10499000330F000000C000C000C08BB900C04A95B2
:1049A00091F7EBCF2FBF8FE594E00197F1F700C0AF
:1049B000000010923F060895EFE1F4E0438128E003
:1049C000421B08F440E08181628190E00E94542102
:1049D0000895EFE1F4E0438128E0420F08F44FEF3F
:1049E0008181628190E00E9454210895EFE1F4E01A
:1049F000628128E0621B08F460E08181438190E0DD
:104A00000E9454210895EFE1F4E0628128E0620FF2
:104A100008F46FEF8181438190E00E945421089552
:104A2000EFE1F4E0818190E04381628108970E9488
:104A300054210895EFE1F4E0818190E043816281A7
:104A400008960E945421089580911F0486958695AA
:104A5000815009F482E00E942421089580911F046E
:104A6000869586958F5F833008F081E00E9424212F
:104A70000895FF920F931F93CF93DF93182F062F64
:104A8000F42EC0E0D0E02F2D402F612FCE010E94E8
:104A900043292196C633D105B1F7CDB7DEB7E5E09E
:104AA0000C94362D8093780180911F04837080933D
:104AB00077010E94B12483E0809376010895EF92FC
:104AC000FF920F931F93CF93DF93C82F80917801AC
:104AD0008C130DC020911F04237030E040917701AA
:104AE00050E081E02417350719F480E001C081E02F
:104AF000817080937B018091240490917A019817B2
:104B000039F080937A0140E060E080E00E9439252E
:104B1000C13089F5809179010E949D24192FD82FE9
:104B20006091200470912104809122040E94462902
:104B3000062FF72EE82ED11790F4ED2FF0E0DF01CD
:104B4000A859BD4F8C9190917A01982331F02E2D68
:104B5000402F6F2DCF010E944329DF5FECCF809162
:104B6000F703882321F081E01B3188F00FC081E03A
:104B7000163368F00BC0C130F0F480917B018823BC
:104B800029F040E060E080E00E94392580E09091CB
:104B900079019F5F9093790181118DC082E08093AC
:104BA000760180917B01811186C0C11184C083E0B0
:104BB0008093760180C0C23009F044C080917901B1
:104BC0000E949D24092F182F2091230426952695B5
:104BD00031E0230F08F42FEF80913A0690913B06C5
:104BE00060E070E0829F612D929F600D711D112425
:104BF000D62F1017C8F4E12EF12CF701E859FD4F1C
:104C0000908180917A01892369F0709121046D2F40
:104C1000809122040E944629462F282F672FC70122
:104C20000E9443291F5FE5CF8091F703882329F075
:104C300081E00B3108F4ABCFA9CF81E0063308F453
:104C4000A6CFA4CFCF3F89F580913A0690913B063D
:104C5000A0913C06B0913D0688279C70AA27BB27EF
:104C60002AE0B695A795979587952A95D1F7823032
:104C70009105A105B10571F083309105A105B1053C
:104C800069F040E00197A105B10511F060E008C0AE
:104C900064E102C044E160E080E003C044E164E11B
:104CA00084E10E94392582E083CF809179018F5F72
:104CB0008093790173CFCDB7DEB7E6E00C94352D44
:104CC000CF92DF92EF92FF92CF93DF930E94D812A0
:104CD00060933406709335068093360690933706BA
:104CE00020913E06211108C0C0911F042C2F237073
:104CF00019F0C695C69501C0C0E02091760121301B
:104D0000B1F038F0223009F457C0233009F458C00C
:104D100083C01092790160933A0670933B068093AA
:104D20003C0690933D0681E08093760175C08C2F00
:104D30000E945F25CC2309F46FC0809179018150D6
:104D40000E949D24F92EC82F0E941C1F81FF2AC09B
:104D5000DC2FDF1538F58D2F90E0FC01E859FD4F71
:104D6000208122FF05C020E04FEF60E00E94432930
:104D7000DF5FEFCF2091270430912804809138061F
:104D800090913906822B932B0E944027823091F01C
:104D9000833059F420E040E060E08C2F90E00E94E6
:104DA0004329CF5FCF1530F337C08130D1F720E0F2
:104DB0004FEFF2CF2FEFEFCF8C2F0E9452252CC058
:104DC00080911E04882351F048E050E067E170E0D4
:104DD0008FE194E00E946B2D10921E04C0903A0661
:104DE000D0903B06E0903C06F0903D068091F603A3
:104DF000882329F0C701B6010E94001E06C00E9448
:104E0000D8126C197D098E099F09603171058105E1
:104E1000910510F010927601DF91CF91FF90EF9005
:104E2000DF90CF9008959C013A9521153F4130F5D0
:104E3000BC0166277270AC01442754709C01222784
:104E4000387094FF0FC090FF02C080E101C080E085
:104E5000672B09F08062452B09F08064232B79F0E1
:104E600080680895892F8170672B09F08260452B37
:104E700009F08460232B19F08860089580E008957C
:104E8000292F33272115310519F0C90148E001C048
:104E900040E09C0164E0369527956A95E1F721157D
:104EA000310511F04C5FC9019C0136952795369567
:104EB00027952115310511F04E5FC9019C013695EA
:104EC0002795232B09F04F5F842F0895A6E0B0E0CB
:104ED000ECE6F7E20C941C2D26E0FC01DE011196B5
:104EE00001900D922A95E1F7FC01258189819A8133
:104EF000222359F0662349F00E946517182F682F66
:104F000089819A810E94831903C00E945019182F29
:104F100069817A81812F0E9432132696E3E00C94F6
:104F2000382DABE1B0E0E7E9F7E20C941C2D4E8B95
:104F30005F8B688F798F8A8F9B8F91111092F2030C
:104F4000CE010F9627E0DC011D922A95E9F726E0B5
:104F5000FE017696DC0101900D922A95E1F72B89EE
:104F6000222319F061E00E94662787E0FE013F9648
:104F7000DE01189601900D928A95E1F7CE01089610
:104F80000E94C91781112CC087E0FE013896DE010E
:104F9000119601900D928A95E1F76C85662301F1D7
:104FA00020915A0330E0C9010196877099274091FA
:104FB000930350E08417950761F16D8397E0929F0A
:104FC000D001939FB00D1124A55ABC4FFE0131961C
:104FD00001900D929A95E1F780935A030E9402176F
:104FE00017E08091930390915A038917F9F0189F65
:104FF000C0011124855A9C4F0E94C9178823B1F023
:105000008091930390E00196877099278093930392
:10501000E8CF0E94111A10925A0310929303E3E50D
:10502000F3E087E0DF011D928A95E9F76B96E3E0F4
:105030000C94382D0E94111A2FEF84E39CE021502C
:1050400080409040E1F700C000009AE088E10FB690
:10505000F894A895809360000FBE90936000FFCFF6
:10506000CF93DF93EC010E94551ACE01805E910927
:10507000089710F0209731F4CE010E9413270E9468
:10508000441A05C0CE010E9413270E94331ADF91F3
:10509000CF910895CF93DF93EC01805E910908973B
:1050A00010F0209731F4CE010E9413270E944B1A72
:1050B00005C0CE010E9413270E943A1A8C2F0E942D
:1050C0007F1ADF91CF910895CF93DF9386E89AE01E
:1050D0000E94062180E89AE00E94062186ED9AE06F
:1050E0000E9406218091270490912804009779F06E
:1050F00083FF03C086EC9AE00CC081FF03C086EBFF
:105100009AE007C082FF03C086EA9AE002C086E9FF
:105110009AE00E94062186ED9AE00E940621C09145
:1051200030038091F303C82BDC2FD878C474DD23BF
:1051300049F08FEF9AE00E940621CC2361F08AEFBC
:105140009AE00CC08CEF9AE00E940621CC2359F023
:1051500086EF9AE003C088EF9AE007C00E9406211C
:10516000CC23A9F005C084EF9AE00E9406210FC06D
:1051700081EF9AE00E940621D11166C088EE9AE084
:105180000E940621CC2381F084EE9AE063C08EEE6B
:105190009AE00E940621DD2389F38BEE9AE00E94BB
:1051A000062186EE9AE002C082EE9AE00E94062175
:1051B0008CED9AE00E940621C09130038091F303A8
:1051C000C82BDC2FD171C272DD2349F085E29BE050
:1051D0000E940621CC2361F080E29BE00CC082E2B9
:1051E0009BE00E940621CC2359F08CE19BE003C098
:1051F0008EE19BE007C00E940621CC23A9F005C0E8
:105200008AE19BE00E9406210FC087E19BE00E949B
:105210000621D11124C08EE09BE00E940621CC2300
:1052200081F08AE09BE021C084E19BE00E9406219E
:10523000DD2389F381E19BE00E9406218CE09BE065
:105240001DC088E09BE01AC08BEE9AE00E94062108
:1052500086EE9AE00E9406218FED9AE0ABCF81E1C5
:105260009BE00E9406218CE09BE00E94062185E0E5
:105270009BE00E940621DF91CF9108950E940621B4
:1052800082E09BE0F6CF0E9451240895A0E0B0E0B8
:10529000ECE4F9E20C94172DF62E472FE82FF0E0FE
:1052A000711106C0E85DF44F8491782F682F73C0A8
:1052B000272F30E0E85DF44FE491FE2F0E2F10E031
:1052C00056E0659FC0011124CFEFD0E0BE010E94DF
:1052D000F92C5BEA5603C001579F900D11248F0DE6
:1052E000911D8F0D911D982F990F980F7E01E21A35
:1052F000F30AE09ED001E19EB00DF09EB00D1124A6
:105300008B2F499FA0011124452F55277E01E41AB8
:10531000F50AE09EA001E19E500DF09E500D112473
:105320006E01C91AD108C29E7001C39EF00CD29EB4
:10533000F00C11242F2D3327C21BD30BC09F9001DB
:10534000C19F300DD09F300D1124932F6230710515
:1053500091F048F461157105E1F061307105B9F41F
:105360009E2FE52F16C06430710569F040F066305D
:10537000710579F00CC09E2FEB2F832F0AC0EB2F05
:105380008F2F952F06C09B2F8E2FE32F02C09B2FB0
:10539000852F7E2F692FCDB7DEB7E8E00C94332D33
:1053A000EF92FF920F931F93CF93DF93182FEB0190
:1053B0001092BC0084EA8093BC000E94371E7C01DE
:1053C0008091BC0087FD0DC0CF3F8FEFD807C1F3A0
:1053D000C7010E941C1EC817D90790F78EEF9FEFD8
:1053E0002DC08091B900887F883041F08091B9004C
:1053F000887F803119F08FEF9FEF20C01093BB00A2
:1054000084E88093BC000E94371E8C018091BC0010
:1054100087FD0BC0CF3F8FEFD807C1F3C8010E94B3
:105420001C1EC817D90790F7D9CF8091B900887F83
:10543000883111F08034F9F680E090E0CDB7DEB726
:10544000E6E00C94352D1092B9008CE08093B80002
:1054500008950F931F93CF93DF93EB018093BB00CD
:1054600084E88093BC000E94371E8C018091BC00B0
:1054700087FD0DC0CF3F8FEFD807C1F3C8010E9451
:105480001C1EC817D90790F78EEF9FEF0CC0209114
:10549000B900287F81E090E0283211F480E090E0AC
:1054A000919581959109DF91CF911F910F91089569
:1054B000A0E0B0E0EEE5FAE20C94122D782EB62EC4
:1054C000A72E6A0189010E94371E4C010431110583
:1054D00058F00F3F8FEF180751F0C80164E170E0FA
:1054E0000E94F92CEB0105C0C1E0D0E002C0C5E08C
:1054F000D0E0BE01872D0E94D0297C0197FD05C018
:10550000CB2DDA2DCC0EDD1E12C00F3F8FEF18070A
:1055100081F3C4010E941C1E0817190750F7F0CF31
:10552000F7FC08C0B80189910E94292A7C01CC159A
:10553000DD05B1F784E98093BC00C701CDB7DEB7C4
:10554000EDE00C942E2DA0E0B0E0E9EAFAE20C9434
:10555000122D782EEB016A0189010E94371E4C0141
:105560000431110558F00F3F8FEF180759F0C801AB
:1055700064E170E00E94F92C5B0107C0AA24A394A7
:10558000B12C03C085E0A82EB12CB501872D0E9457
:10559000D0297C0197FD03C0CC0EDD1E14C00F3F47
:1055A000EFEF1E0791F3C4010E941C1E0817190794
:1055B00060F7F2CFF7FC0AC0FE018491B8010E94A7
:1055C000292A7C012196CC15DD05A1F784E9809379
:1055D000BC00C701CDB7DEB7EDE00C942E2DA0E0E6
:1055E000B0E0E5EFFAE20C94112D682E762E5A0108
:1055F00069010E94371E4C010431110558F00F3F1C
:105600008FEF180751F0C80164E170E00E94F92C97
:10561000EB0105C0C1E0D0E002C0C5E0D0E0BE01B2
:10562000862D0E94D0297C0197FF0BC00F3F8FEF82
:105630001807A9F3C4010E941C1E0817190778F760
:1056400013C0B801872D0E94292A7C01E501CA0CEC
:10565000DB1CCC15DD0541F0F7FC06C0B8018991D3
:105660000E94292A7C01F5CF84E98093BC00C70100
:10567000CDB7DEB7EEE00C942D2D8EE14A9B02C033
:105680008150E1F74A9BFECF08955A9880E28A95AF
:10569000F1F75A9A0895FC012AE02A95F1F728E0DB
:1056A00090E080E031E040E14A95F1F7880F4A9BB5
:1056B00002C08160932700C0000040E14A95F1F7E5
:1056C000215089F720E12A95F1F729B100C00000A7
:1056D00030E13A95F1F722FB222720F99227208129
:1056E000920F90830895A1E0B0E0E9E7FBE20C940B
:1056F000192D19828C017C01E60EF11C0E151F0577
:1057000051F00E943D2BCE0101960E944B2BF801D7
:1057100081938F01F3CF81E09981911180E02196EF
:10572000E6E00C94352D529A5A9A089552985A9A56
:10573000EA9AE9E6F0E080818F7C808308956150E9
:1057400091E001C0990F6A95EAF720E031E09923D2
:1057500061F0492F482319F05A9A232701C05A981B
:1057600040E24A95F1F79695F2CF222311F05A9A2A
:1057700001C05A9880E28A95F1F75A980895FF92ED
:105780000F931F93CF93DF93EC018C01060F111D34
:10579000C017D10741F0F9900E94452B68E08F2D8A
:1057A0000E949F2BF5CFCDB7DEB7E5E00C94362DE8
:1057B0001F920F920FB60F9211240F931F932F93E6
:1057C0003F934F935F936F937F938F939F93AF9389
:1057D000BF93EF93FF93CF93DF931F92CDB7DEB7C5
:1057E00019820E943D2BCE0101960E944B2B082F5F
:1057F000069506950695902F96959570202F257005
:10580000920F292F237096959695920F8770891382
:105810005FC0898181115CC00A3008F059C080E105
:105820008A95F1F75A9A529A82E08A95F1F700C068
:105830005A9888E0089F80011124D801A35DBE4FCB
:105840001696ED91FC9117973097A9F06091CA01D7
:105850007091CB0114962D913C911597260F371F0F
:1058600011968D919C911297680F791F13964C9108
:1058700013978C910995F801E35DFE4F63816623D0
:1058800051F08091CA019091CB0124813581820F22
:10589000931F0E94BF2B0E94452B80E18A95F1F750
:1058A0005A9852985A9A80E18A95F1F7F801E35D87
:1058B000FE4F6081662351F08091CA019091CB0127
:1058C00021813281820F931F0E94732B0E943D2BF6
:1058D0000F90DF91CF91FF91EF91BF91AF919F9189
:1058E0008F917F916F915F914F913F912F911F9178
:1058F0000F910F900FBE0F901F9018950F931F934D
:10590000CF93DF938A3091050CF06DC0EC01F894D1
:10591000529A5A9885E08A95F1F700009C2F969547
:1059200095702C2F2570920F892F837096959695E0
:1059300023E0CC0FDD1F2A95E1F7980F8E01092B8C
:105940000E94452B84E08A95F1F700C068E0802F23
:105950000E949F2B80E18A95F1F752985A9A4A99B2
:1059600002C000C0FCCF87E090E04A9B08C00197CE
:1059700021F4529A5A9A789436C000C0F6CFFE01AC
:10598000E35DFE4F6381662381F08091CA019091AF
:10599000CB0124813581820F931F0E94732B8111CB
:1059A00004C0529A5A9A78941FC00E943D2B80E2FC
:1059B0008A95F1F75A98529A80E18A95F1F7C35D7A
:1059C000DE4F6881662351F08091CA019091CB012E
:1059D00029813A81820F931F0E94BF2B0E94452B81
:1059E000789481E001C080E0DF91CF911F910F9109
:1059F0000895AA1BBB1B51E107C0AA1FBB1FA61716
:105A0000B70710F0A61BB70B881F991F5A95A9F767
:105A100080959095BC01CD0108952F923F924F92B1
:105A20005F926F927F928F929F92AF92BF92CF922E
:105A3000DF92EF92FF920F931F93CF93DF93CDB737
:105A4000DEB7CA1BDB0B0FB6F894DEBF0FBECDBFAF
:105A500009942A88398848885F846E847D848C8480
:105A60009B84AA84B984C884DF80EE80FD800C8189
:105A70001B81AA81B981CE0FD11D0FB6F894DEBF6C
:105A80000FBECDBFED010895FB01DC0102C0059002
:105A90000D9241505040D8F70895DC01CB01FC0134
:105AA000F999FECF06C0F2BDE1BDF89A319600B477
:105AB0000D9241505040B8F70895F999FECF92BD2C
:105AC00081BDF89A992780B50895A8E1B0E042E039
:105AD00050E00C944F2DDC01A40FB51F41505040F5
